{
  "_format": "hh-sol-artifact-1",
  "contractName": "EmployeeAuthorityWorkerNFT",
  "sourceName": "contracts/EmployeeAuthorityWorkerNFT.sol",
  "abi": [
    {
      "anonymous": false,
      "inputs": [
        {
          "indexed": true,
          "internalType": "address",
          "name": "owner",
          "type": "address"
        },
        {
          "indexed": true,
          "internalType": "address",
          "name": "approved",
          "type": "address"
        },
        {
          "indexed": true,
          "internalType": "uint256",
          "name": "tokenId",
          "type": "uint256"
        }
      ],
      "name": "Approval",
      "type": "event"
    },
    {
      "anonymous": false,
      "inputs": [
        {
          "indexed": true,
          "internalType": "address",
          "name": "owner",
          "type": "address"
        },
        {
          "indexed": true,
          "internalType": "address",
          "name": "operator",
          "type": "address"
        },
        {
          "indexed": false,
          "internalType": "bool",
          "name": "approved",
          "type": "bool"
        }
      ],
      "name": "ApprovalForAll",
      "type": "event"
    },
    {
      "anonymous": false,
      "inputs": [
        {
          "indexed": false,
          "internalType": "uint8",
          "name": "version",
          "type": "uint8"
        }
      ],
      "name": "Initialized",
      "type": "event"
    },
    {
      "anonymous": false,
      "inputs": [
        {
          "indexed": true,
          "internalType": "address",
          "name": "from",
          "type": "address"
        },
        {
          "indexed": true,
          "internalType": "address",
          "name": "to",
          "type": "address"
        },
        {
          "indexed": true,
          "internalType": "uint256",
          "name": "tokenId",
          "type": "uint256"
        }
      ],
      "name": "Transfer",
      "type": "event"
    },
    {
      "inputs": [
        {
          "internalType": "address",
          "name": "to",
          "type": "address"
        },
        {
          "internalType": "uint256",
          "name": "tokenId",
          "type": "uint256"
        }
      ],
      "name": "approve",
      "outputs": [],
      "stateMutability": "nonpayable",
      "type": "function"
    },
    {
      "inputs": [
        {
          "internalType": "address",
          "name": "owner",
          "type": "address"
        }
      ],
      "name": "balanceOf",
      "outputs": [
        {
          "internalType": "uint256",
          "name": "",
          "type": "uint256"
        }
      ],
      "stateMutability": "view",
      "type": "function"
    },
    {
      "inputs": [
        {
          "internalType": "uint256",
          "name": "tokenId",
          "type": "uint256"
        }
      ],
      "name": "getApproved",
      "outputs": [
        {
          "internalType": "address",
          "name": "",
          "type": "address"
        }
      ],
      "stateMutability": "view",
      "type": "function"
    },
    {
      "inputs": [
        {
          "internalType": "string",
          "name": "name_",
          "type": "string"
        },
        {
          "internalType": "string",
          "name": "symbol_",
          "type": "string"
        }
      ],
      "name": "initialize",
      "outputs": [],
      "stateMutability": "nonpayable",
      "type": "function"
    },
    {
      "inputs": [
        {
          "internalType": "address",
          "name": "owner",
          "type": "address"
        },
        {
          "internalType": "address",
          "name": "operator",
          "type": "address"
        }
      ],
      "name": "isApprovedForAll",
      "outputs": [
        {
          "internalType": "bool",
          "name": "",
          "type": "bool"
        }
      ],
      "stateMutability": "view",
      "type": "function"
    },
    {
      "inputs": [
        {
          "internalType": "address",
          "name": "to",
          "type": "address"
        },
        {
          "internalType": "uint256",
          "name": "tokenID",
          "type": "uint256"
        }
      ],
      "name": "mintNFT",
      "outputs": [],
      "stateMutability": "nonpayable",
      "type": "function"
    },
    {
      "inputs": [],
      "name": "name",
      "outputs": [
        {
          "internalType": "string",
          "name": "",
          "type": "string"
        }
      ],
      "stateMutability": "view",
      "type": "function"
    },
    {
      "inputs": [
        {
          "internalType": "uint256",
          "name": "tokenId",
          "type": "uint256"
        }
      ],
      "name": "ownerOf",
      "outputs": [
        {
          "internalType": "address",
          "name": "",
          "type": "address"
        }
      ],
      "stateMutability": "view",
      "type": "function"
    },
    {
      "inputs": [
        {
          "internalType": "address",
          "name": "from",
          "type": "address"
        },
        {
          "internalType": "address",
          "name": "to",
          "type": "address"
        },
        {
          "internalType": "uint256",
          "name": "tokenId",
          "type": "uint256"
        }
      ],
      "name": "safeTransferFrom",
      "outputs": [],
      "stateMutability": "nonpayable",
      "type": "function"
    },
    {
      "inputs": [
        {
          "internalType": "address",
          "name": "from",
          "type": "address"
        },
        {
          "internalType": "address",
          "name": "to",
          "type": "address"
        },
        {
          "internalType": "uint256",
          "name": "tokenId",
          "type": "uint256"
        },
        {
          "internalType": "bytes",
          "name": "data",
          "type": "bytes"
        }
      ],
      "name": "safeTransferFrom",
      "outputs": [],
      "stateMutability": "nonpayable",
      "type": "function"
    },
    {
      "inputs": [
        {
          "internalType": "address",
          "name": "operator",
          "type": "address"
        },
        {
          "internalType": "bool",
          "name": "approved",
          "type": "bool"
        }
      ],
      "name": "setApprovalForAll",
      "outputs": [],
      "stateMutability": "nonpayable",
      "type": "function"
    },
    {
      "inputs": [
        {
          "internalType": "uint256",
          "name": "tokenId",
          "type": "uint256"
        },
        {
          "internalType": "string",
          "name": "url",
          "type": "string"
        }
      ],
      "name": "setTokenURI",
      "outputs": [],
      "stateMutability": "nonpayable",
      "type": "function"
    },
    {
      "inputs": [
        {
          "internalType": "bytes4",
          "name": "interfaceId",
          "type": "bytes4"
        }
      ],
      "name": "supportsInterface",
      "outputs": [
        {
          "internalType": "bool",
          "name": "",
          "type": "bool"
        }
      ],
      "stateMutability": "view",
      "type": "function"
    },
    {
      "inputs": [],
      "name": "symbol",
      "outputs": [
        {
          "internalType": "string",
          "name": "",
          "type": "string"
        }
      ],
      "stateMutability": "view",
      "type": "function"
    },
    {
      "inputs": [
        {
          "internalType": "uint256",
          "name": "tokenId",
          "type": "uint256"
        }
      ],
      "name": "tokenURI",
      "outputs": [
        {
          "internalType": "string",
          "name": "",
          "type": "string"
        }
      ],
      "stateMutability": "view",
      "type": "function"
    },
    {
      "inputs": [
        {
          "internalType": "address",
          "name": "from",
          "type": "address"
        },
        {
          "internalType": "address",
          "name": "to",
          "type": "address"
        },
        {
          "internalType": "uint256",
          "name": "tokenId",
          "type": "uint256"
        }
      ],
      "name": "transferFrom",
      "outputs": [],
      "stateMutability": "nonpayable",
      "type": "function"
    }
  ],
  "bytecode": "0x608060405234801561000f575f80fd5b50612dda8061001d5f395ff3fe608060405234801561000f575f80fd5b50600436106100fe575f3560e01c80634cd88b7611610095578063a22cb46511610064578063a22cb465146102a6578063b88d4fde146102c2578063c87b56dd146102de578063e985e9c51461030e576100fe565b80634cd88b761461020c5780636352211e1461022857806370a082311461025857806395d89b4114610288576100fe565b8063162094c4116100d1578063162094c41461019c57806323b872dd146101b85780633c168eab146101d457806342842e0e146101f0576100fe565b806301ffc9a71461010257806306fdde0314610132578063081812fc14610150578063095ea7b314610180575b5f80fd5b61011c60048036038101906101179190611bbc565b61033e565b6040516101299190611c01565b60405180910390f35b61013a61041f565b6040516101479190611ca4565b60405180910390f35b61016a60048036038101906101659190611cf7565b6104af565b6040516101779190611d61565b60405180910390f35b61019a60048036038101906101959190611da4565b6104f1565b005b6101b660048036038101906101b19190611f0e565b610607565b005b6101d260048036038101906101cd9190611f68565b61062a565b005b6101ee60048036038101906101e99190611da4565b61068a565b005b61020a60048036038101906102059190611f68565b610698565b005b61022660048036038101906102219190611fb8565b6106b7565b005b610242600480360381019061023d9190611cf7565b610841565b60405161024f9190611d61565b60405180910390f35b610272600480360381019061026d919061202e565b6108c5565b60405161027f9190612068565b60405180910390f35b610290610979565b60405161029d9190611ca4565b60405180910390f35b6102c060048036038101906102bb91906120ab565b610a09565b005b6102dc60048036038101906102d79190612187565b610a1f565b005b6102f860048036038101906102f39190611cf7565b610a81565b6040516103059190611ca4565b60405180910390f35b61032860048036038101906103239190612207565b610bf3565b6040516103359190611c01565b60405180910390f35b5f7f80ac58cd000000000000000000000000000000000000000000000000000000007bffffffffffffffffffffffffffffffffffffffffffffffffffffffff1916827bffffffffffffffffffffffffffffffffffffffffffffffffffffffff1916148061040857507f5b5e139f000000000000000000000000000000000000000000000000000000007bffffffffffffffffffffffffffffffffffffffffffffffffffffffff1916827bffffffffffffffffffffffffffffffffffffffffffffffffffffffff1916145b80610418575061041782610c81565b5b9050919050565b60606065805461042e90612272565b80601f016020809104026020016040519081016040528092919081815260200182805461045a90612272565b80156104a55780601f1061047c576101008083540402835291602001916104a5565b820191905f5260205f20905b81548152906001019060200180831161048857829003601f168201915b5050505050905090565b5f6104b982610cea565b60695f8381526020019081526020015f205f9054906101000a900473ffffffffffffffffffffffffffffffffffffffff169050919050565b5f6104fb82610841565b90508073ffffffffffffffffffffffffffffffffffffffff168373ffffffffffffffffffffffffffffffffffffffff160361056b576040517f08c379a000000000000000000000000000000000000000000000000000000000815260040161056290612312565b60405180910390fd5b8073ffffffffffffffffffffffffffffffffffffffff1661058a610d35565b73ffffffffffffffffffffffffffffffffffffffff1614806105b957506105b8816105b3610d35565b610bf3565b5b6105f8576040517f08c379a00000000000000000000000000000000000000000000000000000000081526004016105ef906123a0565b60405180910390fd5b6106028383610d3c565b505050565b8060975f8481526020019081526020015f209081610625919061255b565b505050565b61063b610635610d35565b82610df2565b61067a576040517f08c379a00000000000000000000000000000000000000000000000000000000081526004016106719061269a565b60405180910390fd5b610685838383610e86565b505050565b6106948282611172565b5050565b6106b283838360405180602001604052805f815250610a1f565b505050565b5f8060019054906101000a900460ff161590508080156106e6575060015f8054906101000a900460ff1660ff16105b8061071257506106f53061118f565b158015610711575060015f8054906101000a900460ff1660ff16145b5b610751576040517f08c379a000000000000000000000000000000000000000000000000000000000815260040161074890612728565b60405180910390fd5b60015f806101000a81548160ff021916908360ff160217905550801561078c5760015f60016101000a81548160ff0219169083151502179055505b5f60019054906101000a900460ff166107da576040517f08c379a00000000000000000000000000000000000000000000000000000000081526004016107d1906127b6565b60405180910390fd5b6107e483836111b1565b801561083c575f8060016101000a81548160ff0219169083151502179055507f7f26b83ff96e1f2b6a682f133852f6798a09c465da95921460cefb384740249860016040516108339190612819565b60405180910390a15b505050565b5f8061084c8361120d565b90505f73ffffffffffffffffffffffffffffffffffffffff168173ffffffffffffffffffffffffffffffffffffffff16036108bc576040517f08c379a00000000000000000000000000000000000000000000000000000000081526004016108b39061287c565b60405180910390fd5b80915050919050565b5f8073ffffffffffffffffffffffffffffffffffffffff168273ffffffffffffffffffffffffffffffffffffffff1603610934576040517f08c379a000000000000000000000000000000000000000000000000000000000815260040161092b9061290a565b60405180910390fd5b60685f8373ffffffffffffffffffffffffffffffffffffffff1673ffffffffffffffffffffffffffffffffffffffff1681526020019081526020015f20549050919050565b60606066805461098890612272565b80601f01602080910402602001604051908101604052809291908181526020018280546109b490612272565b80156109ff5780601f106109d6576101008083540402835291602001916109ff565b820191905f5260205f20905b8154815290600101906020018083116109e257829003601f168201915b5050505050905090565b610a1b610a14610d35565b8383611246565b5050565b610a30610a2a610d35565b83610df2565b610a6f576040517f08c379a0000000000000000000000000000000000000000000000000000000008152600401610a669061269a565b60405180910390fd5b610a7b848484846113ad565b50505050565b60605f60975f8481526020019081526020015f208054610aa090612272565b80601f0160208091040260200160405190810160405280929190818152602001828054610acc90612272565b8015610b175780601f10610aee57610100808354040283529160200191610b17565b820191905f5260205f20905b815481529060010190602001808311610afa57829003601f168201915b50505050509050808051906020012060405180602001604052805f8152508051906020012003610b5257610b4a83611409565b915050610bee565b60975f8481526020019081526020015f208054610b6e90612272565b80601f0160208091040260200160405190810160405280929190818152602001828054610b9a90612272565b8015610be55780601f10610bbc57610100808354040283529160200191610be5565b820191905f5260205f20905b815481529060010190602001808311610bc857829003601f168201915b50505050509150505b919050565b5f606a5f8473ffffffffffffffffffffffffffffffffffffffff1673ffffffffffffffffffffffffffffffffffffffff1681526020019081526020015f205f8373ffffffffffffffffffffffffffffffffffffffff1673ffffffffffffffffffffffffffffffffffffffff1681526020019081526020015f205f9054906101000a900460ff16905092915050565b5f7f01ffc9a7000000000000000000000000000000000000000000000000000000007bffffffffffffffffffffffffffffffffffffffffffffffffffffffff1916827bffffffffffffffffffffffffffffffffffffffffffffffffffffffff1916149050919050565b610cf38161146e565b610d32576040517f08c379a0000000000000000000000000000000000000000000000000000000008152600401610d299061287c565b60405180910390fd5b50565b5f33905090565b8160695f8381526020019081526020015f205f6101000a81548173ffffffffffffffffffffffffffffffffffffffff021916908373ffffffffffffffffffffffffffffffffffffffff160217905550808273ffffffffffffffffffffffffffffffffffffffff16610dac83610841565b73ffffffffffffffffffffffffffffffffffffffff167f8c5be1e5ebec7d5bd14f71427d1e84f3dd0314c0f7b2291e5b200ac8c7c3b92560405160405180910390a45050565b5f80610dfd83610841565b90508073ffffffffffffffffffffffffffffffffffffffff168473ffffffffffffffffffffffffffffffffffffffff161480610e3f5750610e3e8185610bf3565b5b80610e7d57508373ffffffffffffffffffffffffffffffffffffffff16610e65846104af565b73ffffffffffffffffffffffffffffffffffffffff16145b91505092915050565b8273ffffffffffffffffffffffffffffffffffffffff16610ea682610841565b73ffffffffffffffffffffffffffffffffffffffff1614610efc576040517f08c379a0000000000000000000000000000000000000000000000000000000008152600401610ef390612998565b60405180910390fd5b5f73ffffffffffffffffffffffffffffffffffffffff168273ffffffffffffffffffffffffffffffffffffffff1603610f6a576040517f08c379a0000000000000000000000000000000000000000000000000000000008152600401610f6190612a26565b60405180910390fd5b610f7783838360016114ae565b8273ffffffffffffffffffffffffffffffffffffffff16610f9782610841565b73ffffffffffffffffffffffffffffffffffffffff1614610fed576040517f08c379a0000000000000000000000000000000000000000000000000000000008152600401610fe490612998565b60405180910390fd5b60695f8281526020019081526020015f205f6101000a81549073ffffffffffffffffffffffffffffffffffffffff0219169055600160685f8573ffffffffffffffffffffffffffffffffffffffff1673ffffffffffffffffffffffffffffffffffffffff1681526020019081526020015f205f8282540392505081905550600160685f8473ffffffffffffffffffffffffffffffffffffffff1673ffffffffffffffffffffffffffffffffffffffff1681526020019081526020015f205f82825401925050819055508160675f8381526020019081526020015f205f6101000a81548173ffffffffffffffffffffffffffffffffffffffff021916908373ffffffffffffffffffffffffffffffffffffffff160217905550808273ffffffffffffffffffffffffffffffffffffffff168473ffffffffffffffffffffffffffffffffffffffff167fddf252ad1be2c89b69c2b068fc378daa952ba7f163c4a11628f55a4df523b3ef60405160405180910390a461116d83838360016114b4565b505050565b61118b828260405180602001604052805f8152506114ba565b5050565b5f808273ffffffffffffffffffffffffffffffffffffffff163b119050919050565b5f60019054906101000a900460ff166111ff576040517f08c379a00000000000000000000000000000000000000000000000000000000081526004016111f6906127b6565b60405180910390fd5b6112098282611514565b5050565b5f60675f8381526020019081526020015f205f9054906101000a900473ffffffffffffffffffffffffffffffffffffffff169050919050565b8173ffffffffffffffffffffffffffffffffffffffff168373ffffffffffffffffffffffffffffffffffffffff16036112b4576040517f08c379a00000000000000000000000000000000000000000000000000000000081526004016112ab90612a8e565b60405180910390fd5b80606a5f8573ffffffffffffffffffffffffffffffffffffffff1673ffffffffffffffffffffffffffffffffffffffff1681526020019081526020015f205f8473ffffffffffffffffffffffffffffffffffffffff1673ffffffffffffffffffffffffffffffffffffffff1681526020019081526020015f205f6101000a81548160ff0219169083151502179055508173ffffffffffffffffffffffffffffffffffffffff168373ffffffffffffffffffffffffffffffffffffffff167f17307eab39ab6107e8899845ad3d59bd9653f200f220920489ca2b5937696c31836040516113a09190611c01565b60405180910390a3505050565b6113b8848484610e86565b6113c484848484611586565b611403576040517f08c379a00000000000000000000000000000000000000000000000000000000081526004016113fa90612b1c565b60405180910390fd5b50505050565b606061141482610cea565b5f61141d611708565b90505f81511161143b5760405180602001604052805f815250611466565b8061144584611728565b604051602001611456929190612b74565b6040516020818303038152906040525b915050919050565b5f8073ffffffffffffffffffffffffffffffffffffffff1661148f8361120d565b73ffffffffffffffffffffffffffffffffffffffff1614159050919050565b50505050565b50505050565b6114c483836117f2565b6114d05f848484611586565b61150f576040517f08c379a000000000000000000000000000000000000000000000000000000000815260040161150690612b1c565b60405180910390fd5b505050565b5f60019054906101000a900460ff16611562576040517f08c379a0000000000000000000000000000000000000000000000000000000008152600401611559906127b6565b60405180910390fd5b8160659081611571919061255b565b508060669081611581919061255b565b505050565b5f6115a68473ffffffffffffffffffffffffffffffffffffffff1661118f565b156116fb578373ffffffffffffffffffffffffffffffffffffffff1663150b7a026115cf610d35565b8786866040518563ffffffff1660e01b81526004016115f19493929190612be9565b6020604051808303815f875af192505050801561162c57506040513d601f19601f820116820180604052508101906116299190612c47565b60015b6116ab573d805f811461165a576040519150601f19603f3d011682016040523d82523d5f602084013e61165f565b606091505b505f8151036116a3576040517f08c379a000000000000000000000000000000000000000000000000000000000815260040161169a90612b1c565b60405180910390fd5b805181602001fd5b63150b7a0260e01b7bffffffffffffffffffffffffffffffffffffffffffffffffffffffff1916817bffffffffffffffffffffffffffffffffffffffffffffffffffffffff191614915050611700565b600190505b949350505050565b6060604051806060016040528060358152602001612d7060359139905090565b60605f600161173684611a05565b0190505f8167ffffffffffffffff81111561175457611753611dea565b5b6040519080825280601f01601f1916602001820160405280156117865781602001600182028036833780820191505090505b5090505f82602001820190505b6001156117e7578080600190039150507f3031323334353637383961626364656600000000000000000000000000000000600a86061a8153600a85816117dc576117db612c72565b5b0494505f8503611793575b819350505050919050565b5f73ffffffffffffffffffffffffffffffffffffffff168273ffffffffffffffffffffffffffffffffffffffff1603611860576040517f08c379a000000000000000000000000000000000000000000000000000000000815260040161185790612ce9565b60405180910390fd5b6118698161146e565b156118a9576040517f08c379a00000000000000000000000000000000000000000000000000000000081526004016118a090612d51565b60405180910390fd5b6118b65f838360016114ae565b6118bf8161146e565b156118ff576040517f08c379a00000000000000000000000000000000000000000000000000000000081526004016118f690612d51565b60405180910390fd5b600160685f8473ffffffffffffffffffffffffffffffffffffffff1673ffffffffffffffffffffffffffffffffffffffff1681526020019081526020015f205f82825401925050819055508160675f8381526020019081526020015f205f6101000a81548173ffffffffffffffffffffffffffffffffffffffff021916908373ffffffffffffffffffffffffffffffffffffffff160217905550808273ffffffffffffffffffffffffffffffffffffffff165f73ffffffffffffffffffffffffffffffffffffffff167fddf252ad1be2c89b69c2b068fc378daa952ba7f163c4a11628f55a4df523b3ef60405160405180910390a4611a015f838360016114b4565b5050565b5f805f90507a184f03e93ff9f4daa797ed6e38ed64bf6a1f0100000000000000008310611a61577a184f03e93ff9f4daa797ed6e38ed64bf6a1f0100000000000000008381611a5757611a56612c72565b5b0492506040810190505b6d04ee2d6d415b85acef81000000008310611a9e576d04ee2d6d415b85acef81000000008381611a9457611a93612c72565b5b0492506020810190505b662386f26fc100008310611acd57662386f26fc100008381611ac357611ac2612c72565b5b0492506010810190505b6305f5e1008310611af6576305f5e1008381611aec57611aeb612c72565b5b0492506008810190505b6127108310611b1b576127108381611b1157611b10612c72565b5b0492506004810190505b60648310611b3e5760648381611b3457611b33612c72565b5b0492506002810190505b600a8310611b4d576001810190505b80915050919050565b5f604051905090565b5f80fd5b5f80fd5b5f7fffffffff0000000000000000000000000000000000000000000000000000000082169050919050565b611b9b81611b67565b8114611ba5575f80fd5b50565b5f81359050611bb681611b92565b92915050565b5f60208284031215611bd157611bd0611b5f565b5b5f611bde84828501611ba8565b91505092915050565b5f8115159050919050565b611bfb81611be7565b82525050565b5f602082019050611c145f830184611bf2565b92915050565b5f81519050919050565b5f82825260208201905092915050565b5f5b83811015611c51578082015181840152602081019050611c36565b5f8484015250505050565b5f601f19601f8301169050919050565b5f611c7682611c1a565b611c808185611c24565b9350611c90818560208601611c34565b611c9981611c5c565b840191505092915050565b5f6020820190508181035f830152611cbc8184611c6c565b905092915050565b5f819050919050565b611cd681611cc4565b8114611ce0575f80fd5b50565b5f81359050611cf181611ccd565b92915050565b5f60208284031215611d0c57611d0b611b5f565b5b5f611d1984828501611ce3565b91505092915050565b5f73ffffffffffffffffffffffffffffffffffffffff82169050919050565b5f611d4b82611d22565b9050919050565b611d5b81611d41565b82525050565b5f602082019050611d745f830184611d52565b92915050565b611d8381611d41565b8114611d8d575f80fd5b50565b5f81359050611d9e81611d7a565b92915050565b5f8060408385031215611dba57611db9611b5f565b5b5f611dc785828601611d90565b9250506020611dd885828601611ce3565b9150509250929050565b5f80fd5b5f80fd5b7f4e487b71000000000000000000000000000000000000000000000000000000005f52604160045260245ffd5b611e2082611c5c565b810181811067ffffffffffffffff82111715611e3f57611e3e611dea565b5b80604052505050565b5f611e51611b56565b9050611e5d8282611e17565b919050565b5f67ffffffffffffffff821115611e7c57611e7b611dea565b5b611e8582611c5c565b9050602081019050919050565b828183375f83830152505050565b5f611eb2611ead84611e62565b611e48565b905082815260208101848484011115611ece57611ecd611de6565b5b611ed9848285611e92565b509392505050565b5f82601f830112611ef557611ef4611de2565b5b8135611f05848260208601611ea0565b91505092915050565b5f8060408385031215611f2457611f23611b5f565b5b5f611f3185828601611ce3565b925050602083013567ffffffffffffffff811115611f5257611f51611b63565b5b611f5e85828601611ee1565b9150509250929050565b5f805f60608486031215611f7f57611f7e611b5f565b5b5f611f8c86828701611d90565b9350506020611f9d86828701611d90565b9250506040611fae86828701611ce3565b9150509250925092565b5f8060408385031215611fce57611fcd611b5f565b5b5f83013567ffffffffffffffff811115611feb57611fea611b63565b5b611ff785828601611ee1565b925050602083013567ffffffffffffffff81111561201857612017611b63565b5b61202485828601611ee1565b9150509250929050565b5f6020828403121561204357612042611b5f565b5b5f61205084828501611d90565b91505092915050565b61206281611cc4565b82525050565b5f60208201905061207b5f830184612059565b92915050565b61208a81611be7565b8114612094575f80fd5b50565b5f813590506120a581612081565b92915050565b5f80604083850312156120c1576120c0611b5f565b5b5f6120ce85828601611d90565b92505060206120df85828601612097565b9150509250929050565b5f67ffffffffffffffff82111561210357612102611dea565b5b61210c82611c5c565b9050602081019050919050565b5f61212b612126846120e9565b611e48565b90508281526020810184848401111561214757612146611de6565b5b612152848285611e92565b509392505050565b5f82601f83011261216e5761216d611de2565b5b813561217e848260208601612119565b91505092915050565b5f805f806080858703121561219f5761219e611b5f565b5b5f6121ac87828801611d90565b94505060206121bd87828801611d90565b93505060406121ce87828801611ce3565b925050606085013567ffffffffffffffff8111156121ef576121ee611b63565b5b6121fb8782880161215a565b91505092959194509250565b5f806040838503121561221d5761221c611b5f565b5b5f61222a85828601611d90565b925050602061223b85828601611d90565b9150509250929050565b7f4e487b71000000000000000000000000000000000000000000000000000000005f52602260045260245ffd5b5f600282049050600182168061228957607f821691505b60208210810361229c5761229b612245565b5b50919050565b7f4552433732313a20617070726f76616c20746f2063757272656e74206f776e655f8201527f7200000000000000000000000000000000000000000000000000000000000000602082015250565b5f6122fc602183611c24565b9150612307826122a2565b604082019050919050565b5f6020820190508181035f830152612329816122f0565b9050919050565b7f4552433732313a20617070726f76652063616c6c6572206973206e6f7420746f5f8201527f6b656e206f776e6572206f7220617070726f76656420666f7220616c6c000000602082015250565b5f61238a603d83611c24565b915061239582612330565b604082019050919050565b5f6020820190508181035f8301526123b78161237e565b9050919050565b5f819050815f5260205f209050919050565b5f6020601f8301049050919050565b5f82821b905092915050565b5f6008830261241a7fffffffffffffffffffffffffffffffffffffffffffffffffffffffffffffffff826123df565b61242486836123df565b95508019841693508086168417925050509392505050565b5f819050919050565b5f61245f61245a61245584611cc4565b61243c565b611cc4565b9050919050565b5f819050919050565b61247883612445565b61248c61248482612466565b8484546123eb565b825550505050565b5f90565b6124a0612494565b6124ab81848461246f565b505050565b5b818110156124ce576124c35f82612498565b6001810190506124b1565b5050565b601f821115612513576124e4816123be565b6124ed846123d0565b810160208510156124fc578190505b612510612508856123d0565b8301826124b0565b50505b505050565b5f82821c905092915050565b5f6125335f1984600802612518565b1980831691505092915050565b5f61254b8383612524565b9150826002028217905092915050565b61256482611c1a565b67ffffffffffffffff81111561257d5761257c611dea565b5b6125878254612272565b6125928282856124d2565b5f60209050601f8311600181146125c3575f84156125b1578287015190505b6125bb8582612540565b865550612622565b601f1984166125d1866123be565b5f5b828110156125f8578489015182556001820191506020850194506020810190506125d3565b868310156126155784890151612611601f891682612524565b8355505b6001600288020188555050505b505050505050565b7f4552433732313a2063616c6c6572206973206e6f7420746f6b656e206f776e655f8201527f72206f7220617070726f76656400000000000000000000000000000000000000602082015250565b5f612684602d83611c24565b915061268f8261262a565b604082019050919050565b5f6020820190508181035f8301526126b181612678565b9050919050565b7f496e697469616c697a61626c653a20636f6e747261637420697320616c7265615f8201527f647920696e697469616c697a6564000000000000000000000000000000000000602082015250565b5f612712602e83611c24565b915061271d826126b8565b604082019050919050565b5f6020820190508181035f83015261273f81612706565b9050919050565b7f496e697469616c697a61626c653a20636f6e7472616374206973206e6f7420695f8201527f6e697469616c697a696e67000000000000000000000000000000000000000000602082015250565b5f6127a0602b83611c24565b91506127ab82612746565b604082019050919050565b5f6020820190508181035f8301526127cd81612794565b9050919050565b5f819050919050565b5f60ff82169050919050565b5f6128036127fe6127f9846127d4565b61243c565b6127dd565b9050919050565b612813816127e9565b82525050565b5f60208201905061282c5f83018461280a565b92915050565b7f4552433732313a20696e76616c696420746f6b656e20494400000000000000005f82015250565b5f612866601883611c24565b915061287182612832565b602082019050919050565b5f6020820190508181035f8301526128938161285a565b9050919050565b7f4552433732313a2061646472657373207a65726f206973206e6f7420612076615f8201527f6c6964206f776e65720000000000000000000000000000000000000000000000602082015250565b5f6128f4602983611c24565b91506128ff8261289a565b604082019050919050565b5f6020820190508181035f830152612921816128e8565b9050919050565b7f4552433732313a207472616e736665722066726f6d20696e636f7272656374205f8201527f6f776e6572000000000000000000000000000000000000000000000000000000602082015250565b5f612982602583611c24565b915061298d82612928565b604082019050919050565b5f6020820190508181035f8301526129af81612976565b9050919050565b7f4552433732313a207472616e7366657220746f20746865207a65726f206164645f8201527f7265737300000000000000000000000000000000000000000000000000000000602082015250565b5f612a10602483611c24565b9150612a1b826129b6565b604082019050919050565b5f6020820190508181035f830152612a3d81612a04565b9050919050565b7f4552433732313a20617070726f766520746f2063616c6c6572000000000000005f82015250565b5f612a78601983611c24565b9150612a8382612a44565b602082019050919050565b5f6020820190508181035f830152612aa581612a6c565b9050919050565b7f4552433732313a207472616e7366657220746f206e6f6e2045524337323152655f8201527f63656976657220696d706c656d656e7465720000000000000000000000000000602082015250565b5f612b06603283611c24565b9150612b1182612aac565b604082019050919050565b5f6020820190508181035f830152612b3381612afa565b9050919050565b5f81905092915050565b5f612b4e82611c1a565b612b588185612b3a565b9350612b68818560208601611c34565b80840191505092915050565b5f612b7f8285612b44565b9150612b8b8284612b44565b91508190509392505050565b5f81519050919050565b5f82825260208201905092915050565b5f612bbb82612b97565b612bc58185612ba1565b9350612bd5818560208601611c34565b612bde81611c5c565b840191505092915050565b5f608082019050612bfc5f830187611d52565b612c096020830186611d52565b612c166040830185612059565b8181036060830152612c288184612bb1565b905095945050505050565b5f81519050612c4181611b92565b92915050565b5f60208284031215612c5c57612c5b611b5f565b5b5f612c6984828501612c33565b91505092915050565b7f4e487b71000000000000000000000000000000000000000000000000000000005f52601260045260245ffd5b7f4552433732313a206d696e7420746f20746865207a65726f20616464726573735f82015250565b5f612cd3602083611c24565b9150612cde82612c9f565b602082019050919050565b5f6020820190508181035f830152612d0081612cc7565b9050919050565b7f4552433732313a20746f6b656e20616c7265616479206d696e746564000000005f82015250565b5f612d3b601c83611c24565b9150612d4682612d07565b602082019050919050565b5f6020820190508181035f830152612d6881612d2f565b905091905056fe68747470733a2f2f6a6176612d6c616e672d70726f6772616d6d696e672e6769746875622e696f2f6e6674732f647765626e66742fa2646970667358221220cfc44e680208790f451571c9dd06bf1f07e7e83f32680c28054f5e5ed7143a8d64736f6c63430008150033",
  "linkReferences": {},
  "deployedLinkReferences": {}
}