{
  "_format": "hh-sol-artifact-1",
  "contractName": "EmployeeAuthorityWorkerNFT",
  "sourceName": "contracts/EmployeeAuthorityWorkerNFT.sol",
  "abi": [
    {
      "anonymous": false,
      "inputs": [
        {
          "indexed": true,
          "internalType": "address",
          "name": "owner",
          "type": "address"
        },
        {
          "indexed": true,
          "internalType": "address",
          "name": "approved",
          "type": "address"
        },
        {
          "indexed": true,
          "internalType": "uint256",
          "name": "tokenId",
          "type": "uint256"
        }
      ],
      "name": "Approval",
      "type": "event"
    },
    {
      "anonymous": false,
      "inputs": [
        {
          "indexed": true,
          "internalType": "address",
          "name": "owner",
          "type": "address"
        },
        {
          "indexed": true,
          "internalType": "address",
          "name": "operator",
          "type": "address"
        },
        {
          "indexed": false,
          "internalType": "bool",
          "name": "approved",
          "type": "bool"
        }
      ],
      "name": "ApprovalForAll",
      "type": "event"
    },
    {
      "anonymous": false,
      "inputs": [
        {
          "indexed": false,
          "internalType": "uint8",
          "name": "version",
          "type": "uint8"
        }
      ],
      "name": "Initialized",
      "type": "event"
    },
    {
      "anonymous": false,
      "inputs": [
        {
          "indexed": true,
          "internalType": "address",
          "name": "from",
          "type": "address"
        },
        {
          "indexed": true,
          "internalType": "address",
          "name": "to",
          "type": "address"
        },
        {
          "indexed": true,
          "internalType": "uint256",
          "name": "tokenId",
          "type": "uint256"
        }
      ],
      "name": "Transfer",
      "type": "event"
    },
    {
      "inputs": [
        {
          "internalType": "address",
          "name": "to",
          "type": "address"
        },
        {
          "internalType": "uint256",
          "name": "tokenId",
          "type": "uint256"
        }
      ],
      "name": "approve",
      "outputs": [],
      "stateMutability": "nonpayable",
      "type": "function"
    },
    {
      "inputs": [
        {
          "internalType": "address",
          "name": "owner",
          "type": "address"
        }
      ],
      "name": "balanceOf",
      "outputs": [
        {
          "internalType": "uint256",
          "name": "",
          "type": "uint256"
        }
      ],
      "stateMutability": "view",
      "type": "function"
    },
    {
      "inputs": [],
      "name": "currentTokenID",
      "outputs": [
        {
          "internalType": "uint256",
          "name": "",
          "type": "uint256"
        }
      ],
      "stateMutability": "view",
      "type": "function"
    },
    {
      "inputs": [
        {
          "internalType": "uint256",
          "name": "tokenId",
          "type": "uint256"
        }
      ],
      "name": "getApproved",
      "outputs": [
        {
          "internalType": "address",
          "name": "",
          "type": "address"
        }
      ],
      "stateMutability": "view",
      "type": "function"
    },
    {
      "inputs": [
        {
          "internalType": "string",
          "name": "name_",
          "type": "string"
        },
        {
          "internalType": "string",
          "name": "symbol_",
          "type": "string"
        }
      ],
      "name": "initialize",
      "outputs": [],
      "stateMutability": "nonpayable",
      "type": "function"
    },
    {
      "inputs": [
        {
          "internalType": "address",
          "name": "owner",
          "type": "address"
        },
        {
          "internalType": "address",
          "name": "operator",
          "type": "address"
        }
      ],
      "name": "isApprovedForAll",
      "outputs": [
        {
          "internalType": "bool",
          "name": "",
          "type": "bool"
        }
      ],
      "stateMutability": "view",
      "type": "function"
    },
    {
      "inputs": [
        {
          "internalType": "address",
          "name": "to",
          "type": "address"
        }
      ],
      "name": "mintNFT",
      "outputs": [],
      "stateMutability": "nonpayable",
      "type": "function"
    },
    {
      "inputs": [],
      "name": "name",
      "outputs": [
        {
          "internalType": "string",
          "name": "",
          "type": "string"
        }
      ],
      "stateMutability": "view",
      "type": "function"
    },
    {
      "inputs": [
        {
          "internalType": "uint256",
          "name": "tokenId",
          "type": "uint256"
        }
      ],
      "name": "ownerOf",
      "outputs": [
        {
          "internalType": "address",
          "name": "",
          "type": "address"
        }
      ],
      "stateMutability": "view",
      "type": "function"
    },
    {
      "inputs": [
        {
          "internalType": "address",
          "name": "from",
          "type": "address"
        },
        {
          "internalType": "address",
          "name": "to",
          "type": "address"
        },
        {
          "internalType": "uint256",
          "name": "tokenId",
          "type": "uint256"
        }
      ],
      "name": "safeTransferFrom",
      "outputs": [],
      "stateMutability": "nonpayable",
      "type": "function"
    },
    {
      "inputs": [
        {
          "internalType": "address",
          "name": "from",
          "type": "address"
        },
        {
          "internalType": "address",
          "name": "to",
          "type": "address"
        },
        {
          "internalType": "uint256",
          "name": "tokenId",
          "type": "uint256"
        },
        {
          "internalType": "bytes",
          "name": "data",
          "type": "bytes"
        }
      ],
      "name": "safeTransferFrom",
      "outputs": [],
      "stateMutability": "nonpayable",
      "type": "function"
    },
    {
      "inputs": [
        {
          "internalType": "address",
          "name": "operator",
          "type": "address"
        },
        {
          "internalType": "bool",
          "name": "approved",
          "type": "bool"
        }
      ],
      "name": "setApprovalForAll",
      "outputs": [],
      "stateMutability": "nonpayable",
      "type": "function"
    },
    {
      "inputs": [
        {
          "internalType": "uint256",
          "name": "tokenId",
          "type": "uint256"
        },
        {
          "internalType": "string",
          "name": "url",
          "type": "string"
        }
      ],
      "name": "setTokenURI",
      "outputs": [],
      "stateMutability": "nonpayable",
      "type": "function"
    },
    {
      "inputs": [
        {
          "internalType": "bytes4",
          "name": "interfaceId",
          "type": "bytes4"
        }
      ],
      "name": "supportsInterface",
      "outputs": [
        {
          "internalType": "bool",
          "name": "",
          "type": "bool"
        }
      ],
      "stateMutability": "view",
      "type": "function"
    },
    {
      "inputs": [],
      "name": "symbol",
      "outputs": [
        {
          "internalType": "string",
          "name": "",
          "type": "string"
        }
      ],
      "stateMutability": "view",
      "type": "function"
    },
    {
      "inputs": [
        {
          "internalType": "uint256",
          "name": "index",
          "type": "uint256"
        }
      ],
      "name": "tokenByIndex",
      "outputs": [
        {
          "internalType": "uint256",
          "name": "",
          "type": "uint256"
        }
      ],
      "stateMutability": "view",
      "type": "function"
    },
    {
      "inputs": [
        {
          "internalType": "address",
          "name": "owner",
          "type": "address"
        },
        {
          "internalType": "uint256",
          "name": "index",
          "type": "uint256"
        }
      ],
      "name": "tokenOfOwnerByIndex",
      "outputs": [
        {
          "internalType": "uint256",
          "name": "",
          "type": "uint256"
        }
      ],
      "stateMutability": "view",
      "type": "function"
    },
    {
      "inputs": [
        {
          "internalType": "uint256",
          "name": "tokenId",
          "type": "uint256"
        }
      ],
      "name": "tokenURI",
      "outputs": [
        {
          "internalType": "string",
          "name": "",
          "type": "string"
        }
      ],
      "stateMutability": "view",
      "type": "function"
    },
    {
      "inputs": [],
      "name": "totalSupply",
      "outputs": [
        {
          "internalType": "uint256",
          "name": "",
          "type": "uint256"
        }
      ],
      "stateMutability": "view",
      "type": "function"
    },
    {
      "inputs": [
        {
          "internalType": "address",
          "name": "from",
          "type": "address"
        },
        {
          "internalType": "address",
          "name": "to",
          "type": "address"
        },
        {
          "internalType": "uint256",
          "name": "tokenId",
          "type": "uint256"
        }
      ],
      "name": "transferFrom",
      "outputs": [],
      "stateMutability": "nonpayable",
      "type": "function"
    }
  ],
  "bytecode": "0x608060405234801561000f575f80fd5b506138258061001d5f395ff3fe608060405234801561000f575f80fd5b506004361061012a575f3560e01c80634f6ccce7116100ab578063a22cb4651161006f578063a22cb46514610350578063b88d4fde1461036c578063bb62115e14610388578063c87b56dd146103a6578063e985e9c5146103d65761012a565b80634f6ccce71461028657806354ba0f27146102b65780636352211e146102d257806370a082311461030257806395d89b41146103325761012a565b806318160ddd116100f257806318160ddd146101e457806323b872dd146102025780632f745c591461021e57806342842e0e1461024e5780634cd88b761461026a5761012a565b806301ffc9a71461012e57806306fdde031461015e578063081812fc1461017c578063095ea7b3146101ac578063162094c4146101c8575b5f80fd5b6101486004803603810190610143919061233b565b610406565b6040516101559190612380565b60405180910390f35b61016661047f565b6040516101739190612423565b60405180910390f35b61019660048036038101906101919190612476565b61050f565b6040516101a391906124e0565b60405180910390f35b6101c660048036038101906101c19190612523565b610551565b005b6101e260048036038101906101dd919061268d565b610667565b005b6101ec61068a565b6040516101f991906126f6565b60405180910390f35b61021c6004803603810190610217919061270f565b610696565b005b61023860048036038101906102339190612523565b610714565b60405161024591906126f6565b60405180910390f35b6102686004803603810190610263919061270f565b6107b4565b005b610284600480360381019061027f919061275f565b6107d3565b005b6102a0600480360381019061029b9190612476565b61096c565b6040516102ad91906126f6565b60405180910390f35b6102d060048036038101906102cb91906127d5565b6109da565b005b6102ec60048036038101906102e79190612476565b6109f9565b6040516102f991906124e0565b60405180910390f35b61031c600480360381019061031791906127d5565b610a7d565b60405161032991906126f6565b60405180910390f35b61033a610b31565b6040516103479190612423565b60405180910390f35b61036a6004803603810190610365919061282a565b610bc1565b005b61038660048036038101906103819190612906565b610bd7565b005b610390610c39565b60405161039d91906126f6565b60405180910390f35b6103c060048036038101906103bb9190612476565b610c42565b6040516103cd9190612423565b60405180910390f35b6103f060048036038101906103eb9190612986565b610db4565b6040516103fd9190612380565b60405180910390f35b5f7f780e9d63000000000000000000000000000000000000000000000000000000007bffffffffffffffffffffffffffffffffffffffffffffffffffffffff1916827bffffffffffffffffffffffffffffffffffffffffffffffffffffffff19161480610478575061047782610e42565b5b9050919050565b60606065805461048e906129f1565b80601f01602080910402602001604051908101604052809291908181526020018280546104ba906129f1565b80156105055780601f106104dc57610100808354040283529160200191610505565b820191905f5260205f20905b8154815290600101906020018083116104e857829003601f168201915b5050505050905090565b5f61051982610f23565b60695f8381526020019081526020015f205f9054906101000a900473ffffffffffffffffffffffffffffffffffffffff169050919050565b5f61055b826109f9565b90508073ffffffffffffffffffffffffffffffffffffffff168373ffffffffffffffffffffffffffffffffffffffff16036105cb576040517f08c379a00000000000000000000000000000000000000000000000000000000081526004016105c290612a91565b60405180910390fd5b8073ffffffffffffffffffffffffffffffffffffffff166105ea610f6e565b73ffffffffffffffffffffffffffffffffffffffff161480610619575061061881610613610f6e565b610db4565b5b610658576040517f08c379a000000000000000000000000000000000000000000000000000000000815260040161064f90612b1f565b60405180910390fd5b6106628383610f75565b505050565b8060ca5f8481526020019081526020015f2090816106859190612cda565b505050565b5f609980549050905090565b5f73ffffffffffffffffffffffffffffffffffffffff168373ffffffffffffffffffffffffffffffffffffffff1614610704576040517f08c379a00000000000000000000000000000000000000000000000000000000081526004016106fb90612df3565b60405180910390fd5b61070f83838361102b565b505050565b5f61071e83610a7d565b821061075f576040517f08c379a000000000000000000000000000000000000000000000000000000000815260040161075690612e81565b60405180910390fd5b60975f8473ffffffffffffffffffffffffffffffffffffffff1673ffffffffffffffffffffffffffffffffffffffff1681526020019081526020015f205f8381526020019081526020015f2054905092915050565b6107ce83838360405180602001604052805f815250610bd7565b505050565b5f8060019054906101000a900460ff16159050808015610802575060015f8054906101000a900460ff1660ff16105b8061082e57506108113061108b565b15801561082d575060015f8054906101000a900460ff1660ff16145b5b61086d576040517f08c379a000000000000000000000000000000000000000000000000000000000815260040161086490612f0f565b60405180910390fd5b60015f806101000a81548160ff021916908360ff16021790555080156108a85760015f60016101000a81548160ff0219169083151502179055505b5f60019054906101000a900460ff166108f6576040517f08c379a00000000000000000000000000000000000000000000000000000000081526004016108ed90612f9d565b60405180910390fd5b61090083836110ad565b610908611109565b5f60c9819055508015610967575f8060016101000a81548160ff0219169083151502179055507f7f26b83ff96e1f2b6a682f133852f6798a09c465da95921460cefb3847402498600160405161095e9190613000565b60405180910390a15b505050565b5f61097561068a565b82106109b6576040517f08c379a00000000000000000000000000000000000000000000000000000000081526004016109ad90613089565b60405180910390fd5b609982815481106109ca576109c96130a7565b5b905f5260205f2001549050919050565b600160c95f82825401925050819055506109f68160c954611159565b50565b5f80610a0483611176565b90505f73ffffffffffffffffffffffffffffffffffffffff168173ffffffffffffffffffffffffffffffffffffffff1603610a74576040517f08c379a0000000000000000000000000000000000000000000000000000000008152600401610a6b9061311e565b60405180910390fd5b80915050919050565b5f8073ffffffffffffffffffffffffffffffffffffffff168273ffffffffffffffffffffffffffffffffffffffff1603610aec576040517f08c379a0000000000000000000000000000000000000000000000000000000008152600401610ae3906131ac565b60405180910390fd5b60685f8373ffffffffffffffffffffffffffffffffffffffff1673ffffffffffffffffffffffffffffffffffffffff1681526020019081526020015f20549050919050565b606060668054610b40906129f1565b80601f0160208091040260200160405190810160405280929190818152602001828054610b6c906129f1565b8015610bb75780601f10610b8e57610100808354040283529160200191610bb7565b820191905f5260205f20905b815481529060010190602001808311610b9a57829003601f168201915b5050505050905090565b610bd3610bcc610f6e565b83836111af565b5050565b610be8610be2610f6e565b83611316565b610c27576040517f08c379a0000000000000000000000000000000000000000000000000000000008152600401610c1e9061323a565b60405180910390fd5b610c33848484846113aa565b50505050565b5f60c954905090565b60605f60ca5f8481526020019081526020015f208054610c61906129f1565b80601f0160208091040260200160405190810160405280929190818152602001828054610c8d906129f1565b8015610cd85780601f10610caf57610100808354040283529160200191610cd8565b820191905f5260205f20905b815481529060010190602001808311610cbb57829003601f168201915b50505050509050808051906020012060405180602001604052805f8152508051906020012003610d1357610d0b83611406565b915050610daf565b60ca5f8481526020019081526020015f208054610d2f906129f1565b80601f0160208091040260200160405190810160405280929190818152602001828054610d5b906129f1565b8015610da65780601f10610d7d57610100808354040283529160200191610da6565b820191905f5260205f20905b815481529060010190602001808311610d8957829003601f168201915b50505050509150505b919050565b5f606a5f8473ffffffffffffffffffffffffffffffffffffffff1673ffffffffffffffffffffffffffffffffffffffff1681526020019081526020015f205f8373ffffffffffffffffffffffffffffffffffffffff1673ffffffffffffffffffffffffffffffffffffffff1681526020019081526020015f205f9054906101000a900460ff16905092915050565b5f7f80ac58cd000000000000000000000000000000000000000000000000000000007bffffffffffffffffffffffffffffffffffffffffffffffffffffffff1916827bffffffffffffffffffffffffffffffffffffffffffffffffffffffff19161480610f0c57507f5b5e139f000000000000000000000000000000000000000000000000000000007bffffffffffffffffffffffffffffffffffffffffffffffffffffffff1916827bffffffffffffffffffffffffffffffffffffffffffffffffffffffff1916145b80610f1c5750610f1b8261146b565b5b9050919050565b610f2c816114d4565b610f6b576040517f08c379a0000000000000000000000000000000000000000000000000000000008152600401610f629061311e565b60405180910390fd5b50565b5f33905090565b8160695f8381526020019081526020015f205f6101000a81548173ffffffffffffffffffffffffffffffffffffffff021916908373ffffffffffffffffffffffffffffffffffffffff160217905550808273ffffffffffffffffffffffffffffffffffffffff16610fe5836109f9565b73ffffffffffffffffffffffffffffffffffffffff167f8c5be1e5ebec7d5bd14f71427d1e84f3dd0314c0f7b2291e5b200ac8c7c3b92560405160405180910390a45050565b61103c611036610f6e565b82611316565b61107b576040517f08c379a00000000000000000000000000000000000000000000000000000000081526004016110729061323a565b60405180910390fd5b611086838383611514565b505050565b5f808273ffffffffffffffffffffffffffffffffffffffff163b119050919050565b5f60019054906101000a900460ff166110fb576040517f08c379a00000000000000000000000000000000000000000000000000000000081526004016110f290612f9d565b60405180910390fd5b6111058282611800565b5050565b5f60019054906101000a900460ff16611157576040517f08c379a000000000000000000000000000000000000000000000000000000000815260040161114e90612f9d565b60405180910390fd5b565b611172828260405180602001604052805f815250611872565b5050565b5f60675f8381526020019081526020015f205f9054906101000a900473ffffffffffffffffffffffffffffffffffffffff169050919050565b8173ffffffffffffffffffffffffffffffffffffffff168373ffffffffffffffffffffffffffffffffffffffff160361121d576040517f08c379a0000000000000000000000000000000000000000000000000000000008152600401611214906132a2565b60405180910390fd5b80606a5f8573ffffffffffffffffffffffffffffffffffffffff1673ffffffffffffffffffffffffffffffffffffffff1681526020019081526020015f205f8473ffffffffffffffffffffffffffffffffffffffff1673ffffffffffffffffffffffffffffffffffffffff1681526020019081526020015f205f6101000a81548160ff0219169083151502179055508173ffffffffffffffffffffffffffffffffffffffff168373ffffffffffffffffffffffffffffffffffffffff167f17307eab39ab6107e8899845ad3d59bd9653f200f220920489ca2b5937696c31836040516113099190612380565b60405180910390a3505050565b5f80611321836109f9565b90508073ffffffffffffffffffffffffffffffffffffffff168473ffffffffffffffffffffffffffffffffffffffff16148061136357506113628185610db4565b5b806113a157508373ffffffffffffffffffffffffffffffffffffffff166113898461050f565b73ffffffffffffffffffffffffffffffffffffffff16145b91505092915050565b6113b5848484611514565b6113c1848484846118cc565b611400576040517f08c379a00000000000000000000000000000000000000000000000000000000081526004016113f790613330565b60405180910390fd5b50505050565b606061141182610f23565b5f61141a611a4e565b90505f8151116114385760405180602001604052805f815250611463565b8061144284611a6e565b604051602001611453929190613388565b6040516020818303038152906040525b915050919050565b5f7f01ffc9a7000000000000000000000000000000000000000000000000000000007bffffffffffffffffffffffffffffffffffffffffffffffffffffffff1916827bffffffffffffffffffffffffffffffffffffffffffffffffffffffff1916149050919050565b5f8073ffffffffffffffffffffffffffffffffffffffff166114f583611176565b73ffffffffffffffffffffffffffffffffffffffff1614159050919050565b8273ffffffffffffffffffffffffffffffffffffffff16611534826109f9565b73ffffffffffffffffffffffffffffffffffffffff161461158a576040517f08c379a00000000000000000000000000000000000000000000000000000000081526004016115819061341b565b60405180910390fd5b5f73ffffffffffffffffffffffffffffffffffffffff168273ffffffffffffffffffffffffffffffffffffffff16036115f8576040517f08c379a00000000000000000000000000000000000000000000000000000000081526004016115ef906134a9565b60405180910390fd5b6116058383836001611b38565b8273ffffffffffffffffffffffffffffffffffffffff16611625826109f9565b73ffffffffffffffffffffffffffffffffffffffff161461167b576040517f08c379a00000000000000000000000000000000000000000000000000000000081526004016116729061341b565b60405180910390fd5b60695f8281526020019081526020015f205f6101000a81549073ffffffffffffffffffffffffffffffffffffffff0219169055600160685f8573ffffffffffffffffffffffffffffffffffffffff1673ffffffffffffffffffffffffffffffffffffffff1681526020019081526020015f205f8282540392505081905550600160685f8473ffffffffffffffffffffffffffffffffffffffff1673ffffffffffffffffffffffffffffffffffffffff1681526020019081526020015f205f82825401925050819055508160675f8381526020019081526020015f205f6101000a81548173ffffffffffffffffffffffffffffffffffffffff021916908373ffffffffffffffffffffffffffffffffffffffff160217905550808273ffffffffffffffffffffffffffffffffffffffff168473ffffffffffffffffffffffffffffffffffffffff167fddf252ad1be2c89b69c2b068fc378daa952ba7f163c4a11628f55a4df523b3ef60405160405180910390a46117fb8383836001611c93565b505050565b5f60019054906101000a900460ff1661184e576040517f08c379a000000000000000000000000000000000000000000000000000000000815260040161184590612f9d565b60405180910390fd5b816065908161185d9190612cda565b50806066908161186d9190612cda565b505050565b61187c8383611c99565b6118885f8484846118cc565b6118c7576040517f08c379a00000000000000000000000000000000000000000000000000000000081526004016118be90613330565b60405180910390fd5b505050565b5f6118ec8473ffffffffffffffffffffffffffffffffffffffff1661108b565b15611a41578373ffffffffffffffffffffffffffffffffffffffff1663150b7a02611915610f6e565b8786866040518563ffffffff1660e01b81526004016119379493929190613519565b6020604051808303815f875af192505050801561197257506040513d601f19601f8201168201806040525081019061196f9190613577565b60015b6119f1573d805f81146119a0576040519150601f19603f3d011682016040523d82523d5f602084013e6119a5565b606091505b505f8151036119e9576040517f08c379a00000000000000000000000000000000000000000000000000000000081526004016119e090613330565b60405180910390fd5b805181602001fd5b63150b7a0260e01b7bffffffffffffffffffffffffffffffffffffffffffffffffffffffff1916817bffffffffffffffffffffffffffffffffffffffffffffffffffffffff191614915050611a46565b600190505b949350505050565b60606040518060600160405280603581526020016137bb60359139905090565b60605f6001611a7c84611eac565b0190505f8167ffffffffffffffff811115611a9a57611a99612569565b5b6040519080825280601f01601f191660200182016040528015611acc5781602001600182028036833780820191505090505b5090505f82602001820190505b600115611b2d578080600190039150507f3031323334353637383961626364656600000000000000000000000000000000600a86061a8153600a8581611b2257611b216135a2565b5b0494505f8503611ad9575b819350505050919050565b611b4484848484611ffd565b6001811115611b88576040517f08c379a0000000000000000000000000000000000000000000000000000000008152600401611b7f9061363f565b60405180910390fd5b5f8290505f73ffffffffffffffffffffffffffffffffffffffff168573ffffffffffffffffffffffffffffffffffffffff1603611bcd57611bc881612003565b611c0c565b8373ffffffffffffffffffffffffffffffffffffffff168573ffffffffffffffffffffffffffffffffffffffff1614611c0b57611c0a8582612047565b5b5b5f73ffffffffffffffffffffffffffffffffffffffff168473ffffffffffffffffffffffffffffffffffffffff1603611c4d57611c488161219d565b611c8c565b8473ffffffffffffffffffffffffffffffffffffffff168473ffffffffffffffffffffffffffffffffffffffff1614611c8b57611c8a848261225d565b5b5b5050505050565b50505050565b5f73ffffffffffffffffffffffffffffffffffffffff168273ffffffffffffffffffffffffffffffffffffffff1603611d07576040517f08c379a0000000000000000000000000000000000000000000000000000000008152600401611cfe906136a7565b60405180910390fd5b611d10816114d4565b15611d50576040517f08c379a0000000000000000000000000000000000000000000000000000000008152600401611d479061370f565b60405180910390fd5b611d5d5f83836001611b38565b611d66816114d4565b15611da6576040517f08c379a0000000000000000000000000000000000000000000000000000000008152600401611d9d9061370f565b60405180910390fd5b600160685f8473ffffffffffffffffffffffffffffffffffffffff1673ffffffffffffffffffffffffffffffffffffffff1681526020019081526020015f205f82825401925050819055508160675f8381526020019081526020015f205f6101000a81548173ffffffffffffffffffffffffffffffffffffffff021916908373ffffffffffffffffffffffffffffffffffffffff160217905550808273ffffffffffffffffffffffffffffffffffffffff165f73ffffffffffffffffffffffffffffffffffffffff167fddf252ad1be2c89b69c2b068fc378daa952ba7f163c4a11628f55a4df523b3ef60405160405180910390a4611ea85f83836001611c93565b5050565b5f805f90507a184f03e93ff9f4daa797ed6e38ed64bf6a1f0100000000000000008310611f08577a184f03e93ff9f4daa797ed6e38ed64bf6a1f0100000000000000008381611efe57611efd6135a2565b5b0492506040810190505b6d04ee2d6d415b85acef81000000008310611f45576d04ee2d6d415b85acef81000000008381611f3b57611f3a6135a2565b5b0492506020810190505b662386f26fc100008310611f7457662386f26fc100008381611f6a57611f696135a2565b5b0492506010810190505b6305f5e1008310611f9d576305f5e1008381611f9357611f926135a2565b5b0492506008810190505b6127108310611fc2576127108381611fb857611fb76135a2565b5b0492506004810190505b60648310611fe55760648381611fdb57611fda6135a2565b5b0492506002810190505b600a8310611ff4576001810190505b80915050919050565b50505050565b609980549050609a5f8381526020019081526020015f2081905550609981908060018154018082558091505060019003905f5260205f20015f909190919091505550565b5f600161205384610a7d565b61205d919061375a565b90505f60985f8481526020019081526020015f20549050818114612134575f60975f8673ffffffffffffffffffffffffffffffffffffffff1673ffffffffffffffffffffffffffffffffffffffff1681526020019081526020015f205f8481526020019081526020015f205490508060975f8773ffffffffffffffffffffffffffffffffffffffff1673ffffffffffffffffffffffffffffffffffffffff1681526020019081526020015f205f8481526020019081526020015f20819055508160985f8381526020019081526020015f2081905550505b60985f8481526020019081526020015f205f905560975f8573ffffffffffffffffffffffffffffffffffffffff1673ffffffffffffffffffffffffffffffffffffffff1681526020019081526020015f205f8381526020019081526020015f205f905550505050565b5f60016099805490506121b0919061375a565b90505f609a5f8481526020019081526020015f205490505f609983815481106121dc576121db6130a7565b5b905f5260205f200154905080609983815481106121fc576121fb6130a7565b5b905f5260205f20018190555081609a5f8381526020019081526020015f2081905550609a5f8581526020019081526020015f205f905560998054806122445761224361378d565b5b600190038181905f5260205f20015f9055905550505050565b5f61226783610a7d565b90508160975f8573ffffffffffffffffffffffffffffffffffffffff1673ffffffffffffffffffffffffffffffffffffffff1681526020019081526020015f205f8381526020019081526020015f20819055508060985f8481526020019081526020015f2081905550505050565b5f604051905090565b5f80fd5b5f80fd5b5f7fffffffff0000000000000000000000000000000000000000000000000000000082169050919050565b61231a816122e6565b8114612324575f80fd5b50565b5f8135905061233581612311565b92915050565b5f602082840312156123505761234f6122de565b5b5f61235d84828501612327565b91505092915050565b5f8115159050919050565b61237a81612366565b82525050565b5f6020820190506123935f830184612371565b92915050565b5f81519050919050565b5f82825260208201905092915050565b5f5b838110156123d05780820151818401526020810190506123b5565b5f8484015250505050565b5f601f19601f8301169050919050565b5f6123f582612399565b6123ff81856123a3565b935061240f8185602086016123b3565b612418816123db565b840191505092915050565b5f6020820190508181035f83015261243b81846123eb565b905092915050565b5f819050919050565b61245581612443565b811461245f575f80fd5b50565b5f813590506124708161244c565b92915050565b5f6020828403121561248b5761248a6122de565b5b5f61249884828501612462565b91505092915050565b5f73ffffffffffffffffffffffffffffffffffffffff82169050919050565b5f6124ca826124a1565b9050919050565b6124da816124c0565b82525050565b5f6020820190506124f35f8301846124d1565b92915050565b612502816124c0565b811461250c575f80fd5b50565b5f8135905061251d816124f9565b92915050565b5f8060408385031215612539576125386122de565b5b5f6125468582860161250f565b925050602061255785828601612462565b9150509250929050565b5f80fd5b5f80fd5b7f4e487b71000000000000000000000000000000000000000000000000000000005f52604160045260245ffd5b61259f826123db565b810181811067ffffffffffffffff821117156125be576125bd612569565b5b80604052505050565b5f6125d06122d5565b90506125dc8282612596565b919050565b5f67ffffffffffffffff8211156125fb576125fa612569565b5b612604826123db565b9050602081019050919050565b828183375f83830152505050565b5f61263161262c846125e1565b6125c7565b90508281526020810184848401111561264d5761264c612565565b5b612658848285612611565b509392505050565b5f82601f83011261267457612673612561565b5b813561268484826020860161261f565b91505092915050565b5f80604083850312156126a3576126a26122de565b5b5f6126b085828601612462565b925050602083013567ffffffffffffffff8111156126d1576126d06122e2565b5b6126dd85828601612660565b9150509250929050565b6126f081612443565b82525050565b5f6020820190506127095f8301846126e7565b92915050565b5f805f60608486031215612726576127256122de565b5b5f6127338682870161250f565b93505060206127448682870161250f565b925050604061275586828701612462565b9150509250925092565b5f8060408385031215612775576127746122de565b5b5f83013567ffffffffffffffff811115612792576127916122e2565b5b61279e85828601612660565b925050602083013567ffffffffffffffff8111156127bf576127be6122e2565b5b6127cb85828601612660565b9150509250929050565b5f602082840312156127ea576127e96122de565b5b5f6127f78482850161250f565b91505092915050565b61280981612366565b8114612813575f80fd5b50565b5f8135905061282481612800565b92915050565b5f80604083850312156128405761283f6122de565b5b5f61284d8582860161250f565b925050602061285e85828601612816565b9150509250929050565b5f67ffffffffffffffff82111561288257612881612569565b5b61288b826123db565b9050602081019050919050565b5f6128aa6128a584612868565b6125c7565b9050828152602081018484840111156128c6576128c5612565565b5b6128d1848285612611565b509392505050565b5f82601f8301126128ed576128ec612561565b5b81356128fd848260208601612898565b91505092915050565b5f805f806080858703121561291e5761291d6122de565b5b5f61292b8782880161250f565b945050602061293c8782880161250f565b935050604061294d87828801612462565b925050606085013567ffffffffffffffff81111561296e5761296d6122e2565b5b61297a878288016128d9565b91505092959194509250565b5f806040838503121561299c5761299b6122de565b5b5f6129a98582860161250f565b92505060206129ba8582860161250f565b9150509250929050565b7f4e487b71000000000000000000000000000000000000000000000000000000005f52602260045260245ffd5b5f6002820490506001821680612a0857607f821691505b602082108103612a1b57612a1a6129c4565b5b50919050565b7f4552433732313a20617070726f76616c20746f2063757272656e74206f776e655f8201527f7200000000000000000000000000000000000000000000000000000000000000602082015250565b5f612a7b6021836123a3565b9150612a8682612a21565b604082019050919050565b5f6020820190508181035f830152612aa881612a6f565b9050919050565b7f4552433732313a20617070726f76652063616c6c6572206973206e6f7420746f5f8201527f6b656e206f776e6572206f7220617070726f76656420666f7220616c6c000000602082015250565b5f612b09603d836123a3565b9150612b1482612aaf565b604082019050919050565b5f6020820190508181035f830152612b3681612afd565b9050919050565b5f819050815f5260205f209050919050565b5f6020601f8301049050919050565b5f82821b905092915050565b5f60088302612b997fffffffffffffffffffffffffffffffffffffffffffffffffffffffffffffffff82612b5e565b612ba38683612b5e565b95508019841693508086168417925050509392505050565b5f819050919050565b5f612bde612bd9612bd484612443565b612bbb565b612443565b9050919050565b5f819050919050565b612bf783612bc4565b612c0b612c0382612be5565b848454612b6a565b825550505050565b5f90565b612c1f612c13565b612c2a818484612bee565b505050565b5b81811015612c4d57612c425f82612c17565b600181019050612c30565b5050565b601f821115612c9257612c6381612b3d565b612c6c84612b4f565b81016020851015612c7b578190505b612c8f612c8785612b4f565b830182612c2f565b50505b505050565b5f82821c905092915050565b5f612cb25f1984600802612c97565b1980831691505092915050565b5f612cca8383612ca3565b9150826002028217905092915050565b612ce382612399565b67ffffffffffffffff811115612cfc57612cfb612569565b5b612d0682546129f1565b612d11828285612c51565b5f60209050601f831160018114612d42575f8415612d30578287015190505b612d3a8582612cbf565b865550612da1565b601f198416612d5086612b3d565b5f5b82811015612d7757848901518255600182019150602085019450602081019050612d52565b86831015612d945784890151612d90601f891682612ca3565b8355505b6001600288020188555050505b505050505050565b7f4572723a20746f6b656e20697320534f554c20424f554e4400000000000000005f82015250565b5f612ddd6018836123a3565b9150612de882612da9565b602082019050919050565b5f6020820190508181035f830152612e0a81612dd1565b9050919050565b7f455243373231456e756d657261626c653a206f776e657220696e646578206f755f8201527f74206f6620626f756e6473000000000000000000000000000000000000000000602082015250565b5f612e6b602b836123a3565b9150612e7682612e11565b604082019050919050565b5f6020820190508181035f830152612e9881612e5f565b9050919050565b7f496e697469616c697a61626c653a20636f6e747261637420697320616c7265615f8201527f647920696e697469616c697a6564000000000000000000000000000000000000602082015250565b5f612ef9602e836123a3565b9150612f0482612e9f565b604082019050919050565b5f6020820190508181035f830152612f2681612eed565b9050919050565b7f496e697469616c697a61626c653a20636f6e7472616374206973206e6f7420695f8201527f6e697469616c697a696e67000000000000000000000000000000000000000000602082015250565b5f612f87602b836123a3565b9150612f9282612f2d565b604082019050919050565b5f6020820190508181035f830152612fb481612f7b565b9050919050565b5f819050919050565b5f60ff82169050919050565b5f612fea612fe5612fe084612fbb565b612bbb565b612fc4565b9050919050565b612ffa81612fd0565b82525050565b5f6020820190506130135f830184612ff1565b92915050565b7f455243373231456e756d657261626c653a20676c6f62616c20696e646578206f5f8201527f7574206f6620626f756e64730000000000000000000000000000000000000000602082015250565b5f613073602c836123a3565b915061307e82613019565b604082019050919050565b5f6020820190508181035f8301526130a081613067565b9050919050565b7f4e487b71000000000000000000000000000000000000000000000000000000005f52603260045260245ffd5b7f4552433732313a20696e76616c696420746f6b656e20494400000000000000005f82015250565b5f6131086018836123a3565b9150613113826130d4565b602082019050919050565b5f6020820190508181035f830152613135816130fc565b9050919050565b7f4552433732313a2061646472657373207a65726f206973206e6f7420612076615f8201527f6c6964206f776e65720000000000000000000000000000000000000000000000602082015250565b5f6131966029836123a3565b91506131a18261313c565b604082019050919050565b5f6020820190508181035f8301526131c38161318a565b9050919050565b7f4552433732313a2063616c6c6572206973206e6f7420746f6b656e206f776e655f8201527f72206f7220617070726f76656400000000000000000000000000000000000000602082015250565b5f613224602d836123a3565b915061322f826131ca565b604082019050919050565b5f6020820190508181035f83015261325181613218565b9050919050565b7f4552433732313a20617070726f766520746f2063616c6c6572000000000000005f82015250565b5f61328c6019836123a3565b915061329782613258565b602082019050919050565b5f6020820190508181035f8301526132b981613280565b9050919050565b7f4552433732313a207472616e7366657220746f206e6f6e2045524337323152655f8201527f63656976657220696d706c656d656e7465720000000000000000000000000000602082015250565b5f61331a6032836123a3565b9150613325826132c0565b604082019050919050565b5f6020820190508181035f8301526133478161330e565b9050919050565b5f81905092915050565b5f61336282612399565b61336c818561334e565b935061337c8185602086016123b3565b80840191505092915050565b5f6133938285613358565b915061339f8284613358565b91508190509392505050565b7f4552433732313a207472616e736665722066726f6d20696e636f7272656374205f8201527f6f776e6572000000000000000000000000000000000000000000000000000000602082015250565b5f6134056025836123a3565b9150613410826133ab565b604082019050919050565b5f6020820190508181035f830152613432816133f9565b9050919050565b7f4552433732313a207472616e7366657220746f20746865207a65726f206164645f8201527f7265737300000000000000000000000000000000000000000000000000000000602082015250565b5f6134936024836123a3565b915061349e82613439565b604082019050919050565b5f6020820190508181035f8301526134c081613487565b9050919050565b5f81519050919050565b5f82825260208201905092915050565b5f6134eb826134c7565b6134f581856134d1565b93506135058185602086016123b3565b61350e816123db565b840191505092915050565b5f60808201905061352c5f8301876124d1565b61353960208301866124d1565b61354660408301856126e7565b818103606083015261355881846134e1565b905095945050505050565b5f8151905061357181612311565b92915050565b5f6020828403121561358c5761358b6122de565b5b5f61359984828501613563565b91505092915050565b7f4e487b71000000000000000000000000000000000000000000000000000000005f52601260045260245ffd5b7f455243373231456e756d657261626c653a20636f6e73656375746976652074725f8201527f616e7366657273206e6f7420737570706f727465640000000000000000000000602082015250565b5f6136296035836123a3565b9150613634826135cf565b604082019050919050565b5f6020820190508181035f8301526136568161361d565b9050919050565b7f4552433732313a206d696e7420746f20746865207a65726f20616464726573735f82015250565b5f6136916020836123a3565b915061369c8261365d565b602082019050919050565b5f6020820190508181035f8301526136be81613685565b9050919050565b7f4552433732313a20746f6b656e20616c7265616479206d696e746564000000005f82015250565b5f6136f9601c836123a3565b9150613704826136c5565b602082019050919050565b5f6020820190508181035f830152613726816136ed565b9050919050565b7f4e487b71000000000000000000000000000000000000000000000000000000005f52601160045260245ffd5b5f61376482612443565b915061376f83612443565b92508282039050818111156137875761378661372d565b5b92915050565b7f4e487b71000000000000000000000000000000000000000000000000000000005f52603160045260245ffdfe68747470733a2f2f6a6176612d6c616e672d70726f6772616d6d696e672e6769746875622e696f2f6e6674732f647765626e66742fa26469706673582212203a7defad1faf59e52042d210fedcdfc2e13ff362487c5ff86e19aaa1643ee4b164736f6c63430008150033",
  "linkReferences": {},
  "deployedLinkReferences": {}
}