{
  "_format": "hh-sol-artifact-1",
  "contractName": "ERC20VotesToken",
  "sourceName": "contracts/ERC20VotesToken.sol",
  "abi": [
    {
      "inputs": [],
      "stateMutability": "nonpayable",
      "type": "constructor"
    },
    {
      "inputs": [],
      "name": "InvalidShortString",
      "type": "error"
    },
    {
      "inputs": [
        {
          "internalType": "string",
          "name": "str",
          "type": "string"
        }
      ],
      "name": "StringTooLong",
      "type": "error"
    },
    {
      "anonymous": false,
      "inputs": [
        {
          "indexed": true,
          "internalType": "address",
          "name": "owner",
          "type": "address"
        },
        {
          "indexed": true,
          "internalType": "address",
          "name": "spender",
          "type": "address"
        },
        {
          "indexed": false,
          "internalType": "uint256",
          "name": "value",
          "type": "uint256"
        }
      ],
      "name": "Approval",
      "type": "event"
    },
    {
      "anonymous": false,
      "inputs": [
        {
          "indexed": true,
          "internalType": "address",
          "name": "delegator",
          "type": "address"
        },
        {
          "indexed": true,
          "internalType": "address",
          "name": "fromDelegate",
          "type": "address"
        },
        {
          "indexed": true,
          "internalType": "address",
          "name": "toDelegate",
          "type": "address"
        }
      ],
      "name": "DelegateChanged",
      "type": "event"
    },
    {
      "anonymous": false,
      "inputs": [
        {
          "indexed": true,
          "internalType": "address",
          "name": "delegate",
          "type": "address"
        },
        {
          "indexed": false,
          "internalType": "uint256",
          "name": "previousBalance",
          "type": "uint256"
        },
        {
          "indexed": false,
          "internalType": "uint256",
          "name": "newBalance",
          "type": "uint256"
        }
      ],
      "name": "DelegateVotesChanged",
      "type": "event"
    },
    {
      "anonymous": false,
      "inputs": [],
      "name": "EIP712DomainChanged",
      "type": "event"
    },
    {
      "anonymous": false,
      "inputs": [
        {
          "indexed": true,
          "internalType": "address",
          "name": "from",
          "type": "address"
        },
        {
          "indexed": true,
          "internalType": "address",
          "name": "to",
          "type": "address"
        },
        {
          "indexed": false,
          "internalType": "uint256",
          "name": "value",
          "type": "uint256"
        }
      ],
      "name": "Transfer",
      "type": "event"
    },
    {
      "inputs": [],
      "name": "CLOCK_MODE",
      "outputs": [
        {
          "internalType": "string",
          "name": "",
          "type": "string"
        }
      ],
      "stateMutability": "view",
      "type": "function"
    },
    {
      "inputs": [],
      "name": "DOMAIN_SEPARATOR",
      "outputs": [
        {
          "internalType": "bytes32",
          "name": "",
          "type": "bytes32"
        }
      ],
      "stateMutability": "view",
      "type": "function"
    },
    {
      "inputs": [
        {
          "internalType": "address",
          "name": "owner",
          "type": "address"
        },
        {
          "internalType": "address",
          "name": "spender",
          "type": "address"
        }
      ],
      "name": "allowance",
      "outputs": [
        {
          "internalType": "uint256",
          "name": "",
          "type": "uint256"
        }
      ],
      "stateMutability": "view",
      "type": "function"
    },
    {
      "inputs": [
        {
          "internalType": "address",
          "name": "spender",
          "type": "address"
        },
        {
          "internalType": "uint256",
          "name": "amount",
          "type": "uint256"
        }
      ],
      "name": "approve",
      "outputs": [
        {
          "internalType": "bool",
          "name": "",
          "type": "bool"
        }
      ],
      "stateMutability": "nonpayable",
      "type": "function"
    },
    {
      "inputs": [
        {
          "internalType": "address",
          "name": "account",
          "type": "address"
        }
      ],
      "name": "balanceOf",
      "outputs": [
        {
          "internalType": "uint256",
          "name": "",
          "type": "uint256"
        }
      ],
      "stateMutability": "view",
      "type": "function"
    },
    {
      "inputs": [
        {
          "internalType": "address",
          "name": "account",
          "type": "address"
        },
        {
          "internalType": "uint32",
          "name": "pos",
          "type": "uint32"
        }
      ],
      "name": "checkpoints",
      "outputs": [
        {
          "components": [
            {
              "internalType": "uint32",
              "name": "fromBlock",
              "type": "uint32"
            },
            {
              "internalType": "uint224",
              "name": "votes",
              "type": "uint224"
            }
          ],
          "internalType": "struct ERC20Votes.Checkpoint",
          "name": "",
          "type": "tuple"
        }
      ],
      "stateMutability": "view",
      "type": "function"
    },
    {
      "inputs": [],
      "name": "clock",
      "outputs": [
        {
          "internalType": "uint48",
          "name": "",
          "type": "uint48"
        }
      ],
      "stateMutability": "view",
      "type": "function"
    },
    {
      "inputs": [],
      "name": "decimals",
      "outputs": [
        {
          "internalType": "uint8",
          "name": "",
          "type": "uint8"
        }
      ],
      "stateMutability": "view",
      "type": "function"
    },
    {
      "inputs": [
        {
          "internalType": "address",
          "name": "spender",
          "type": "address"
        },
        {
          "internalType": "uint256",
          "name": "subtractedValue",
          "type": "uint256"
        }
      ],
      "name": "decreaseAllowance",
      "outputs": [
        {
          "internalType": "bool",
          "name": "",
          "type": "bool"
        }
      ],
      "stateMutability": "nonpayable",
      "type": "function"
    },
    {
      "inputs": [
        {
          "internalType": "address",
          "name": "delegatee",
          "type": "address"
        }
      ],
      "name": "delegate",
      "outputs": [],
      "stateMutability": "nonpayable",
      "type": "function"
    },
    {
      "inputs": [
        {
          "internalType": "address",
          "name": "delegatee",
          "type": "address"
        },
        {
          "internalType": "uint256",
          "name": "nonce",
          "type": "uint256"
        },
        {
          "internalType": "uint256",
          "name": "expiry",
          "type": "uint256"
        },
        {
          "internalType": "uint8",
          "name": "v",
          "type": "uint8"
        },
        {
          "internalType": "bytes32",
          "name": "r",
          "type": "bytes32"
        },
        {
          "internalType": "bytes32",
          "name": "s",
          "type": "bytes32"
        }
      ],
      "name": "delegateBySig",
      "outputs": [],
      "stateMutability": "nonpayable",
      "type": "function"
    },
    {
      "inputs": [
        {
          "internalType": "address",
          "name": "account",
          "type": "address"
        }
      ],
      "name": "delegates",
      "outputs": [
        {
          "internalType": "address",
          "name": "",
          "type": "address"
        }
      ],
      "stateMutability": "view",
      "type": "function"
    },
    {
      "inputs": [],
      "name": "eip712Domain",
      "outputs": [
        {
          "internalType": "bytes1",
          "name": "fields",
          "type": "bytes1"
        },
        {
          "internalType": "string",
          "name": "name",
          "type": "string"
        },
        {
          "internalType": "string",
          "name": "version",
          "type": "string"
        },
        {
          "internalType": "uint256",
          "name": "chainId",
          "type": "uint256"
        },
        {
          "internalType": "address",
          "name": "verifyingContract",
          "type": "address"
        },
        {
          "internalType": "bytes32",
          "name": "salt",
          "type": "bytes32"
        },
        {
          "internalType": "uint256[]",
          "name": "extensions",
          "type": "uint256[]"
        }
      ],
      "stateMutability": "view",
      "type": "function"
    },
    {
      "inputs": [
        {
          "internalType": "uint256",
          "name": "timepoint",
          "type": "uint256"
        }
      ],
      "name": "getPastTotalSupply",
      "outputs": [
        {
          "internalType": "uint256",
          "name": "",
          "type": "uint256"
        }
      ],
      "stateMutability": "view",
      "type": "function"
    },
    {
      "inputs": [
        {
          "internalType": "address",
          "name": "account",
          "type": "address"
        },
        {
          "internalType": "uint256",
          "name": "timepoint",
          "type": "uint256"
        }
      ],
      "name": "getPastVotes",
      "outputs": [
        {
          "internalType": "uint256",
          "name": "",
          "type": "uint256"
        }
      ],
      "stateMutability": "view",
      "type": "function"
    },
    {
      "inputs": [
        {
          "internalType": "address",
          "name": "account",
          "type": "address"
        }
      ],
      "name": "getVotes",
      "outputs": [
        {
          "internalType": "uint256",
          "name": "",
          "type": "uint256"
        }
      ],
      "stateMutability": "view",
      "type": "function"
    },
    {
      "inputs": [
        {
          "internalType": "address",
          "name": "spender",
          "type": "address"
        },
        {
          "internalType": "uint256",
          "name": "addedValue",
          "type": "uint256"
        }
      ],
      "name": "increaseAllowance",
      "outputs": [
        {
          "internalType": "bool",
          "name": "",
          "type": "bool"
        }
      ],
      "stateMutability": "nonpayable",
      "type": "function"
    },
    {
      "inputs": [
        {
          "internalType": "address",
          "name": "to",
          "type": "address"
        },
        {
          "internalType": "uint256",
          "name": "amount",
          "type": "uint256"
        }
      ],
      "name": "mint",
      "outputs": [],
      "stateMutability": "nonpayable",
      "type": "function"
    },
    {
      "inputs": [],
      "name": "name",
      "outputs": [
        {
          "internalType": "string",
          "name": "",
          "type": "string"
        }
      ],
      "stateMutability": "view",
      "type": "function"
    },
    {
      "inputs": [
        {
          "internalType": "address",
          "name": "owner",
          "type": "address"
        }
      ],
      "name": "nonces",
      "outputs": [
        {
          "internalType": "uint256",
          "name": "",
          "type": "uint256"
        }
      ],
      "stateMutability": "view",
      "type": "function"
    },
    {
      "inputs": [
        {
          "internalType": "address",
          "name": "account",
          "type": "address"
        }
      ],
      "name": "numCheckpoints",
      "outputs": [
        {
          "internalType": "uint32",
          "name": "",
          "type": "uint32"
        }
      ],
      "stateMutability": "view",
      "type": "function"
    },
    {
      "inputs": [
        {
          "internalType": "address",
          "name": "owner",
          "type": "address"
        },
        {
          "internalType": "address",
          "name": "spender",
          "type": "address"
        },
        {
          "internalType": "uint256",
          "name": "value",
          "type": "uint256"
        },
        {
          "internalType": "uint256",
          "name": "deadline",
          "type": "uint256"
        },
        {
          "internalType": "uint8",
          "name": "v",
          "type": "uint8"
        },
        {
          "internalType": "bytes32",
          "name": "r",
          "type": "bytes32"
        },
        {
          "internalType": "bytes32",
          "name": "s",
          "type": "bytes32"
        }
      ],
      "name": "permit",
      "outputs": [],
      "stateMutability": "nonpayable",
      "type": "function"
    },
    {
      "inputs": [],
      "name": "symbol",
      "outputs": [
        {
          "internalType": "string",
          "name": "",
          "type": "string"
        }
      ],
      "stateMutability": "view",
      "type": "function"
    },
    {
      "inputs": [],
      "name": "totalSupply",
      "outputs": [
        {
          "internalType": "uint256",
          "name": "",
          "type": "uint256"
        }
      ],
      "stateMutability": "view",
      "type": "function"
    },
    {
      "inputs": [
        {
          "internalType": "address",
          "name": "to",
          "type": "address"
        },
        {
          "internalType": "uint256",
          "name": "amount",
          "type": "uint256"
        }
      ],
      "name": "transfer",
      "outputs": [
        {
          "internalType": "bool",
          "name": "",
          "type": "bool"
        }
      ],
      "stateMutability": "nonpayable",
      "type": "function"
    },
    {
      "inputs": [
        {
          "internalType": "address",
          "name": "from",
          "type": "address"
        },
        {
          "internalType": "address",
          "name": "to",
          "type": "address"
        },
        {
          "internalType": "uint256",
          "name": "amount",
          "type": "uint256"
        }
      ],
      "name": "transferFrom",
      "outputs": [
        {
          "internalType": "bool",
          "name": "",
          "type": "bool"
        }
      ],
      "stateMutability": "nonpayable",
      "type": "function"
    }
  ],
  "bytecode": "0x61016060405234801562000011575f80fd5b506040518060400160405280600f81526020017f4552433230566f746573546f6b656e0000000000000000000000000000000000815250806040518060400160405280600181526020017f31000000000000000000000000000000000000000000000000000000000000008152506040518060400160405280600f81526020017f4552433230566f746573546f6b656e00000000000000000000000000000000008152506040518060400160405280600381526020017f45565400000000000000000000000000000000000000000000000000000000008152508160039081620000fc919062000550565b5080600490816200010e919062000550565b50505062000127600583620001c860201b90919060201c565b610120818152505062000145600682620001c860201b90919060201c565b6101408181525050818051906020012060e08181525050808051906020012061010081815250504660a08181525050620001846200021d60201b60201c565b608081815250503073ffffffffffffffffffffffffffffffffffffffff1660c08173ffffffffffffffffffffffffffffffffffffffff168152505050505062000847565b5f602083511015620001ed57620001e5836200027960201b60201c565b905062000217565b82620001ff83620002e360201b60201c565b5f0190816200020f919062000550565b5060ff5f1b90505b92915050565b5f7f8b73c3c69bb8fe3d512ecc4cf759cc79239f7b179b0ffacaa9a75d522b39400f60e0516101005146306040516020016200025e959493929190620006a2565b60405160208183030381529060405280519060200120905090565b5f80829050601f81511115620002c857826040517f305a27a9000000000000000000000000000000000000000000000000000000008152600401620002bf919062000787565b60405180910390fd5b805181620002d690620007d8565b5f1c175f1b915050919050565b5f819050919050565b5f81519050919050565b7f4e487b71000000000000000000000000000000000000000000000000000000005f52604160045260245ffd5b7f4e487b71000000000000000000000000000000000000000000000000000000005f52602260045260245ffd5b5f60028204905060018216806200036857607f821691505b6020821081036200037e576200037d62000323565b5b50919050565b5f819050815f5260205f209050919050565b5f6020601f8301049050919050565b5f82821b905092915050565b5f60088302620003e27fffffffffffffffffffffffffffffffffffffffffffffffffffffffffffffffff82620003a5565b620003ee8683620003a5565b95508019841693508086168417925050509392505050565b5f819050919050565b5f819050919050565b5f62000438620004326200042c8462000406565b6200040f565b62000406565b9050919050565b5f819050919050565b620004538362000418565b6200046b62000462826200043f565b848454620003b1565b825550505050565b5f90565b6200048162000473565b6200048e81848462000448565b505050565b5b81811015620004b557620004a95f8262000477565b60018101905062000494565b5050565b601f8211156200050457620004ce8162000384565b620004d98462000396565b81016020851015620004e9578190505b62000501620004f88562000396565b83018262000493565b50505b505050565b5f82821c905092915050565b5f620005265f198460080262000509565b1980831691505092915050565b5f62000540838362000515565b9150826002028217905092915050565b6200055b82620002ec565b67ffffffffffffffff811115620005775762000576620002f6565b5b62000583825462000350565b62000590828285620004b9565b5f60209050601f831160018114620005c6575f8415620005b1578287015190505b620005bd858262000533565b8655506200062c565b601f198416620005d68662000384565b5f5b82811015620005ff57848901518255600182019150602085019450602081019050620005d8565b868310156200061f57848901516200061b601f89168262000515565b8355505b6001600288020188555050505b505050505050565b5f819050919050565b620006488162000634565b82525050565b620006598162000406565b82525050565b5f73ffffffffffffffffffffffffffffffffffffffff82169050919050565b5f6200068a826200065f565b9050919050565b6200069c816200067e565b82525050565b5f60a082019050620006b75f8301886200063d565b620006c660208301876200063d565b620006d560408301866200063d565b620006e460608301856200064e565b620006f3608083018462000691565b9695505050505050565b5f82825260208201905092915050565b5f5b838110156200072c5780820151818401526020810190506200070f565b5f8484015250505050565b5f601f19601f8301169050919050565b5f6200075382620002ec565b6200075f8185620006fd565b9350620007718185602086016200070d565b6200077c8162000737565b840191505092915050565b5f6020820190508181035f830152620007a1818462000747565b905092915050565b5f81519050919050565b5f819050602082019050919050565b5f620007cf825162000634565b80915050919050565b5f620007e482620007a9565b82620007f084620007b3565b9050620007fd81620007c2565b9250602082101562000840576200083b7fffffffffffffffffffffffffffffffffffffffffffffffffffffffffffffffff83602003600802620003a5565b831692505b5050919050565b60805160a05160c05160e051610100516101205161014051613d8c620008995f395f6109a701525f61097301525f611af201525f611ad101525f61158901525f6115df01525f6116080152613d8c5ff3fe608060405234801561000f575f80fd5b506004361061018c575f3560e01c806370a08231116100dc5780639ab24eb011610095578063c3cda5201161006f578063c3cda520146104fe578063d505accf1461051a578063dd62ed3e14610536578063f1127ed8146105665761018c565b80639ab24eb01461046e578063a457c2d71461049e578063a9059cbb146104ce5761018c565b806370a082311461037e5780637ecebe00146103ae57806384b0196e146103de5780638e539e8c1461040257806391ddadf41461043257806395d89b41146104505761018c565b806339509351116101495780634bf5d7e9116101235780634bf5d7e9146102e4578063587cde1e146103025780635c19a95c146103325780636fcfff451461034e5761018c565b806339509351146102685780633a46b1a81461029857806340c10f19146102c85761018c565b806306fdde0314610190578063095ea7b3146101ae57806318160ddd146101de57806323b872dd146101fc578063313ce5671461022c5780633644e5151461024a575b5f80fd5b610198610596565b6040516101a591906128f0565b60405180910390f35b6101c860048036038101906101c391906129a1565b610626565b6040516101d591906129f9565b60405180910390f35b6101e6610648565b6040516101f39190612a21565b60405180910390f35b61021660048036038101906102119190612a3a565b610651565b60405161022391906129f9565b60405180910390f35b61023461067f565b6040516102419190612aa5565b60405180910390f35b610252610687565b60405161025f9190612ad6565b60405180910390f35b610282600480360381019061027d91906129a1565b610695565b60405161028f91906129f9565b60405180910390f35b6102b260048036038101906102ad91906129a1565b6106cb565b6040516102bf9190612a21565b60405180910390f35b6102e260048036038101906102dd91906129a1565b61076b565b005b6102ec610779565b6040516102f991906128f0565b60405180910390f35b61031c60048036038101906103179190612aef565b610807565b6040516103299190612b29565b60405180910390f35b61034c60048036038101906103479190612aef565b61086c565b005b61036860048036038101906103639190612aef565b610880565b6040516103759190612b60565b60405180910390f35b61039860048036038101906103939190612aef565b6108d1565b6040516103a59190612a21565b60405180910390f35b6103c860048036038101906103c39190612aef565b610916565b6040516103d59190612a21565b60405180910390f35b6103e6610963565b6040516103f99796959493929190612c6a565b60405180910390f35b61041c60048036038101906104179190612cec565b610a60565b6040516104299190612a21565b60405180910390f35b61043a610ac4565b6040516104479190612d37565b60405180910390f35b610458610ad3565b60405161046591906128f0565b60405180910390f35b61048860048036038101906104839190612aef565b610b63565b6040516104959190612a21565b60405180910390f35b6104b860048036038101906104b391906129a1565b610c61565b6040516104c591906129f9565b60405180910390f35b6104e860048036038101906104e391906129a1565b610cd6565b6040516104f591906129f9565b60405180910390f35b61051860048036038101906105139190612da4565b610cf8565b005b610534600480360381019061052f9190612e2d565b610dfb565b005b610550600480360381019061054b9190612eca565b610f3a565b60405161055d9190612a21565b60405180910390f35b610580600480360381019061057b9190612f32565b610fbc565b60405161058d9190612fe2565b60405180910390f35b6060600380546105a590613028565b80601f01602080910402602001604051908101604052809291908181526020018280546105d190613028565b801561061c5780601f106105f35761010080835404028352916020019161061c565b820191905f5260205f20905b8154815290600101906020018083116105ff57829003601f168201915b5050505050905090565b5f806106306110c5565b905061063d8185856110cc565b600191505092915050565b5f600254905090565b5f8061065b6110c5565b905061066885828561128f565b61067385858561131a565b60019150509392505050565b5f6012905090565b5f610690611586565b905090565b5f8061069f6110c5565b90506106c08185856106b18589610f3a565b6106bb9190613085565b6110cc565b600191505092915050565b5f6106d4610ac4565b65ffffffffffff16821061071d576040517f08c379a000000000000000000000000000000000000000000000000000000000815260040161071490613102565b60405180910390fd5b610763600a5f8573ffffffffffffffffffffffffffffffffffffffff1673ffffffffffffffffffffffffffffffffffffffff1681526020019081526020015f208361163c565b905092915050565b6107758282611779565b5050565b606043610784610ac4565b65ffffffffffff16146107cc576040517f08c379a00000000000000000000000000000000000000000000000000000000081526004016107c39061316a565b60405180910390fd5b6040518060400160405280601d81526020017f6d6f64653d626c6f636b6e756d6265722666726f6d3d64656661756c74000000815250905090565b5f60095f8373ffffffffffffffffffffffffffffffffffffffff1673ffffffffffffffffffffffffffffffffffffffff1681526020019081526020015f205f9054906101000a900473ffffffffffffffffffffffffffffffffffffffff169050919050565b61087d6108776110c5565b82611787565b50565b5f6108ca600a5f8473ffffffffffffffffffffffffffffffffffffffff1673ffffffffffffffffffffffffffffffffffffffff1681526020019081526020015f208054905061189c565b9050919050565b5f805f8373ffffffffffffffffffffffffffffffffffffffff1673ffffffffffffffffffffffffffffffffffffffff1681526020019081526020015f20549050919050565b5f61095c60075f8473ffffffffffffffffffffffffffffffffffffffff1673ffffffffffffffffffffffffffffffffffffffff1681526020019081526020015f206118ee565b9050919050565b5f6060805f805f60606109a060057f00000000000000000000000000000000000000000000000000000000000000006118fa90919063ffffffff16565b6109d460067f00000000000000000000000000000000000000000000000000000000000000006118fa90919063ffffffff16565b46305f801b5f67ffffffffffffffff8111156109f3576109f2613188565b5b604051908082528060200260200182016040528015610a215781602001602082028036833780820191505090505b507f0f00000000000000000000000000000000000000000000000000000000000000959493929190965096509650965096509650965090919293949596565b5f610a69610ac4565b65ffffffffffff168210610ab2576040517f08c379a0000000000000000000000000000000000000000000000000000000008152600401610aa990613102565b60405180910390fd5b610abd600b8361163c565b9050919050565b5f610ace436119a7565b905090565b606060048054610ae290613028565b80601f0160208091040260200160405190810160405280929190818152602001828054610b0e90613028565b8015610b595780601f10610b3057610100808354040283529160200191610b59565b820191905f5260205f20905b815481529060010190602001808311610b3c57829003601f168201915b5050505050905090565b5f80600a5f8473ffffffffffffffffffffffffffffffffffffffff1673ffffffffffffffffffffffffffffffffffffffff1681526020019081526020015f208054905090505f8114610c3957600a5f8473ffffffffffffffffffffffffffffffffffffffff1673ffffffffffffffffffffffffffffffffffffffff1681526020019081526020015f206001820381548110610c0157610c006131b5565b5b905f5260205f20015f0160049054906101000a90047bffffffffffffffffffffffffffffffffffffffffffffffffffffffff16610c3b565b5f5b7bffffffffffffffffffffffffffffffffffffffffffffffffffffffff16915050919050565b5f80610c6b6110c5565b90505f610c788286610f3a565b905083811015610cbd576040517f08c379a0000000000000000000000000000000000000000000000000000000008152600401610cb490613252565b60405180910390fd5b610cca82868684036110cc565b60019250505092915050565b5f80610ce06110c5565b9050610ced81858561131a565b600191505092915050565b83421115610d3b576040517f08c379a0000000000000000000000000000000000000000000000000000000008152600401610d32906132ba565b60405180910390fd5b5f610d9c610d947fe48329057bfd03d55e49b547132e39cffd9c1820ad7b9d4c5307691425d15adf898989604051602001610d7994939291906132d8565b604051602081830303815290604052805190602001206119fb565b858585611a14565b9050610da781611a3d565b8614610de8576040517f08c379a0000000000000000000000000000000000000000000000000000000008152600401610ddf90613365565b60405180910390fd5b610df28188611787565b50505050505050565b83421115610e3e576040517f08c379a0000000000000000000000000000000000000000000000000000000008152600401610e35906133cd565b60405180910390fd5b5f7f6e71edae12b1b97f4d1f60370fef10105fa2faae0126114a169c64845d6126c9888888610e6c8c611a3d565b89604051602001610e82969594939291906133eb565b6040516020818303038152906040528051906020012090505f610ea4826119fb565b90505f610eb382878787611a14565b90508973ffffffffffffffffffffffffffffffffffffffff168173ffffffffffffffffffffffffffffffffffffffff1614610f23576040517f08c379a0000000000000000000000000000000000000000000000000000000008152600401610f1a90613494565b60405180910390fd5b610f2e8a8a8a6110cc565b50505050505050505050565b5f60015f8473ffffffffffffffffffffffffffffffffffffffff1673ffffffffffffffffffffffffffffffffffffffff1681526020019081526020015f205f8373ffffffffffffffffffffffffffffffffffffffff1673ffffffffffffffffffffffffffffffffffffffff1681526020019081526020015f2054905092915050565b610fc461282a565b600a5f8473ffffffffffffffffffffffffffffffffffffffff1673ffffffffffffffffffffffffffffffffffffffff1681526020019081526020015f208263ffffffff1681548110611019576110186131b5565b5b905f5260205f20016040518060400160405290815f82015f9054906101000a900463ffffffff1663ffffffff1663ffffffff1681526020015f820160049054906101000a90047bffffffffffffffffffffffffffffffffffffffffffffffffffffffff167bffffffffffffffffffffffffffffffffffffffffffffffffffffffff167bffffffffffffffffffffffffffffffffffffffffffffffffffffffff1681525050905092915050565b5f33905090565b5f73ffffffffffffffffffffffffffffffffffffffff168373ffffffffffffffffffffffffffffffffffffffff160361113a576040517f08c379a000000000000000000000000000000000000000000000000000000000815260040161113190613522565b60405180910390fd5b5f73ffffffffffffffffffffffffffffffffffffffff168273ffffffffffffffffffffffffffffffffffffffff16036111a8576040517f08c379a000000000000000000000000000000000000000000000000000000000815260040161119f906135b0565b60405180910390fd5b8060015f8573ffffffffffffffffffffffffffffffffffffffff1673ffffffffffffffffffffffffffffffffffffffff1681526020019081526020015f205f8473ffffffffffffffffffffffffffffffffffffffff1673ffffffffffffffffffffffffffffffffffffffff1681526020019081526020015f20819055508173ffffffffffffffffffffffffffffffffffffffff168373ffffffffffffffffffffffffffffffffffffffff167f8c5be1e5ebec7d5bd14f71427d1e84f3dd0314c0f7b2291e5b200ac8c7c3b925836040516112829190612a21565b60405180910390a3505050565b5f61129a8484610f3a565b90507fffffffffffffffffffffffffffffffffffffffffffffffffffffffffffffffff81146113145781811015611306576040517f08c379a00000000000000000000000000000000000000000000000000000000081526004016112fd90613618565b60405180910390fd5b61131384848484036110cc565b5b50505050565b5f73ffffffffffffffffffffffffffffffffffffffff168373ffffffffffffffffffffffffffffffffffffffff1603611388576040517f08c379a000000000000000000000000000000000000000000000000000000000815260040161137f906136a6565b60405180910390fd5b5f73ffffffffffffffffffffffffffffffffffffffff168273ffffffffffffffffffffffffffffffffffffffff16036113f6576040517f08c379a00000000000000000000000000000000000000000000000000000000081526004016113ed90613734565b60405180910390fd5b611401838383611a98565b5f805f8573ffffffffffffffffffffffffffffffffffffffff1673ffffffffffffffffffffffffffffffffffffffff1681526020019081526020015f2054905081811015611484576040517f08c379a000000000000000000000000000000000000000000000000000000000815260040161147b906137c2565b60405180910390fd5b8181035f808673ffffffffffffffffffffffffffffffffffffffff1673ffffffffffffffffffffffffffffffffffffffff1681526020019081526020015f2081905550815f808573ffffffffffffffffffffffffffffffffffffffff1673ffffffffffffffffffffffffffffffffffffffff1681526020019081526020015f205f82825401925050819055508273ffffffffffffffffffffffffffffffffffffffff168473ffffffffffffffffffffffffffffffffffffffff167fddf252ad1be2c89b69c2b068fc378daa952ba7f163c4a11628f55a4df523b3ef8460405161156d9190612a21565b60405180910390a3611580848484611a9d565b50505050565b5f7f000000000000000000000000000000000000000000000000000000000000000073ffffffffffffffffffffffffffffffffffffffff163073ffffffffffffffffffffffffffffffffffffffff1614801561160157507f000000000000000000000000000000000000000000000000000000000000000046145b1561162e577f00000000000000000000000000000000000000000000000000000000000000009050611639565b611636611aad565b90505b90565b5f80838054905090505f8082905060058311156116ad575f61165d84611b42565b8461166891906137e0565b9050856116758883611c38565b5f015f9054906101000a900463ffffffff1663ffffffff16111561169b578091506116ab565b6001816116a89190613085565b92505b505b5b8082101561170a575f6116c18383611c4a565b9050856116ce8883611c38565b5f015f9054906101000a900463ffffffff1663ffffffff1611156116f457809150611704565b6001816117019190613085565b92505b506116ae565b5f811461174e5761171e8660018303611c38565b5f0160049054906101000a90047bffffffffffffffffffffffffffffffffffffffffffffffffffffffff16611750565b5f5b7bffffffffffffffffffffffffffffffffffffffffffffffffffffffff16935050505092915050565b6117838282611c6f565b5050565b5f61179183610807565b90505f61179d846108d1565b90508260095f8673ffffffffffffffffffffffffffffffffffffffff1673ffffffffffffffffffffffffffffffffffffffff1681526020019081526020015f205f6101000a81548173ffffffffffffffffffffffffffffffffffffffff021916908373ffffffffffffffffffffffffffffffffffffffff1602179055508273ffffffffffffffffffffffffffffffffffffffff168273ffffffffffffffffffffffffffffffffffffffff168573ffffffffffffffffffffffffffffffffffffffff167f3134e8a2e6d97e929a7e54011ea5485d7d196dd5f0ba4d4ef95803e8e3fc257f60405160405180910390a4611896828483611cfc565b50505050565b5f63ffffffff80168211156118e6576040517f08c379a00000000000000000000000000000000000000000000000000000000081526004016118dd90613883565b60405180910390fd5b819050919050565b5f815f01549050919050565b606060ff5f1b83146119165761190f83611eec565b90506119a1565b81805461192290613028565b80601f016020809104026020016040519081016040528092919081815260200182805461194e90613028565b80156119995780601f1061197057610100808354040283529160200191611999565b820191905f5260205f20905b81548152906001019060200180831161197c57829003601f168201915b505050505090505b92915050565b5f65ffffffffffff80168211156119f3576040517f08c379a00000000000000000000000000000000000000000000000000000000081526004016119ea90613911565b60405180910390fd5b819050919050565b5f611a0d611a07611586565b83611f5e565b9050919050565b5f805f611a2387878787611f9e565b91509150611a3081612076565b8192505050949350505050565b5f8060075f8473ffffffffffffffffffffffffffffffffffffffff1673ffffffffffffffffffffffffffffffffffffffff1681526020019081526020015f209050611a87816118ee565b9150611a92816121db565b50919050565b505050565b611aa88383836121ef565b505050565b5f7f8b73c3c69bb8fe3d512ecc4cf759cc79239f7b179b0ffacaa9a75d522b39400f7f00000000000000000000000000000000000000000000000000000000000000007f00000000000000000000000000000000000000000000000000000000000000004630604051602001611b2795949392919061392f565b60405160208183030381529060405280519060200120905090565b5f808203611b52575f9050611c33565b5f6001611b5e8461221a565b901c6001901b90506001818481611b7857611b77613980565b5b048201901c90506001818481611b9157611b90613980565b5b048201901c90506001818481611baa57611ba9613980565b5b048201901c90506001818481611bc357611bc2613980565b5b048201901c90506001818481611bdc57611bdb613980565b5b048201901c90506001818481611bf557611bf4613980565b5b048201901c90506001818481611c0e57611c0d613980565b5b048201901c9050611c2f81828581611c2957611c28613980565b5b046122f1565b9150505b919050565b5f825f528160205f2001905092915050565b5f6002828418611c5a91906139ad565b828416611c679190613085565b905092915050565b611c798282612309565b611c81612457565b7bffffffffffffffffffffffffffffffffffffffffffffffffffffffff16611ca7610648565b1115611ce8576040517f08c379a0000000000000000000000000000000000000000000000000000000008152600401611cdf90613a4d565b60405180910390fd5b611cf6600b61247a8361248f565b50505050565b8173ffffffffffffffffffffffffffffffffffffffff168373ffffffffffffffffffffffffffffffffffffffff1614158015611d3757505f81115b15611ee7575f73ffffffffffffffffffffffffffffffffffffffff168373ffffffffffffffffffffffffffffffffffffffff1614611e11575f80611dba600a5f8773ffffffffffffffffffffffffffffffffffffffff1673ffffffffffffffffffffffffffffffffffffffff1681526020019081526020015f206127588561248f565b915091508473ffffffffffffffffffffffffffffffffffffffff167fdec2bacdd2f05b59de34da9b523dff8be42e5e38e818c82fdb0bae774387a7248383604051611e06929190613a6b565b60405180910390a250505b5f73ffffffffffffffffffffffffffffffffffffffff168273ffffffffffffffffffffffffffffffffffffffff1614611ee6575f80611e8f600a5f8673ffffffffffffffffffffffffffffffffffffffff1673ffffffffffffffffffffffffffffffffffffffff1681526020019081526020015f2061247a8561248f565b915091508373ffffffffffffffffffffffffffffffffffffffff167fdec2bacdd2f05b59de34da9b523dff8be42e5e38e818c82fdb0bae774387a7248383604051611edb929190613a6b565b60405180910390a250505b5b505050565b60605f611ef88361276d565b90505f602067ffffffffffffffff811115611f1657611f15613188565b5b6040519080825280601f01601f191660200182016040528015611f485781602001600182028036833780820191505090505b5090508181528360208201528092505050919050565b5f6040517f190100000000000000000000000000000000000000000000000000000000000081528360028201528260228201526042812091505092915050565b5f807f7fffffffffffffffffffffffffffffff5d576e7357a4501ddfe92f46681b20a0835f1c1115611fd6575f60039150915061206d565b5f6001878787876040515f8152602001604052604051611ff99493929190613a92565b6020604051602081039080840390855afa158015612019573d5f803e3d5ffd5b5050506020604051035190505f73ffffffffffffffffffffffffffffffffffffffff168173ffffffffffffffffffffffffffffffffffffffff1603612065575f6001925092505061206d565b805f92509250505b94509492505050565b5f600481111561208957612088613ad5565b5b81600481111561209c5761209b613ad5565b5b03156121d857600160048111156120b6576120b5613ad5565b5b8160048111156120c9576120c8613ad5565b5b03612109576040517f08c379a000000000000000000000000000000000000000000000000000000000815260040161210090613b4c565b60405180910390fd5b6002600481111561211d5761211c613ad5565b5b8160048111156121305761212f613ad5565b5b03612170576040517f08c379a000000000000000000000000000000000000000000000000000000000815260040161216790613bb4565b60405180910390fd5b6003600481111561218457612183613ad5565b5b81600481111561219757612196613ad5565b5b036121d7576040517f08c379a00000000000000000000000000000000000000000000000000000000081526004016121ce90613c42565b60405180910390fd5b5b50565b6001815f015f828254019250508190555050565b6121fa8383836127bb565b61221561220684610807565b61220f84610807565b83611cfc565b505050565b5f805f90505f608084901c111561223957608083901c92506080810190505b5f604084901c111561225357604083901c92506040810190505b5f602084901c111561226d57602083901c92506020810190505b5f601084901c111561228757601083901c92506010810190505b5f600884901c11156122a157600883901c92506008810190505b5f600484901c11156122bb57600483901c92506004810190505b5f600284901c11156122d557600283901c92506002810190505b5f600184901c11156122e8576001810190505b80915050919050565b5f8183106122ff5781612301565b825b905092915050565b5f73ffffffffffffffffffffffffffffffffffffffff168273ffffffffffffffffffffffffffffffffffffffff1603612377576040517f08c379a000000000000000000000000000000000000000000000000000000000815260040161236e90613caa565b60405180910390fd5b6123825f8383611a98565b8060025f8282546123939190613085565b92505081905550805f808473ffffffffffffffffffffffffffffffffffffffff1673ffffffffffffffffffffffffffffffffffffffff1681526020019081526020015f205f82825401925050819055508173ffffffffffffffffffffffffffffffffffffffff165f73ffffffffffffffffffffffffffffffffffffffff167fddf252ad1be2c89b69c2b068fc378daa952ba7f163c4a11628f55a4df523b3ef836040516124409190612a21565b60405180910390a36124535f8383611a9d565b5050565b5f7bffffffffffffffffffffffffffffffffffffffffffffffffffffffff905090565b5f81836124879190613085565b905092915050565b5f805f858054905090505f80821461254f576124ae8760018403611c38565b6040518060400160405290815f82015f9054906101000a900463ffffffff1663ffffffff1663ffffffff1681526020015f820160049054906101000a90047bffffffffffffffffffffffffffffffffffffffffffffffffffffffff167bffffffffffffffffffffffffffffffffffffffffffffffffffffffff167bffffffffffffffffffffffffffffffffffffffffffffffffffffffff1681525050612589565b60405180604001604052805f63ffffffff1681526020015f7bffffffffffffffffffffffffffffffffffffffffffffffffffffffff168152505b905080602001517bffffffffffffffffffffffffffffffffffffffffffffffffffffffff1693506125be84868863ffffffff16565b92505f821180156125e657506125d2610ac4565b65ffffffffffff16815f015163ffffffff16145b15612656576125f4836127c0565b6126018860018503611c38565b5f0160046101000a8154817bffffffffffffffffffffffffffffffffffffffffffffffffffffffff02191690837bffffffffffffffffffffffffffffffffffffffffffffffffffffffff16021790555061274e565b86604051806040016040528061267a61266d610ac4565b65ffffffffffff1661189c565b63ffffffff16815260200161268e866127c0565b7bffffffffffffffffffffffffffffffffffffffffffffffffffffffff16815250908060018154018082558091505060019003905f5260205f20015f909190919091505f820151815f015f6101000a81548163ffffffff021916908363ffffffff1602179055506020820151815f0160046101000a8154817bffffffffffffffffffffffffffffffffffffffffffffffffffffffff02191690837bffffffffffffffffffffffffffffffffffffffffffffffffffffffff16021790555050505b5050935093915050565b5f818361276591906137e0565b905092915050565b5f8060ff835f1c169050601f8111156127b2576040517fb3512b0c00000000000000000000000000000000000000000000000000000000815260040160405180910390fd5b80915050919050565b505050565b5f7bffffffffffffffffffffffffffffffffffffffffffffffffffffffff8016821115612822576040517f08c379a000000000000000000000000000000000000000000000000000000000815260040161281990613d38565b60405180910390fd5b819050919050565b60405180604001604052805f63ffffffff1681526020015f7bffffffffffffffffffffffffffffffffffffffffffffffffffffffff1681525090565b5f81519050919050565b5f82825260208201905092915050565b5f5b8381101561289d578082015181840152602081019050612882565b5f8484015250505050565b5f601f19601f8301169050919050565b5f6128c282612866565b6128cc8185612870565b93506128dc818560208601612880565b6128e5816128a8565b840191505092915050565b5f6020820190508181035f83015261290881846128b8565b905092915050565b5f80fd5b5f73ffffffffffffffffffffffffffffffffffffffff82169050919050565b5f61293d82612914565b9050919050565b61294d81612933565b8114612957575f80fd5b50565b5f8135905061296881612944565b92915050565b5f819050919050565b6129808161296e565b811461298a575f80fd5b50565b5f8135905061299b81612977565b92915050565b5f80604083850312156129b7576129b6612910565b5b5f6129c48582860161295a565b92505060206129d58582860161298d565b9150509250929050565b5f8115159050919050565b6129f3816129df565b82525050565b5f602082019050612a0c5f8301846129ea565b92915050565b612a1b8161296e565b82525050565b5f602082019050612a345f830184612a12565b92915050565b5f805f60608486031215612a5157612a50612910565b5b5f612a5e8682870161295a565b9350506020612a6f8682870161295a565b9250506040612a808682870161298d565b9150509250925092565b5f60ff82169050919050565b612a9f81612a8a565b82525050565b5f602082019050612ab85f830184612a96565b92915050565b5f819050919050565b612ad081612abe565b82525050565b5f602082019050612ae95f830184612ac7565b92915050565b5f60208284031215612b0457612b03612910565b5b5f612b118482850161295a565b91505092915050565b612b2381612933565b82525050565b5f602082019050612b3c5f830184612b1a565b92915050565b5f63ffffffff82169050919050565b612b5a81612b42565b82525050565b5f602082019050612b735f830184612b51565b92915050565b5f7fff0000000000000000000000000000000000000000000000000000000000000082169050919050565b612bad81612b79565b82525050565b5f81519050919050565b5f82825260208201905092915050565b5f819050602082019050919050565b612be58161296e565b82525050565b5f612bf68383612bdc565b60208301905092915050565b5f602082019050919050565b5f612c1882612bb3565b612c228185612bbd565b9350612c2d83612bcd565b805f5b83811015612c5d578151612c448882612beb565b9750612c4f83612c02565b925050600181019050612c30565b5085935050505092915050565b5f60e082019050612c7d5f83018a612ba4565b8181036020830152612c8f81896128b8565b90508181036040830152612ca381886128b8565b9050612cb26060830187612a12565b612cbf6080830186612b1a565b612ccc60a0830185612ac7565b81810360c0830152612cde8184612c0e565b905098975050505050505050565b5f60208284031215612d0157612d00612910565b5b5f612d0e8482850161298d565b91505092915050565b5f65ffffffffffff82169050919050565b612d3181612d17565b82525050565b5f602082019050612d4a5f830184612d28565b92915050565b612d5981612a8a565b8114612d63575f80fd5b50565b5f81359050612d7481612d50565b92915050565b612d8381612abe565b8114612d8d575f80fd5b50565b5f81359050612d9e81612d7a565b92915050565b5f805f805f8060c08789031215612dbe57612dbd612910565b5b5f612dcb89828a0161295a565b9650506020612ddc89828a0161298d565b9550506040612ded89828a0161298d565b9450506060612dfe89828a01612d66565b9350506080612e0f89828a01612d90565b92505060a0612e2089828a01612d90565b9150509295509295509295565b5f805f805f805f60e0888a031215612e4857612e47612910565b5b5f612e558a828b0161295a565b9750506020612e668a828b0161295a565b9650506040612e778a828b0161298d565b9550506060612e888a828b0161298d565b9450506080612e998a828b01612d66565b93505060a0612eaa8a828b01612d90565b92505060c0612ebb8a828b01612d90565b91505092959891949750929550565b5f8060408385031215612ee057612edf612910565b5b5f612eed8582860161295a565b9250506020612efe8582860161295a565b9150509250929050565b612f1181612b42565b8114612f1b575f80fd5b50565b5f81359050612f2c81612f08565b92915050565b5f8060408385031215612f4857612f47612910565b5b5f612f558582860161295a565b9250506020612f6685828601612f1e565b9150509250929050565b612f7981612b42565b82525050565b5f7bffffffffffffffffffffffffffffffffffffffffffffffffffffffff82169050919050565b612faf81612f7f565b82525050565b604082015f820151612fc95f850182612f70565b506020820151612fdc6020850182612fa6565b50505050565b5f604082019050612ff55f830184612fb5565b92915050565b7f4e487b71000000000000000000000000000000000000000000000000000000005f52602260045260245ffd5b5f600282049050600182168061303f57607f821691505b60208210810361305257613051612ffb565b5b50919050565b7f4e487b71000000000000000000000000000000000000000000000000000000005f52601160045260245ffd5b5f61308f8261296e565b915061309a8361296e565b92508282019050808211156130b2576130b1613058565b5b92915050565b7f4552433230566f7465733a20667574757265206c6f6f6b7570000000000000005f82015250565b5f6130ec601983612870565b91506130f7826130b8565b602082019050919050565b5f6020820190508181035f830152613119816130e0565b9050919050565b7f4552433230566f7465733a2062726f6b656e20636c6f636b206d6f64650000005f82015250565b5f613154601d83612870565b915061315f82613120565b602082019050919050565b5f6020820190508181035f83015261318181613148565b9050919050565b7f4e487b71000000000000000000000000000000000000000000000000000000005f52604160045260245ffd5b7f4e487b71000000000000000000000000000000000000000000000000000000005f52603260045260245ffd5b7f45524332303a2064656372656173656420616c6c6f77616e63652062656c6f775f8201527f207a65726f000000000000000000000000000000000000000000000000000000602082015250565b5f61323c602583612870565b9150613247826131e2565b604082019050919050565b5f6020820190508181035f83015261326981613230565b9050919050565b7f4552433230566f7465733a207369676e617475726520657870697265640000005f82015250565b5f6132a4601d83612870565b91506132af82613270565b602082019050919050565b5f6020820190508181035f8301526132d181613298565b9050919050565b5f6080820190506132eb5f830187612ac7565b6132f86020830186612b1a565b6133056040830185612a12565b6133126060830184612a12565b95945050505050565b7f4552433230566f7465733a20696e76616c6964206e6f6e6365000000000000005f82015250565b5f61334f601983612870565b915061335a8261331b565b602082019050919050565b5f6020820190508181035f83015261337c81613343565b9050919050565b7f45524332305065726d69743a206578706972656420646561646c696e650000005f82015250565b5f6133b7601d83612870565b91506133c282613383565b602082019050919050565b5f6020820190508181035f8301526133e4816133ab565b9050919050565b5f60c0820190506133fe5f830189612ac7565b61340b6020830188612b1a565b6134186040830187612b1a565b6134256060830186612a12565b6134326080830185612a12565b61343f60a0830184612a12565b979650505050505050565b7f45524332305065726d69743a20696e76616c6964207369676e617475726500005f82015250565b5f61347e601e83612870565b91506134898261344a565b602082019050919050565b5f6020820190508181035f8301526134ab81613472565b9050919050565b7f45524332303a20617070726f76652066726f6d20746865207a65726f206164645f8201527f7265737300000000000000000000000000000000000000000000000000000000602082015250565b5f61350c602483612870565b9150613517826134b2565b604082019050919050565b5f6020820190508181035f83015261353981613500565b9050919050565b7f45524332303a20617070726f766520746f20746865207a65726f2061646472655f8201527f7373000000000000000000000000000000000000000000000000000000000000602082015250565b5f61359a602283612870565b91506135a582613540565b604082019050919050565b5f6020820190508181035f8301526135c78161358e565b9050919050565b7f45524332303a20696e73756666696369656e7420616c6c6f77616e63650000005f82015250565b5f613602601d83612870565b915061360d826135ce565b602082019050919050565b5f6020820190508181035f83015261362f816135f6565b9050919050565b7f45524332303a207472616e736665722066726f6d20746865207a65726f2061645f8201527f6472657373000000000000000000000000000000000000000000000000000000602082015250565b5f613690602583612870565b915061369b82613636565b604082019050919050565b5f6020820190508181035f8301526136bd81613684565b9050919050565b7f45524332303a207472616e7366657220746f20746865207a65726f20616464725f8201527f6573730000000000000000000000000000000000000000000000000000000000602082015250565b5f61371e602383612870565b9150613729826136c4565b604082019050919050565b5f6020820190508181035f83015261374b81613712565b9050919050565b7f45524332303a207472616e7366657220616d6f756e74206578636565647320625f8201527f616c616e63650000000000000000000000000000000000000000000000000000602082015250565b5f6137ac602683612870565b91506137b782613752565b604082019050919050565b5f6020820190508181035f8301526137d9816137a0565b9050919050565b5f6137ea8261296e565b91506137f58361296e565b925082820390508181111561380d5761380c613058565b5b92915050565b7f53616665436173743a2076616c756520646f65736e27742066697420696e20335f8201527f3220626974730000000000000000000000000000000000000000000000000000602082015250565b5f61386d602683612870565b915061387882613813565b604082019050919050565b5f6020820190508181035f83015261389a81613861565b9050919050565b7f53616665436173743a2076616c756520646f65736e27742066697420696e20345f8201527f3820626974730000000000000000000000000000000000000000000000000000602082015250565b5f6138fb602683612870565b9150613906826138a1565b604082019050919050565b5f6020820190508181035f830152613928816138ef565b9050919050565b5f60a0820190506139425f830188612ac7565b61394f6020830187612ac7565b61395c6040830186612ac7565b6139696060830185612a12565b6139766080830184612b1a565b9695505050505050565b7f4e487b71000000000000000000000000000000000000000000000000000000005f52601260045260245ffd5b5f6139b78261296e565b91506139c28361296e565b9250826139d2576139d1613980565b5b828204905092915050565b7f4552433230566f7465733a20746f74616c20737570706c79207269736b73206f5f8201527f766572666c6f77696e6720766f74657300000000000000000000000000000000602082015250565b5f613a37603083612870565b9150613a42826139dd565b604082019050919050565b5f6020820190508181035f830152613a6481613a2b565b9050919050565b5f604082019050613a7e5f830185612a12565b613a8b6020830184612a12565b9392505050565b5f608082019050613aa55f830187612ac7565b613ab26020830186612a96565b613abf6040830185612ac7565b613acc6060830184612ac7565b95945050505050565b7f4e487b71000000000000000000000000000000000000000000000000000000005f52602160045260245ffd5b7f45434453413a20696e76616c6964207369676e617475726500000000000000005f82015250565b5f613b36601883612870565b9150613b4182613b02565b602082019050919050565b5f6020820190508181035f830152613b6381613b2a565b9050919050565b7f45434453413a20696e76616c6964207369676e6174757265206c656e677468005f82015250565b5f613b9e601f83612870565b9150613ba982613b6a565b602082019050919050565b5f6020820190508181035f830152613bcb81613b92565b9050919050565b7f45434453413a20696e76616c6964207369676e6174757265202773272076616c5f8201527f7565000000000000000000000000000000000000000000000000000000000000602082015250565b5f613c2c602283612870565b9150613c3782613bd2565b604082019050919050565b5f6020820190508181035f830152613c5981613c20565b9050919050565b7f45524332303a206d696e7420746f20746865207a65726f2061646472657373005f82015250565b5f613c94601f83612870565b9150613c9f82613c60565b602082019050919050565b5f6020820190508181035f830152613cc181613c88565b9050919050565b7f53616665436173743a2076616c756520646f65736e27742066697420696e20325f8201527f3234206269747300000000000000000000000000000000000000000000000000602082015250565b5f613d22602783612870565b9150613d2d82613cc8565b604082019050919050565b5f6020820190508181035f830152613d4f81613d16565b905091905056fea2646970667358221220a8aea3018046932efc9de38a899af510a923624030b9d7081734b06c200bd4b964736f6c63430008150033",
  "linkReferences": {},
  "deployedLinkReferences": {}
}