{
  "_format": "hh-sol-artifact-1",
  "contractName": "OpenJpDaoGovernor",
  "sourceName": "contracts/OpenJpDaoGovernor.sol",
  "abi": [
    {
      "inputs": [
        {
          "internalType": "contract IVotes",
          "name": "_token",
          "type": "address"
        }
      ],
      "stateMutability": "nonpayable",
      "type": "constructor"
    },
    {
      "inputs": [],
      "name": "CheckpointUnorderedInsertion",
      "type": "error"
    },
    {
      "inputs": [],
      "name": "FailedInnerCall",
      "type": "error"
    },
    {
      "inputs": [
        {
          "internalType": "address",
          "name": "voter",
          "type": "address"
        }
      ],
      "name": "GovernorAlreadyCastVote",
      "type": "error"
    },
    {
      "inputs": [
        {
          "internalType": "uint256",
          "name": "proposalId",
          "type": "uint256"
        }
      ],
      "name": "GovernorAlreadyQueuedProposal",
      "type": "error"
    },
    {
      "inputs": [],
      "name": "GovernorDisabledDeposit",
      "type": "error"
    },
    {
      "inputs": [
        {
          "internalType": "address",
          "name": "proposer",
          "type": "address"
        },
        {
          "internalType": "uint256",
          "name": "votes",
          "type": "uint256"
        },
        {
          "internalType": "uint256",
          "name": "threshold",
          "type": "uint256"
        }
      ],
      "name": "GovernorInsufficientProposerVotes",
      "type": "error"
    },
    {
      "inputs": [
        {
          "internalType": "uint256",
          "name": "targets",
          "type": "uint256"
        },
        {
          "internalType": "uint256",
          "name": "calldatas",
          "type": "uint256"
        },
        {
          "internalType": "uint256",
          "name": "values",
          "type": "uint256"
        }
      ],
      "name": "GovernorInvalidProposalLength",
      "type": "error"
    },
    {
      "inputs": [
        {
          "internalType": "uint256",
          "name": "quorumNumerator",
          "type": "uint256"
        },
        {
          "internalType": "uint256",
          "name": "quorumDenominator",
          "type": "uint256"
        }
      ],
      "name": "GovernorInvalidQuorumFraction",
      "type": "error"
    },
    {
      "inputs": [
        {
          "internalType": "address",
          "name": "voter",
          "type": "address"
        }
      ],
      "name": "GovernorInvalidSignature",
      "type": "error"
    },
    {
      "inputs": [],
      "name": "GovernorInvalidVoteType",
      "type": "error"
    },
    {
      "inputs": [
        {
          "internalType": "uint256",
          "name": "votingPeriod",
          "type": "uint256"
        }
      ],
      "name": "GovernorInvalidVotingPeriod",
      "type": "error"
    },
    {
      "inputs": [
        {
          "internalType": "uint256",
          "name": "proposalId",
          "type": "uint256"
        }
      ],
      "name": "GovernorNonexistentProposal",
      "type": "error"
    },
    {
      "inputs": [
        {
          "internalType": "uint256",
          "name": "proposalId",
          "type": "uint256"
        }
      ],
      "name": "GovernorNotQueuedProposal",
      "type": "error"
    },
    {
      "inputs": [
        {
          "internalType": "address",
          "name": "account",
          "type": "address"
        }
      ],
      "name": "GovernorOnlyExecutor",
      "type": "error"
    },
    {
      "inputs": [
        {
          "internalType": "address",
          "name": "account",
          "type": "address"
        }
      ],
      "name": "GovernorOnlyProposer",
      "type": "error"
    },
    {
      "inputs": [],
      "name": "GovernorQueueNotImplemented",
      "type": "error"
    },
    {
      "inputs": [
        {
          "internalType": "address",
          "name": "proposer",
          "type": "address"
        }
      ],
      "name": "GovernorRestrictedProposer",
      "type": "error"
    },
    {
      "inputs": [
        {
          "internalType": "uint256",
          "name": "proposalId",
          "type": "uint256"
        },
        {
          "internalType": "enum IGovernor.ProposalState",
          "name": "current",
          "type": "uint8"
        },
        {
          "internalType": "bytes32",
          "name": "expectedStates",
          "type": "bytes32"
        }
      ],
      "name": "GovernorUnexpectedProposalState",
      "type": "error"
    },
    {
      "inputs": [
        {
          "internalType": "address",
          "name": "account",
          "type": "address"
        },
        {
          "internalType": "uint256",
          "name": "currentNonce",
          "type": "uint256"
        }
      ],
      "name": "InvalidAccountNonce",
      "type": "error"
    },
    {
      "inputs": [],
      "name": "InvalidShortString",
      "type": "error"
    },
    {
      "inputs": [],
      "name": "QueueEmpty",
      "type": "error"
    },
    {
      "inputs": [],
      "name": "QueueFull",
      "type": "error"
    },
    {
      "inputs": [
        {
          "internalType": "uint8",
          "name": "bits",
          "type": "uint8"
        },
        {
          "internalType": "uint256",
          "name": "value",
          "type": "uint256"
        }
      ],
      "name": "SafeCastOverflowedUintDowncast",
      "type": "error"
    },
    {
      "inputs": [
        {
          "internalType": "string",
          "name": "str",
          "type": "string"
        }
      ],
      "name": "StringTooLong",
      "type": "error"
    },
    {
      "anonymous": false,
      "inputs": [],
      "name": "EIP712DomainChanged",
      "type": "event"
    },
    {
      "anonymous": false,
      "inputs": [
        {
          "indexed": false,
          "internalType": "uint256",
          "name": "proposalId",
          "type": "uint256"
        }
      ],
      "name": "ProposalCanceled",
      "type": "event"
    },
    {
      "anonymous": false,
      "inputs": [
        {
          "indexed": false,
          "internalType": "uint256",
          "name": "proposalId",
          "type": "uint256"
        },
        {
          "indexed": false,
          "internalType": "address",
          "name": "proposer",
          "type": "address"
        },
        {
          "indexed": false,
          "internalType": "address[]",
          "name": "targets",
          "type": "address[]"
        },
        {
          "indexed": false,
          "internalType": "uint256[]",
          "name": "values",
          "type": "uint256[]"
        },
        {
          "indexed": false,
          "internalType": "string[]",
          "name": "signatures",
          "type": "string[]"
        },
        {
          "indexed": false,
          "internalType": "bytes[]",
          "name": "calldatas",
          "type": "bytes[]"
        },
        {
          "indexed": false,
          "internalType": "uint256",
          "name": "voteStart",
          "type": "uint256"
        },
        {
          "indexed": false,
          "internalType": "uint256",
          "name": "voteEnd",
          "type": "uint256"
        },
        {
          "indexed": false,
          "internalType": "string",
          "name": "description",
          "type": "string"
        }
      ],
      "name": "ProposalCreated",
      "type": "event"
    },
    {
      "anonymous": false,
      "inputs": [
        {
          "indexed": false,
          "internalType": "uint256",
          "name": "proposalId",
          "type": "uint256"
        }
      ],
      "name": "ProposalExecuted",
      "type": "event"
    },
    {
      "anonymous": false,
      "inputs": [
        {
          "indexed": false,
          "internalType": "uint256",
          "name": "proposalId",
          "type": "uint256"
        },
        {
          "indexed": false,
          "internalType": "uint256",
          "name": "etaSeconds",
          "type": "uint256"
        }
      ],
      "name": "ProposalQueued",
      "type": "event"
    },
    {
      "anonymous": false,
      "inputs": [
        {
          "indexed": false,
          "internalType": "uint256",
          "name": "oldQuorumNumerator",
          "type": "uint256"
        },
        {
          "indexed": false,
          "internalType": "uint256",
          "name": "newQuorumNumerator",
          "type": "uint256"
        }
      ],
      "name": "QuorumNumeratorUpdated",
      "type": "event"
    },
    {
      "anonymous": false,
      "inputs": [
        {
          "indexed": true,
          "internalType": "address",
          "name": "voter",
          "type": "address"
        },
        {
          "indexed": false,
          "internalType": "uint256",
          "name": "proposalId",
          "type": "uint256"
        },
        {
          "indexed": false,
          "internalType": "uint8",
          "name": "support",
          "type": "uint8"
        },
        {
          "indexed": false,
          "internalType": "uint256",
          "name": "weight",
          "type": "uint256"
        },
        {
          "indexed": false,
          "internalType": "string",
          "name": "reason",
          "type": "string"
        }
      ],
      "name": "VoteCast",
      "type": "event"
    },
    {
      "anonymous": false,
      "inputs": [
        {
          "indexed": true,
          "internalType": "address",
          "name": "voter",
          "type": "address"
        },
        {
          "indexed": false,
          "internalType": "uint256",
          "name": "proposalId",
          "type": "uint256"
        },
        {
          "indexed": false,
          "internalType": "uint8",
          "name": "support",
          "type": "uint8"
        },
        {
          "indexed": false,
          "internalType": "uint256",
          "name": "weight",
          "type": "uint256"
        },
        {
          "indexed": false,
          "internalType": "string",
          "name": "reason",
          "type": "string"
        },
        {
          "indexed": false,
          "internalType": "bytes",
          "name": "params",
          "type": "bytes"
        }
      ],
      "name": "VoteCastWithParams",
      "type": "event"
    },
    {
      "inputs": [],
      "name": "BALLOT_TYPEHASH",
      "outputs": [
        {
          "internalType": "bytes32",
          "name": "",
          "type": "bytes32"
        }
      ],
      "stateMutability": "view",
      "type": "function"
    },
    {
      "inputs": [],
      "name": "CLOCK_MODE",
      "outputs": [
        {
          "internalType": "string",
          "name": "",
          "type": "string"
        }
      ],
      "stateMutability": "view",
      "type": "function"
    },
    {
      "inputs": [],
      "name": "COUNTING_MODE",
      "outputs": [
        {
          "internalType": "string",
          "name": "",
          "type": "string"
        }
      ],
      "stateMutability": "pure",
      "type": "function"
    },
    {
      "inputs": [],
      "name": "EXTENDED_BALLOT_TYPEHASH",
      "outputs": [
        {
          "internalType": "bytes32",
          "name": "",
          "type": "bytes32"
        }
      ],
      "stateMutability": "view",
      "type": "function"
    },
    {
      "inputs": [
        {
          "internalType": "address[]",
          "name": "targets",
          "type": "address[]"
        },
        {
          "internalType": "uint256[]",
          "name": "values",
          "type": "uint256[]"
        },
        {
          "internalType": "bytes[]",
          "name": "calldatas",
          "type": "bytes[]"
        },
        {
          "internalType": "bytes32",
          "name": "descriptionHash",
          "type": "bytes32"
        }
      ],
      "name": "cancel",
      "outputs": [
        {
          "internalType": "uint256",
          "name": "",
          "type": "uint256"
        }
      ],
      "stateMutability": "nonpayable",
      "type": "function"
    },
    {
      "inputs": [
        {
          "internalType": "uint256",
          "name": "proposalId",
          "type": "uint256"
        },
        {
          "internalType": "uint8",
          "name": "support",
          "type": "uint8"
        }
      ],
      "name": "castVote",
      "outputs": [
        {
          "internalType": "uint256",
          "name": "",
          "type": "uint256"
        }
      ],
      "stateMutability": "nonpayable",
      "type": "function"
    },
    {
      "inputs": [
        {
          "internalType": "uint256",
          "name": "proposalId",
          "type": "uint256"
        },
        {
          "internalType": "uint8",
          "name": "support",
          "type": "uint8"
        },
        {
          "internalType": "address",
          "name": "voter",
          "type": "address"
        },
        {
          "internalType": "bytes",
          "name": "signature",
          "type": "bytes"
        }
      ],
      "name": "castVoteBySig",
      "outputs": [
        {
          "internalType": "uint256",
          "name": "",
          "type": "uint256"
        }
      ],
      "stateMutability": "nonpayable",
      "type": "function"
    },
    {
      "inputs": [
        {
          "internalType": "uint256",
          "name": "proposalId",
          "type": "uint256"
        },
        {
          "internalType": "uint8",
          "name": "support",
          "type": "uint8"
        },
        {
          "internalType": "string",
          "name": "reason",
          "type": "string"
        }
      ],
      "name": "castVoteWithReason",
      "outputs": [
        {
          "internalType": "uint256",
          "name": "",
          "type": "uint256"
        }
      ],
      "stateMutability": "nonpayable",
      "type": "function"
    },
    {
      "inputs": [
        {
          "internalType": "uint256",
          "name": "proposalId",
          "type": "uint256"
        },
        {
          "internalType": "uint8",
          "name": "support",
          "type": "uint8"
        },
        {
          "internalType": "string",
          "name": "reason",
          "type": "string"
        },
        {
          "internalType": "bytes",
          "name": "params",
          "type": "bytes"
        }
      ],
      "name": "castVoteWithReasonAndParams",
      "outputs": [
        {
          "internalType": "uint256",
          "name": "",
          "type": "uint256"
        }
      ],
      "stateMutability": "nonpayable",
      "type": "function"
    },
    {
      "inputs": [
        {
          "internalType": "uint256",
          "name": "proposalId",
          "type": "uint256"
        },
        {
          "internalType": "uint8",
          "name": "support",
          "type": "uint8"
        },
        {
          "internalType": "address",
          "name": "voter",
          "type": "address"
        },
        {
          "internalType": "string",
          "name": "reason",
          "type": "string"
        },
        {
          "internalType": "bytes",
          "name": "params",
          "type": "bytes"
        },
        {
          "internalType": "bytes",
          "name": "signature",
          "type": "bytes"
        }
      ],
      "name": "castVoteWithReasonAndParamsBySig",
      "outputs": [
        {
          "internalType": "uint256",
          "name": "",
          "type": "uint256"
        }
      ],
      "stateMutability": "nonpayable",
      "type": "function"
    },
    {
      "inputs": [],
      "name": "clock",
      "outputs": [
        {
          "internalType": "uint48",
          "name": "",
          "type": "uint48"
        }
      ],
      "stateMutability": "view",
      "type": "function"
    },
    {
      "inputs": [],
      "name": "eip712Domain",
      "outputs": [
        {
          "internalType": "bytes1",
          "name": "fields",
          "type": "bytes1"
        },
        {
          "internalType": "string",
          "name": "name",
          "type": "string"
        },
        {
          "internalType": "string",
          "name": "version",
          "type": "string"
        },
        {
          "internalType": "uint256",
          "name": "chainId",
          "type": "uint256"
        },
        {
          "internalType": "address",
          "name": "verifyingContract",
          "type": "address"
        },
        {
          "internalType": "bytes32",
          "name": "salt",
          "type": "bytes32"
        },
        {
          "internalType": "uint256[]",
          "name": "extensions",
          "type": "uint256[]"
        }
      ],
      "stateMutability": "view",
      "type": "function"
    },
    {
      "inputs": [
        {
          "internalType": "address[]",
          "name": "targets",
          "type": "address[]"
        },
        {
          "internalType": "uint256[]",
          "name": "values",
          "type": "uint256[]"
        },
        {
          "internalType": "bytes[]",
          "name": "calldatas",
          "type": "bytes[]"
        },
        {
          "internalType": "bytes32",
          "name": "descriptionHash",
          "type": "bytes32"
        }
      ],
      "name": "execute",
      "outputs": [
        {
          "internalType": "uint256",
          "name": "",
          "type": "uint256"
        }
      ],
      "stateMutability": "payable",
      "type": "function"
    },
    {
      "inputs": [
        {
          "internalType": "address",
          "name": "account",
          "type": "address"
        },
        {
          "internalType": "uint256",
          "name": "timepoint",
          "type": "uint256"
        }
      ],
      "name": "getVotes",
      "outputs": [
        {
          "internalType": "uint256",
          "name": "",
          "type": "uint256"
        }
      ],
      "stateMutability": "view",
      "type": "function"
    },
    {
      "inputs": [
        {
          "internalType": "address",
          "name": "account",
          "type": "address"
        },
        {
          "internalType": "uint256",
          "name": "timepoint",
          "type": "uint256"
        },
        {
          "internalType": "bytes",
          "name": "params",
          "type": "bytes"
        }
      ],
      "name": "getVotesWithParams",
      "outputs": [
        {
          "internalType": "uint256",
          "name": "",
          "type": "uint256"
        }
      ],
      "stateMutability": "view",
      "type": "function"
    },
    {
      "inputs": [
        {
          "internalType": "uint256",
          "name": "proposalId",
          "type": "uint256"
        },
        {
          "internalType": "address",
          "name": "account",
          "type": "address"
        }
      ],
      "name": "hasVoted",
      "outputs": [
        {
          "internalType": "bool",
          "name": "",
          "type": "bool"
        }
      ],
      "stateMutability": "view",
      "type": "function"
    },
    {
      "inputs": [
        {
          "internalType": "address[]",
          "name": "targets",
          "type": "address[]"
        },
        {
          "internalType": "uint256[]",
          "name": "values",
          "type": "uint256[]"
        },
        {
          "internalType": "bytes[]",
          "name": "calldatas",
          "type": "bytes[]"
        },
        {
          "internalType": "bytes32",
          "name": "descriptionHash",
          "type": "bytes32"
        }
      ],
      "name": "hashProposal",
      "outputs": [
        {
          "internalType": "uint256",
          "name": "",
          "type": "uint256"
        }
      ],
      "stateMutability": "pure",
      "type": "function"
    },
    {
      "inputs": [
        {
          "internalType": "address[]",
          "name": "targets",
          "type": "address[]"
        },
        {
          "internalType": "uint256[]",
          "name": "values",
          "type": "uint256[]"
        },
        {
          "internalType": "bytes[]",
          "name": "calldatas",
          "type": "bytes[]"
        },
        {
          "internalType": "string",
          "name": "description",
          "type": "string"
        }
      ],
      "name": "hashProposal2",
      "outputs": [
        {
          "internalType": "uint256",
          "name": "",
          "type": "uint256"
        }
      ],
      "stateMutability": "pure",
      "type": "function"
    },
    {
      "inputs": [
        {
          "internalType": "address[]",
          "name": "targets",
          "type": "address[]"
        },
        {
          "internalType": "uint256[]",
          "name": "values",
          "type": "uint256[]"
        },
        {
          "internalType": "bytes[]",
          "name": "calldatas",
          "type": "bytes[]"
        },
        {
          "internalType": "bytes32",
          "name": "descriptionHash",
          "type": "bytes32"
        }
      ],
      "name": "hashProposal_temp",
      "outputs": [
        {
          "internalType": "uint256",
          "name": "",
          "type": "uint256"
        }
      ],
      "stateMutability": "pure",
      "type": "function"
    },
    {
      "inputs": [],
      "name": "name",
      "outputs": [
        {
          "internalType": "string",
          "name": "",
          "type": "string"
        }
      ],
      "stateMutability": "view",
      "type": "function"
    },
    {
      "inputs": [
        {
          "internalType": "address",
          "name": "owner",
          "type": "address"
        }
      ],
      "name": "nonces",
      "outputs": [
        {
          "internalType": "uint256",
          "name": "",
          "type": "uint256"
        }
      ],
      "stateMutability": "view",
      "type": "function"
    },
    {
      "inputs": [
        {
          "internalType": "address",
          "name": "",
          "type": "address"
        },
        {
          "internalType": "address",
          "name": "",
          "type": "address"
        },
        {
          "internalType": "uint256[]",
          "name": "",
          "type": "uint256[]"
        },
        {
          "internalType": "uint256[]",
          "name": "",
          "type": "uint256[]"
        },
        {
          "internalType": "bytes",
          "name": "",
          "type": "bytes"
        }
      ],
      "name": "onERC1155BatchReceived",
      "outputs": [
        {
          "internalType": "bytes4",
          "name": "",
          "type": "bytes4"
        }
      ],
      "stateMutability": "nonpayable",
      "type": "function"
    },
    {
      "inputs": [
        {
          "internalType": "address",
          "name": "",
          "type": "address"
        },
        {
          "internalType": "address",
          "name": "",
          "type": "address"
        },
        {
          "internalType": "uint256",
          "name": "",
          "type": "uint256"
        },
        {
          "internalType": "uint256",
          "name": "",
          "type": "uint256"
        },
        {
          "internalType": "bytes",
          "name": "",
          "type": "bytes"
        }
      ],
      "name": "onERC1155Received",
      "outputs": [
        {
          "internalType": "bytes4",
          "name": "",
          "type": "bytes4"
        }
      ],
      "stateMutability": "nonpayable",
      "type": "function"
    },
    {
      "inputs": [
        {
          "internalType": "address",
          "name": "",
          "type": "address"
        },
        {
          "internalType": "address",
          "name": "",
          "type": "address"
        },
        {
          "internalType": "uint256",
          "name": "",
          "type": "uint256"
        },
        {
          "internalType": "bytes",
          "name": "",
          "type": "bytes"
        }
      ],
      "name": "onERC721Received",
      "outputs": [
        {
          "internalType": "bytes4",
          "name": "",
          "type": "bytes4"
        }
      ],
      "stateMutability": "nonpayable",
      "type": "function"
    },
    {
      "inputs": [
        {
          "internalType": "uint256",
          "name": "proposalId",
          "type": "uint256"
        }
      ],
      "name": "proposalDeadline",
      "outputs": [
        {
          "internalType": "uint256",
          "name": "",
          "type": "uint256"
        }
      ],
      "stateMutability": "view",
      "type": "function"
    },
    {
      "inputs": [
        {
          "internalType": "uint256",
          "name": "proposalId",
          "type": "uint256"
        }
      ],
      "name": "proposalEta",
      "outputs": [
        {
          "internalType": "uint256",
          "name": "",
          "type": "uint256"
        }
      ],
      "stateMutability": "view",
      "type": "function"
    },
    {
      "inputs": [
        {
          "internalType": "uint256",
          "name": "",
          "type": "uint256"
        }
      ],
      "name": "proposalNeedsQueuing",
      "outputs": [
        {
          "internalType": "bool",
          "name": "",
          "type": "bool"
        }
      ],
      "stateMutability": "view",
      "type": "function"
    },
    {
      "inputs": [
        {
          "internalType": "uint256",
          "name": "proposalId",
          "type": "uint256"
        }
      ],
      "name": "proposalProposer",
      "outputs": [
        {
          "internalType": "address",
          "name": "",
          "type": "address"
        }
      ],
      "stateMutability": "view",
      "type": "function"
    },
    {
      "inputs": [
        {
          "internalType": "uint256",
          "name": "proposalId",
          "type": "uint256"
        }
      ],
      "name": "proposalSnapshot",
      "outputs": [
        {
          "internalType": "uint256",
          "name": "",
          "type": "uint256"
        }
      ],
      "stateMutability": "view",
      "type": "function"
    },
    {
      "inputs": [],
      "name": "proposalThreshold",
      "outputs": [
        {
          "internalType": "uint256",
          "name": "",
          "type": "uint256"
        }
      ],
      "stateMutability": "pure",
      "type": "function"
    },
    {
      "inputs": [
        {
          "internalType": "uint256",
          "name": "proposalId",
          "type": "uint256"
        }
      ],
      "name": "proposalVotes",
      "outputs": [
        {
          "internalType": "uint256",
          "name": "againstVotes",
          "type": "uint256"
        },
        {
          "internalType": "uint256",
          "name": "forVotes",
          "type": "uint256"
        },
        {
          "internalType": "uint256",
          "name": "abstainVotes",
          "type": "uint256"
        }
      ],
      "stateMutability": "view",
      "type": "function"
    },
    {
      "inputs": [
        {
          "internalType": "address[]",
          "name": "targets",
          "type": "address[]"
        },
        {
          "internalType": "uint256[]",
          "name": "values",
          "type": "uint256[]"
        },
        {
          "internalType": "bytes[]",
          "name": "calldatas",
          "type": "bytes[]"
        },
        {
          "internalType": "string",
          "name": "description",
          "type": "string"
        }
      ],
      "name": "propose",
      "outputs": [
        {
          "internalType": "uint256",
          "name": "",
          "type": "uint256"
        }
      ],
      "stateMutability": "nonpayable",
      "type": "function"
    },
    {
      "inputs": [
        {
          "internalType": "address[]",
          "name": "targets",
          "type": "address[]"
        },
        {
          "internalType": "uint256[]",
          "name": "values",
          "type": "uint256[]"
        },
        {
          "internalType": "bytes[]",
          "name": "calldatas",
          "type": "bytes[]"
        },
        {
          "internalType": "bytes32",
          "name": "descriptionHash",
          "type": "bytes32"
        }
      ],
      "name": "queue",
      "outputs": [
        {
          "internalType": "uint256",
          "name": "",
          "type": "uint256"
        }
      ],
      "stateMutability": "nonpayable",
      "type": "function"
    },
    {
      "inputs": [
        {
          "internalType": "uint256",
          "name": "blockNumber",
          "type": "uint256"
        }
      ],
      "name": "quorum",
      "outputs": [
        {
          "internalType": "uint256",
          "name": "",
          "type": "uint256"
        }
      ],
      "stateMutability": "view",
      "type": "function"
    },
    {
      "inputs": [],
      "name": "quorumDenominator",
      "outputs": [
        {
          "internalType": "uint256",
          "name": "",
          "type": "uint256"
        }
      ],
      "stateMutability": "view",
      "type": "function"
    },
    {
      "inputs": [
        {
          "internalType": "uint256",
          "name": "timepoint",
          "type": "uint256"
        }
      ],
      "name": "quorumNumerator",
      "outputs": [
        {
          "internalType": "uint256",
          "name": "",
          "type": "uint256"
        }
      ],
      "stateMutability": "view",
      "type": "function"
    },
    {
      "inputs": [],
      "name": "quorumNumerator",
      "outputs": [
        {
          "internalType": "uint256",
          "name": "",
          "type": "uint256"
        }
      ],
      "stateMutability": "view",
      "type": "function"
    },
    {
      "inputs": [
        {
          "internalType": "address",
          "name": "target",
          "type": "address"
        },
        {
          "internalType": "uint256",
          "name": "value",
          "type": "uint256"
        },
        {
          "internalType": "bytes",
          "name": "data",
          "type": "bytes"
        }
      ],
      "name": "relay",
      "outputs": [],
      "stateMutability": "payable",
      "type": "function"
    },
    {
      "inputs": [
        {
          "internalType": "uint256",
          "name": "proposalId",
          "type": "uint256"
        }
      ],
      "name": "state",
      "outputs": [
        {
          "internalType": "enum IGovernor.ProposalState",
          "name": "",
          "type": "uint8"
        }
      ],
      "stateMutability": "view",
      "type": "function"
    },
    {
      "inputs": [
        {
          "internalType": "bytes4",
          "name": "interfaceId",
          "type": "bytes4"
        }
      ],
      "name": "supportsInterface",
      "outputs": [
        {
          "internalType": "bool",
          "name": "",
          "type": "bool"
        }
      ],
      "stateMutability": "view",
      "type": "function"
    },
    {
      "inputs": [],
      "name": "temp_blockNumber",
      "outputs": [
        {
          "internalType": "uint48",
          "name": "",
          "type": "uint48"
        }
      ],
      "stateMutability": "nonpayable",
      "type": "function"
    },
    {
      "inputs": [],
      "name": "token",
      "outputs": [
        {
          "internalType": "contract IERC5805",
          "name": "",
          "type": "address"
        }
      ],
      "stateMutability": "view",
      "type": "function"
    },
    {
      "inputs": [
        {
          "internalType": "uint256",
          "name": "newQuorumNumerator",
          "type": "uint256"
        }
      ],
      "name": "updateQuorumNumerator",
      "outputs": [],
      "stateMutability": "nonpayable",
      "type": "function"
    },
    {
      "inputs": [],
      "name": "version",
      "outputs": [
        {
          "internalType": "string",
          "name": "",
          "type": "string"
        }
      ],
      "stateMutability": "view",
      "type": "function"
    },
    {
      "inputs": [],
      "name": "votingDelay",
      "outputs": [
        {
          "internalType": "uint256",
          "name": "",
          "type": "uint256"
        }
      ],
      "stateMutability": "pure",
      "type": "function"
    },
    {
      "inputs": [],
      "name": "votingPeriod",
      "outputs": [
        {
          "internalType": "uint256",
          "name": "",
          "type": "uint256"
        }
      ],
      "stateMutability": "pure",
      "type": "function"
    },
    {
      "stateMutability": "payable",
      "type": "receive"
    }
  ],
  "bytecode": "0x61018060405234801562000011575f80fd5b50604051620073f3380380620073f3833981810160405281019062000037919062000a40565b5f816040518060400160405280601181526020017f4f70656e4a7044616f476f7665726e6f7200000000000000000000000000000081525080620000806200019160201b60201c565b620000955f83620001ce60201b90919060201c565b6101208181525050620000b3600182620001ce60201b90919060201c565b6101408181525050818051906020012060e08181525050808051906020012061010081815250504660a08181525050620000f26200022360201b60201c565b608081815250503073ffffffffffffffffffffffffffffffffffffffff1660c08173ffffffffffffffffffffffffffffffffffffffff16815250505050806003908162000140919062000cd4565b50508073ffffffffffffffffffffffffffffffffffffffff166101608173ffffffffffffffffffffffffffffffffffffffff16815250505062000189816200027f60201b60201c565b50506200117f565b60606040518060400160405280600181526020017f3100000000000000000000000000000000000000000000000000000000000000815250905090565b5f602083511015620001f357620001eb836200036860201b60201c565b90506200021d565b826200020583620003d260201b60201c565b5f01908162000215919062000cd4565b5060ff5f1b90505b92915050565b5f7f8b73c3c69bb8fe3d512ecc4cf759cc79239f7b179b0ffacaa9a75d522b39400f60e0516101005146306040516020016200026495949392919062000df4565b60405160208183030381529060405280519060200120905090565b5f62000290620003db60201b60201c565b905080821115620002dc5781816040517f243e5445000000000000000000000000000000000000000000000000000000008152600401620002d392919062000e4f565b60405180910390fd5b5f620002ed620003e360201b60201c565b905062000326620003036200041760201b60201c565b6200031485620004b760201b60201c565b60086200052760201b9092919060201c565b50507f0553476bf02ef2726e8ce5ced78d63e26e602e4a2257b1f559418e24b463399781846040516200035b92919062000e4f565b60405180910390a1505050565b5f80829050601f81511115620003b757826040517f305a27a9000000000000000000000000000000000000000000000000000000008152600401620003ae919062000f04565b60405180910390fd5b805181620003c59062000f55565b5f1c175f1b915050919050565b5f819050919050565b5f6064905090565b5f620003f660086200054a60201b60201c565b79ffffffffffffffffffffffffffffffffffffffffffffffffffff16905090565b5f62000428620005b860201b60201c565b73ffffffffffffffffffffffffffffffffffffffff166391ddadf46040518163ffffffff1660e01b8152600401602060405180830381865afa9250505080156200049257506040513d601f19601f820116820180604052508101906200048f919062001004565b60015b620004af57620004a7620005c260201b60201c565b9050620004b4565b809150505b90565b5f79ffffffffffffffffffffffffffffffffffffffffffffffffffff80168211156200051f5760d0826040517f6dfcc6500000000000000000000000000000000000000000000000000000000081526004016200051692919062001081565b60405180910390fd5b819050919050565b5f806200053e855f018585620005d960201b60201c565b91509150935093915050565b5f80825f018054905090505f8114620005ae576200057f835f01600183620005739190620010d9565b6200095a60201b60201c565b5f0160069054906101000a900479ffffffffffffffffffffffffffffffffffffffffffffffffffff16620005b0565b5f5b915050919050565b5f61016051905090565b5f620005d4436200096c60201b60201c565b905090565b5f805f858054905090505f81111562000872575f6200060d87600184620006019190620010d9565b6200095a60201b60201c565b6040518060400160405290815f82015f9054906101000a900465ffffffffffff1665ffffffffffff1665ffffffffffff1681526020015f820160069054906101000a900479ffffffffffffffffffffffffffffffffffffffffffffffffffff1679ffffffffffffffffffffffffffffffffffffffffffffffffffff1679ffffffffffffffffffffffffffffffffffffffffffffffffffff168152505090508565ffffffffffff16815f015165ffffffffffff161115620006f9576040517f2520601d00000000000000000000000000000000000000000000000000000000815260040160405180910390fd5b8565ffffffffffff16815f015165ffffffffffff16036200078757846200073588600185620007299190620010d9565b6200095a60201b60201c565b5f0160066101000a81548179ffffffffffffffffffffffffffffffffffffffffffffffffffff021916908379ffffffffffffffffffffffffffffffffffffffffffffffffffff16021790555062000860565b8660405180604001604052808865ffffffffffff1681526020018779ffffffffffffffffffffffffffffffffffffffffffffffffffff16815250908060018154018082558091505060019003905f5260205f20015f909190919091505f820151815f015f6101000a81548165ffffffffffff021916908365ffffffffffff1602179055506020820151815f0160066101000a81548179ffffffffffffffffffffffffffffffffffffffffffffffffffff021916908379ffffffffffffffffffffffffffffffffffffffffffffffffffff16021790555050505b80602001518593509350505062000952565b8560405180604001604052808765ffffffffffff1681526020018679ffffffffffffffffffffffffffffffffffffffffffffffffffff16815250908060018154018082558091505060019003905f5260205f20015f909190919091505f820151815f015f6101000a81548165ffffffffffff021916908365ffffffffffff1602179055506020820151815f0160066101000a81548179ffffffffffffffffffffffffffffffffffffffffffffffffffff021916908379ffffffffffffffffffffffffffffffffffffffffffffffffffff16021790555050505f8492509250505b935093915050565b5f825f528160205f2001905092915050565b5f65ffffffffffff8016821115620009c0576030826040517f6dfcc650000000000000000000000000000000000000000000000000000000008152600401620009b792919062001154565b60405180910390fd5b819050919050565b5f80fd5b5f73ffffffffffffffffffffffffffffffffffffffff82169050919050565b5f620009f782620009cc565b9050919050565b5f62000a0a82620009eb565b9050919050565b62000a1c81620009fe565b811462000a27575f80fd5b50565b5f8151905062000a3a8162000a11565b92915050565b5f6020828403121562000a585762000a57620009c8565b5b5f62000a678482850162000a2a565b91505092915050565b5f81519050919050565b7f4e487b71000000000000000000000000000000000000000000000000000000005f52604160045260245ffd5b7f4e487b71000000000000000000000000000000000000000000000000000000005f52602260045260245ffd5b5f600282049050600182168062000aec57607f821691505b60208210810362000b025762000b0162000aa7565b5b50919050565b5f819050815f5260205f209050919050565b5f6020601f8301049050919050565b5f82821b905092915050565b5f6008830262000b667fffffffffffffffffffffffffffffffffffffffffffffffffffffffffffffffff8262000b29565b62000b72868362000b29565b95508019841693508086168417925050509392505050565b5f819050919050565b5f819050919050565b5f62000bbc62000bb662000bb08462000b8a565b62000b93565b62000b8a565b9050919050565b5f819050919050565b62000bd78362000b9c565b62000bef62000be68262000bc3565b84845462000b35565b825550505050565b5f90565b62000c0562000bf7565b62000c1281848462000bcc565b505050565b5b8181101562000c395762000c2d5f8262000bfb565b60018101905062000c18565b5050565b601f82111562000c885762000c528162000b08565b62000c5d8462000b1a565b8101602085101562000c6d578190505b62000c8562000c7c8562000b1a565b83018262000c17565b50505b505050565b5f82821c905092915050565b5f62000caa5f198460080262000c8d565b1980831691505092915050565b5f62000cc4838362000c99565b9150826002028217905092915050565b62000cdf8262000a70565b67ffffffffffffffff81111562000cfb5762000cfa62000a7a565b5b62000d07825462000ad4565b62000d1482828562000c3d565b5f60209050601f83116001811462000d4a575f841562000d35578287015190505b62000d41858262000cb7565b86555062000db0565b601f19841662000d5a8662000b08565b5f5b8281101562000d835784890151825560018201915060208501945060208101905062000d5c565b8683101562000da3578489015162000d9f601f89168262000c99565b8355505b6001600288020188555050505b505050505050565b5f819050919050565b62000dcc8162000db8565b82525050565b62000ddd8162000b8a565b82525050565b62000dee81620009eb565b82525050565b5f60a08201905062000e095f83018862000dc1565b62000e18602083018762000dc1565b62000e27604083018662000dc1565b62000e36606083018562000dd2565b62000e45608083018462000de3565b9695505050505050565b5f60408201905062000e645f83018562000dd2565b62000e73602083018462000dd2565b9392505050565b5f82825260208201905092915050565b5f5b8381101562000ea957808201518184015260208101905062000e8c565b5f8484015250505050565b5f601f19601f8301169050919050565b5f62000ed08262000a70565b62000edc818562000e7a565b935062000eee81856020860162000e8a565b62000ef98162000eb4565b840191505092915050565b5f6020820190508181035f83015262000f1e818462000ec4565b905092915050565b5f81519050919050565b5f819050602082019050919050565b5f62000f4c825162000db8565b80915050919050565b5f62000f618262000f26565b8262000f6d8462000f30565b905062000f7a8162000f3f565b9250602082101562000fbd5762000fb87fffffffffffffffffffffffffffffffffffffffffffffffffffffffffffffffff8360200360080262000b29565b831692505b5050919050565b5f65ffffffffffff82169050919050565b62000fe08162000fc4565b811462000feb575f80fd5b50565b5f8151905062000ffe8162000fd5565b92915050565b5f602082840312156200101c576200101b620009c8565b5b5f6200102b8482850162000fee565b91505092915050565b5f819050919050565b5f60ff82169050919050565b5f62001069620010636200105d8462001034565b62000b93565b6200103d565b9050919050565b6200107b8162001049565b82525050565b5f604082019050620010965f83018562001070565b620010a5602083018462000dd2565b9392505050565b7f4e487b71000000000000000000000000000000000000000000000000000000005f52601160045260245ffd5b5f620010e58262000b8a565b9150620010f28362000b8a565b92508282039050818111156200110d576200110c620010ac565b5b92915050565b5f819050919050565b5f6200113c62001136620011308462001113565b62000b93565b6200103d565b9050919050565b6200114e816200111c565b82525050565b5f604082019050620011695f83018562001143565b62001178602083018462000dd2565b9392505050565b60805160a05160c05160e05161010051610120516101405161016051616218620011db5f395f611fb001525f612e3e01525f612e0301525f613d9d01525f613d7c01525f61323e01525f61329401525f6132bd01526162185ff3fe60806040526004361061027f575f3560e01c80636e1d32a81161014e578063ab58fb8e116100c0578063dd4e2ba511610079578063dd4e2ba514610b46578063deaaa7cc14610b70578063eb9019d414610b9a578063f23a6e6114610bd6578063f8ce560a14610c12578063fc0c546a14610c4e576102f2565b8063ab58fb8e14610a10578063b58131b014610a4c578063bc197c8114610a76578063c01f9e3714610ab2578063c28bc2fa14610aee578063c59057e414610b0a576102f2565b80638ff262e3116101125780638ff262e3146108de57806391ddadf41461091a57806397c3d334146109445780639a802a6d1461096e578063a7713a70146109aa578063a9a95294146109d4576102f2565b80636e1d32a8146107be5780637b3c71d3146107fa5780637d5e81e2146108365780637ecebe001461087257806384b0196e146108ae576102f2565b80633932abb1116101f2578063544ffc9c116101ab578063544ffc9c1461066657806354fd4d50146106a457806356781388146106ce5780635b8d0e0d1461070a5780635f398a141461074657806360c4247f14610782576102f2565b80633932abb1146105345780633e4f49e61461055e578063406ef0381461059a57806343859632146105c4578063452115d6146106005780634bf5d7e91461063c576102f2565b8063143489d011610244578063143489d0146103ea578063150b7a0214610426578063160cbed7146104625780632656227d1461049e5780632d63f693146104ce5780632fe3e2611461050a576102f2565b80627a52f9146102f657806301ffc9a71461033257806302a251a31461036e57806306f3f9e61461039857806306fdde03146103c0576102f2565b366102f2573073ffffffffffffffffffffffffffffffffffffffff166102a3610c78565b73ffffffffffffffffffffffffffffffffffffffff16146102f0576040517fe90a651e00000000000000000000000000000000000000000000000000000000815260040160405180910390fd5b005b5f80fd5b348015610301575f80fd5b5061031c60048036038101906103179190614582565b610c7f565b6040516103299190614665565b60405180910390f35b34801561033d575f80fd5b50610358600480360381019061035391906146d3565b610c9d565b6040516103659190614718565b60405180910390f35b348015610379575f80fd5b50610382610d7e565b60405161038f9190614665565b60405180910390f35b3480156103a3575f80fd5b506103be60048036038101906103b99190614731565b610d86565b005b3480156103cb575f80fd5b506103d4610d9a565b6040516103e191906147d6565b60405180910390f35b3480156103f5575f80fd5b50610410600480360381019061040b9190614731565b610e2a565b60405161041d9190614805565b60405180910390f35b348015610431575f80fd5b5061044c6004803603810190610447919061481e565b610e65565b60405161045991906148ad565b60405180910390f35b34801561046d575f80fd5b50610488600480360381019061048391906148f9565b610ee4565b6040516104959190614665565b60405180910390f35b6104b860048036038101906104b391906148f9565b610fda565b6040516104c59190614665565b60405180910390f35b3480156104d9575f80fd5b506104f460048036038101906104ef9190614731565b6111ba565b6040516105019190614665565b60405180910390f35b348015610515575f80fd5b5061051e6111f0565b60405161052b91906149c0565b60405180910390f35b34801561053f575f80fd5b50610548611214565b6040516105559190614665565b60405180910390f35b348015610569575f80fd5b50610584600480360381019061057f9190614731565b61121c565b6040516105919190614a4c565b60405180910390f35b3480156105a5575f80fd5b506105ae611373565b6040516105bb9190614a85565b60405180910390f35b3480156105cf575f80fd5b506105ea60048036038101906105e59190614a9e565b611382565b6040516105f79190614718565b60405180910390f35b34801561060b575f80fd5b50610626600480360381019061062191906148f9565b6113e7565b6040516106339190614665565b60405180910390f35b348015610647575f80fd5b506106506114a7565b60405161065d91906147d6565b60405180910390f35b348015610671575f80fd5b5061068c60048036038101906106879190614731565b611564565b60405161069b93929190614adc565b60405180910390f35b3480156106af575f80fd5b506106b8611597565b6040516106c591906147d6565b60405180910390f35b3480156106d9575f80fd5b506106f460048036038101906106ef9190614b47565b6115d4565b6040516107019190614665565b60405180910390f35b348015610715575f80fd5b50610730600480360381019061072b9190614bde565b611603565b60405161073d9190614665565b60405180910390f35b348015610751575f80fd5b5061076c60048036038101906107679190614cc0565b611732565b6040516107799190614665565b60405180910390f35b34801561078d575f80fd5b506107a860048036038101906107a39190614731565b61179a565b6040516107b59190614665565b60405180910390f35b3480156107c9575f80fd5b506107e460048036038101906107df91906148f9565b611893565b6040516107f19190614665565b60405180910390f35b348015610805575f80fd5b50610820600480360381019061081b9190614d60565b6118cd565b60405161082d9190614665565b60405180910390f35b348015610841575f80fd5b5061085c60048036038101906108579190614582565b611933565b6040516108699190614665565b60405180910390f35b34801561087d575f80fd5b5061089860048036038101906108939190614dd1565b611a20565b6040516108a59190614665565b60405180910390f35b3480156108b9575f80fd5b506108c2611a66565b6040516108d59796959493929190614eed565b60405180910390f35b3480156108e9575f80fd5b5061090460048036038101906108ff9190614f6f565b611b0b565b6040516109119190614665565b60405180910390f35b348015610925575f80fd5b5061092e611bdf565b60405161093b9190614a85565b60405180910390f35b34801561094f575f80fd5b50610958611c6a565b6040516109659190614665565b60405180910390f35b348015610979575f80fd5b50610994600480360381019061098f9190614fef565b611c72565b6040516109a19190614665565b60405180910390f35b3480156109b5575f80fd5b506109be611c87565b6040516109cb9190614665565b60405180910390f35b3480156109df575f80fd5b506109fa60048036038101906109f59190614731565b611cb3565b604051610a079190614718565b60405180910390f35b348015610a1b575f80fd5b50610a366004803603810190610a319190614731565b611cb9565b604051610a439190614665565b60405180910390f35b348015610a57575f80fd5b50610a60611cef565b604051610a6d9190614665565b60405180910390f35b348015610a81575f80fd5b50610a9c6004803603810190610a97919061505b565b611cf3565b604051610aa991906148ad565b60405180910390f35b348015610abd575f80fd5b50610ad86004803603810190610ad39190614731565b611d73565b604051610ae59190614665565b60405180910390f35b610b086004803603810190610b03919061517b565b611ddd565b005b348015610b15575f80fd5b50610b306004803603810190610b2b91906148f9565b611e66565b604051610b3d9190614665565b60405180910390f35b348015610b51575f80fd5b50610b5a611ea0565b604051610b6791906147d6565b60405180910390f35b348015610b7b575f80fd5b50610b84611edd565b604051610b9191906149c0565b60405180910390f35b348015610ba5575f80fd5b50610bc06004803603810190610bbb91906151ec565b611f01565b604051610bcd9190614665565b60405180910390f35b348015610be1575f80fd5b50610bfc6004803603810190610bf7919061522a565b611f1c565b604051610c0991906148ad565b60405180910390f35b348015610c1d575f80fd5b50610c386004803603810190610c339190614731565b611f9c565b604051610c459190614665565b60405180910390f35b348015610c59575f80fd5b50610c62611fad565b604051610c6f9190615318565b60405180910390f35b5f30905090565b5f610c938585858580519060200120611e66565b9050949350505050565b5f7f65455a86000000000000000000000000000000000000000000000000000000007bffffffffffffffffffffffffffffffffffffffffffffffffffffffff1916827bffffffffffffffffffffffffffffffffffffffffffffffffffffffff19161480610d6757507f4e2312e0000000000000000000000000000000000000000000000000000000007bffffffffffffffffffffffffffffffffffffffffffffffffffffffff1916827bffffffffffffffffffffffffffffffffffffffffffffffffffffffff1916145b80610d775750610d7682611fd4565b5b9050919050565b5f6003905090565b610d8e61203d565b610d9781612132565b50565b606060038054610da99061535e565b80601f0160208091040260200160405190810160405280929190818152602001828054610dd59061535e565b8015610e205780601f10610df757610100808354040283529160200191610e20565b820191905f5260205f20905b815481529060010190602001808311610e0357829003601f168201915b5050505050905090565b5f60045f8381526020019081526020015f205f015f9054906101000a900473ffffffffffffffffffffffffffffffffffffffff169050919050565b5f3073ffffffffffffffffffffffffffffffffffffffff16610e85610c78565b73ffffffffffffffffffffffffffffffffffffffff1614610ed2576040517fe90a651e00000000000000000000000000000000000000000000000000000000815260040160405180910390fd5b63150b7a0260e01b9050949350505050565b5f80610ef286868686611e66565b9050610f0781610f0260046121f4565b612218565b505f610f168288888888612283565b90505f8165ffffffffffff1614610f9b578060045f8481526020019081526020015f206001015f6101000a81548165ffffffffffff021916908365ffffffffffff1602179055507f9a2e42fd6722813d69113e7d0079d3d940171428df7373df9c7f7617cfda28928282604051610f8e9291906153be565b60405180910390a1610fcd565b6040517f90884a4600000000000000000000000000000000000000000000000000000000815260040160405180910390fd5b8192505050949350505050565b5f80610fe886868686611e66565b905061100881610ff860056121f4565b61100260046121f4565b17612218565b50600160045f8381526020019081526020015f205f01601e6101000a81548160ff0219169083151502179055503073ffffffffffffffffffffffffffffffffffffffff16611054610c78565b73ffffffffffffffffffffffffffffffffffffffff1614611110575f5b865181101561110e573073ffffffffffffffffffffffffffffffffffffffff168782815181106110a4576110a36153e5565b5b602002602001015173ffffffffffffffffffffffffffffffffffffffff16036110fd576110fc8582815181106110dd576110dc6153e5565b5b602002602001015180519060200120600561228d90919063ffffffff16565b5b806111079061543f565b9050611071565b505b61111d81878787876123ac565b3073ffffffffffffffffffffffffffffffffffffffff1661113c610c78565b73ffffffffffffffffffffffffffffffffffffffff161415801561116757506111656005612497565b155b15611177576111766005612503565b5b7f712ae1383f79ac853f8d882153778e0260ef8f03b504e2866e0593e04d2b291f816040516111a69190614665565b60405180910390a180915050949350505050565b5f60045f8381526020019081526020015f205f0160149054906101000a900465ffffffffffff1665ffffffffffff169050919050565b7f3e83946653575f9a39005e1545185629e92736b7528ab20ca3816f315424a81181565b5f6001905090565b5f8060045f8481526020019081526020015f2090505f815f01601e9054906101000a900460ff1690505f825f01601f9054906101000a900460ff169050811561126b576007935050505061136e565b801561127d576002935050505061136e565b5f611287866111ba565b90505f81036112cd57856040517f6ad060750000000000000000000000000000000000000000000000000000000081526004016112c49190614665565b60405180910390fd5b5f6112d6611bdf565b65ffffffffffff1690508082106112f4575f9550505050505061136e565b5f6112fe88611d73565b9050818110611316576001965050505050505061136e565b61131f88612579565b1580611331575061132f886125bd565b155b15611345576003965050505050505061136e565b5f61134f89611cb9565b03611363576004965050505050505061136e565b600596505050505050505b919050565b5f61137d436125e4565b905090565b5f60075f8481526020019081526020015f206003015f8373ffffffffffffffffffffffffffffffffffffffff1673ffffffffffffffffffffffffffffffffffffffff1681526020019081526020015f205f9054906101000a900460ff16905092915050565b5f806113f586868686611e66565b9050611409816114045f6121f4565b612218565b5061141381610e2a565b73ffffffffffffffffffffffffffffffffffffffff1661143161263d565b73ffffffffffffffffffffffffffffffffffffffff16146114905761145461263d565b6040517f233d98e30000000000000000000000000000000000000000000000000000000081526004016114879190614805565b60405180910390fd5b61149c86868686612644565b915050949350505050565b60606114b1611fad565b73ffffffffffffffffffffffffffffffffffffffff16634bf5d7e96040518163ffffffff1660e01b81526004015f60405180830381865afa92505050801561151b57506040513d5f823e3d601f19601f8201168201806040525081019061151891906154f4565b60015b61155c576040518060400160405280601d81526020017f6d6f64653d626c6f636b6e756d6265722666726f6d3d64656661756c740000008152509050611561565b809150505b90565b5f805f8060075f8681526020019081526020015f209050805f015481600101548260020154935093509350509193909250565b60606040518060400160405280600181526020017f3100000000000000000000000000000000000000000000000000000000000000815250905090565b5f806115de61263d565b90506115fa84828560405180602001604052805f815250612726565b91505092915050565b5f806116908761168a7f3e83946653575f9a39005e1545185629e92736b7528ab20ca3816f315424a8118c8c8c6116398e612745565b8d8d604051611649929190615569565b60405180910390208c8051906020012060405160200161166f9796959493929190615590565b60405160208183030381529060405280519060200120612798565b856127b1565b9050806116d457866040517f94ab6c070000000000000000000000000000000000000000000000000000000081526004016116cb9190614805565b60405180910390fd5b61172489888a89898080601f0160208091040260200160405190810160405280939291908181526020018383808284375f81840152601f19601f820116905080830192505050505050508861283e565b915050979650505050505050565b5f8061173c61263d565b905061178e87828888888080601f0160208091040260200160405190810160405280939291908181526020018383808284375f81840152601f19601f820116905080830192505050505050508761283e565b91505095945050505050565b5f8060085f018054905090505f60085f016001836117b891906155fd565b815481106117c9576117c86153e5565b5b905f5260205f200190505f815f015f9054906101000a900465ffffffffffff1690505f825f0160069054906101000a900479ffffffffffffffffffffffffffffffffffffffffffffffffffff169050858265ffffffffffff161161184f578079ffffffffffffffffffffffffffffffffffffffffffffffffffff1694505050505061188e565b61186b61185b876125e4565b600861293b90919063ffffffff16565b79ffffffffffffffffffffffffffffffffffffffffffffffffffff169450505050505b919050565b5f848484846040516020016118ab94939291906157f4565b604051602081830303815290604052805190602001205f1c9050949350505050565b5f806118d761263d565b905061192886828787878080601f0160208091040260200160405190810160405280939291908181526020018383808284375f81840152601f19601f82011690508083019250505050505050612726565b915050949350505050565b5f8061193d61263d565b90506119498184612a28565b61198a57806040517fd9b395570000000000000000000000000000000000000000000000000000000081526004016119819190614805565b60405180910390fd5b5f6119b0826001611999611bdf565b6119a3919061584c565b65ffffffffffff16611f01565b90505f6119bb611cef565b905080821015611a06578282826040517fc242ee160000000000000000000000000000000000000000000000000000000081526004016119fd93929190615885565b60405180910390fd5b611a138888888887612b76565b9350505050949350505050565b5f60025f8373ffffffffffffffffffffffffffffffffffffffff1673ffffffffffffffffffffffffffffffffffffffff1681526020019081526020015f20549050919050565b5f6060805f805f6060611a77612dfb565b611a7f612e35565b46305f801b5f67ffffffffffffffff811115611a9e57611a9d6140cd565b5b604051908082528060200260200182016040528015611acc5781602001602082028036833780820191505090505b507f0f00000000000000000000000000000000000000000000000000000000000000959493929190965096509650965096509650965090919293949596565b5f80611b7684611b707ff2aad550cf55f045cb27e9c559f9889fdfb6e6cdaa032301d6ea397784ae51d7898989611b418b612745565b604051602001611b559594939291906158ba565b60405160208183030381529060405280519060200120612798565b856127b1565b905080611bba57836040517f94ab6c07000000000000000000000000000000000000000000000000000000008152600401611bb19190614805565b60405180910390fd5b611bd486858760405180602001604052805f815250612726565b915050949350505050565b5f611be8611fad565b73ffffffffffffffffffffffffffffffffffffffff166391ddadf46040518163ffffffff1660e01b8152600401602060405180830381865afa925050508015611c4f57506040513d601f19601f82011682018060405250810190611c4c9190615935565b60015b611c6257611c5b612e70565b9050611c67565b809150505b90565b5f6064905090565b5f611c7e848484612e7f565b90509392505050565b5f611c926008612f0a565b79ffffffffffffffffffffffffffffffffffffffffffffffffffff16905090565b5f919050565b5f60045f8381526020019081526020015f206001015f9054906101000a900465ffffffffffff1665ffffffffffff169050919050565b5f90565b5f3073ffffffffffffffffffffffffffffffffffffffff16611d13610c78565b73ffffffffffffffffffffffffffffffffffffffff1614611d60576040517fe90a651e00000000000000000000000000000000000000000000000000000000815260040160405180910390fd5b63bc197c8160e01b905095945050505050565b5f60045f8381526020019081526020015f205f01601a9054906101000a900463ffffffff1663ffffffff1660045f8481526020019081526020015f205f0160149054906101000a900465ffffffffffff16611dce9190615960565b65ffffffffffff169050919050565b611de561203d565b5f808573ffffffffffffffffffffffffffffffffffffffff16858585604051611e0f929190615569565b5f6040518083038185875af1925050503d805f8114611e49576040519150601f19603f3d011682016040523d82523d5f602084013e611e4e565b606091505b5091509150611e5d8282612f6c565b50505050505050565b5f84848484604051602001611e7e94939291906157f4565b604051602081830303815290604052805190602001205f1c9050949350505050565b60606040518060400160405280602081526020017f737570706f72743d627261766f2671756f72756d3d666f722c6162737461696e815250905090565b7ff2aad550cf55f045cb27e9c559f9889fdfb6e6cdaa032301d6ea397784ae51d781565b5f611f148383611f0f612f90565b612e7f565b905092915050565b5f3073ffffffffffffffffffffffffffffffffffffffff16611f3c610c78565b73ffffffffffffffffffffffffffffffffffffffff1614611f89576040517fe90a651e00000000000000000000000000000000000000000000000000000000815260040160405180910390fd5b63f23a6e6160e01b905095945050505050565b5f611fa682612fa6565b9050919050565b5f7f0000000000000000000000000000000000000000000000000000000000000000905090565b5f7f01ffc9a7000000000000000000000000000000000000000000000000000000007bffffffffffffffffffffffffffffffffffffffffffffffffffffffff1916827bffffffffffffffffffffffffffffffffffffffffffffffffffffffff1916149050919050565b61204561263d565b73ffffffffffffffffffffffffffffffffffffffff16612063610c78565b73ffffffffffffffffffffffffffffffffffffffff16146120c25761208661263d565b6040517f47096e470000000000000000000000000000000000000000000000000000000081526004016120b99190614805565b60405180910390fd5b3073ffffffffffffffffffffffffffffffffffffffff166120e1610c78565b73ffffffffffffffffffffffffffffffffffffffff1614612130575f612105613052565b604051612113929190615569565b604051809103902090505b80612129600561305e565b0361211e57505b565b5f61213b611c6a565b9050808211156121845781816040517f243e544500000000000000000000000000000000000000000000000000000000815260040161217b929190615999565b60405180910390fd5b5f61218d611c87565b90506121b461219a611bdf565b6121a3856131b3565b60086132209092919063ffffffff16565b50507f0553476bf02ef2726e8ce5ced78d63e26e602e4a2257b1f559418e24b463399781846040516121e7929190615999565b60405180910390a1505050565b5f816007811115612208576122076149d9565b5b60ff166001901b5f1b9050919050565b5f806122238461121c565b90505f801b83612232836121f4565b1603612279578381846040517f31b75e4d000000000000000000000000000000000000000000000000000000008152600401612270939291906159c0565b60405180910390fd5b8091505092915050565b5f95945050505050565b5f825f0160109054906101000a90046fffffffffffffffffffffffffffffffff169050825f015f9054906101000a90046fffffffffffffffffffffffffffffffff166fffffffffffffffffffffffffffffffff16600182016fffffffffffffffffffffffffffffffff160361232e576040517f8acb5f2700000000000000000000000000000000000000000000000000000000815260040160405180910390fd5b81836001015f836fffffffffffffffffffffffffffffffff166fffffffffffffffffffffffffffffffff1681526020019081526020015f208190555060018101835f0160106101000a8154816fffffffffffffffffffffffffffffffff02191690836fffffffffffffffffffffffffffffffff160217905550505050565b5f5b845181101561248f575f808683815181106123cc576123cb6153e5565b5b602002602001015173ffffffffffffffffffffffffffffffffffffffff168684815181106123fd576123fc6153e5565b5b6020026020010151868581518110612418576124176153e5565b5b602002602001015160405161242d9190615a25565b5f6040518083038185875af1925050503d805f8114612467576040519150601f19603f3d011682016040523d82523d5f602084013e61246c565b606091505b509150915061247b8282612f6c565b505050806124889061543f565b90506123ae565b505050505050565b5f815f015f9054906101000a90046fffffffffffffffffffffffffffffffff166fffffffffffffffffffffffffffffffff16825f0160109054906101000a90046fffffffffffffffffffffffffffffffff166fffffffffffffffffffffffffffffffff16149050919050565b5f815f015f6101000a8154816fffffffffffffffffffffffffffffffff02191690836fffffffffffffffffffffffffffffffff1602179055505f815f0160106101000a8154816fffffffffffffffffffffffffffffffff02191690836fffffffffffffffffffffffffffffffff16021790555050565b5f8060075f8481526020019081526020015f209050806002015481600101546125a29190615a3b565b6125b36125ae856111ba565b611f9c565b1115915050919050565b5f8060075f8481526020019081526020015f209050805f0154816001015411915050919050565b5f65ffffffffffff8016821115612635576030826040517f6dfcc65000000000000000000000000000000000000000000000000000000000815260040161262c929190615aa7565b60405180910390fd5b819050919050565b5f33905090565b5f8061265286868686611e66565b90506126b68161266260076121f4565b61266c60066121f4565b61267660026121f4565b60018060078081111561268c5761268b6149d9565b5b6126969190615ace565b60026126a29190615c31565b6126ac91906155fd565b5f1b181818612218565b50600160045f8381526020019081526020015f205f01601f6101000a81548160ff0219169083151502179055507f789cf55be980739dad1d0699b93b58e806b51c9d96619bfa8fe0a28abaa7b30c816040516127129190614665565b60405180910390a180915050949350505050565b5f61273b85858585612736612f90565b61283e565b9050949350505050565b5f60025f8373ffffffffffffffffffffffffffffffffffffffff1673ffffffffffffffffffffffffffffffffffffffff1681526020019081526020015f205f815480929190600101919050559050919050565b5f6127aa6127a461323b565b836132f1565b9050919050565b5f805f6127be8585613331565b50915091505f60038111156127d6576127d56149d9565b5b8160038111156127e9576127e86149d9565b5b14801561282157508573ffffffffffffffffffffffffffffffffffffffff168273ffffffffffffffffffffffffffffffffffffffff16145b806128335750612832868686613386565b5b925050509392505050565b5f6128528661284d60016121f4565b612218565b505f61286786612861896111ba565b85612e7f565b905061287687878784876134a5565b5f8351036128d7578573ffffffffffffffffffffffffffffffffffffffff167fb8e138887d0aa13bab447e82de9d5c1777041ecd21ca36ba824ff1e6c07ddda4888784886040516128ca9493929190615c7b565b60405180910390a261292e565b8573ffffffffffffffffffffffffffffffffffffffff167fe2babfbac5889a709b63bb7f598b324e08bc5a4fb9ec647fb3cbc9ec07eb87128887848888604051612925959493929190615d0d565b60405180910390a25b8091505095945050505050565b5f80835f018054905090505f8082905060058311156129bc575f61295e84613694565b8461296991906155fd565b9050612977875f018261378a565b5f015f9054906101000a900465ffffffffffff1665ffffffffffff168665ffffffffffff1610156129aa578091506129ba565b6001816129b79190615a3b565b92505b505b5f6129cb875f0187858561379c565b90505f8114612a1a576129ec875f016001836129e791906155fd565b61378a565b5f0160069054906101000a900479ffffffffffffffffffffffffffffffffffffffffffffffffffff16612a1c565b5f5b94505050505092915050565b5f80825190506034811015612a41576001915050612b70565b5f6014820384015190507f2370726f706f7365723d3078000000000000000000000000000000000000000073ffffffffffffffffffffffffffffffffffffffff19168173ffffffffffffffffffffffffffffffffffffffff191614612aab57600192505050612b70565b5f80602884612aba91906155fd565b90505b83811015612b3a575f80612aed888481518110612add57612adc6153e5565b5b602001015160f81c60f81b613811565b9150915081612b055760019650505050505050612b70565b8060ff1660048573ffffffffffffffffffffffffffffffffffffffff16901b179350505080612b339061543f565b9050612abd565b508573ffffffffffffffffffffffffffffffffffffffff168173ffffffffffffffffffffffffffffffffffffffff161493505050505b92915050565b5f612b8a8686868680519060200120611e66565b905084518651141580612b9f57508351865114155b80612baa57505f8651145b15612bf3578551845186516040517f447b05d0000000000000000000000000000000000000000000000000000000008152600401612bea93929190614adc565b60405180910390fd5b5f60045f8381526020019081526020015f205f0160149054906101000a900465ffffffffffff1665ffffffffffff1614612c725780612c318261121c565b5f801b6040517f31b75e4d000000000000000000000000000000000000000000000000000000008152600401612c69939291906159c0565b60405180910390fd5b5f612c7b611214565b612c83611bdf565b65ffffffffffff16612c959190615a3b565b90505f612ca0610d7e565b90505f60045f8581526020019081526020015f20905084815f015f6101000a81548173ffffffffffffffffffffffffffffffffffffffff021916908373ffffffffffffffffffffffffffffffffffffffff160217905550612d00836125e4565b815f0160146101000a81548165ffffffffffff021916908365ffffffffffff160217905550612d2e826138a8565b815f01601a6101000a81548163ffffffff021916908363ffffffff1602179055507f7d84a6263ae0d98d3329bd7b46bb4e8d6f98cd35a7adb45c274c8b7fd5ebd5e084868b8b8d5167ffffffffffffffff811115612d8f57612d8e6140cd565b5b604051908082528060200260200182016040528015612dc257816020015b6060815260200190600190039081612dad5790505b508c89898b612dd19190615a3b565b8e604051612de799989796959493929190615e6f565b60405180910390a150505095945050505050565b6060612e305f7f00000000000000000000000000000000000000000000000000000000000000006138ff90919063ffffffff16565b905090565b6060612e6b60017f00000000000000000000000000000000000000000000000000000000000000006138ff90919063ffffffff16565b905090565b5f612e7a436125e4565b905090565b5f612e88611fad565b73ffffffffffffffffffffffffffffffffffffffff16633a46b1a885856040518363ffffffff1660e01b8152600401612ec2929190615f1d565b602060405180830381865afa158015612edd573d5f803e3d5ffd5b505050506040513d601f19601f82011682018060405250810190612f019190615f58565b90509392505050565b5f80825f018054905090505f8114612f6257612f34835f01600183612f2f91906155fd565b61378a565b5f0160069054906101000a900479ffffffffffffffffffffffffffffffffffffffffffffffffffff16612f64565b5f5b915050919050565b606082612f8157612f7c826139ac565b612f89565b819050612f8a565b5b92915050565b606060405180602001604052805f815250905090565b5f612faf611c6a565b612fb88361179a565b612fc0611fad565b73ffffffffffffffffffffffffffffffffffffffff16638e539e8c856040518263ffffffff1660e01b8152600401612ff89190614665565b602060405180830381865afa158015613013573d5f803e3d5ffd5b505050506040513d601f19601f820116820180604052508101906130379190615f58565b6130419190615f83565b61304b9190615ff1565b9050919050565b365f8036915091509091565b5f80825f015f9054906101000a90046fffffffffffffffffffffffffffffffff169050825f0160109054906101000a90046fffffffffffffffffffffffffffffffff166fffffffffffffffffffffffffffffffff16816fffffffffffffffffffffffffffffffff16036130fd576040517f75e52f4f00000000000000000000000000000000000000000000000000000000815260040160405180910390fd5b826001015f826fffffffffffffffffffffffffffffffff166fffffffffffffffffffffffffffffffff1681526020019081526020015f20549150826001015f826fffffffffffffffffffffffffffffffff166fffffffffffffffffffffffffffffffff1681526020019081526020015f205f905560018101835f015f6101000a8154816fffffffffffffffffffffffffffffffff02191690836fffffffffffffffffffffffffffffffff16021790555050919050565b5f79ffffffffffffffffffffffffffffffffffffffffffffffffffff80168211156132185760d0826040517f6dfcc65000000000000000000000000000000000000000000000000000000000815260040161320f92919061605a565b60405180910390fd5b819050919050565b5f8061322f855f0185856139f0565b91509150935093915050565b5f7f000000000000000000000000000000000000000000000000000000000000000073ffffffffffffffffffffffffffffffffffffffff163073ffffffffffffffffffffffffffffffffffffffff161480156132b657507f000000000000000000000000000000000000000000000000000000000000000046145b156132e3577f000000000000000000000000000000000000000000000000000000000000000090506132ee565b6132eb613d58565b90505b90565b5f6040517f190100000000000000000000000000000000000000000000000000000000000081528360028201528260228201526042812091505092915050565b5f805f6041845103613371575f805f602087015192506040870151915060608701515f1a905061336388828585613ded565b95509550955050505061337f565b5f600285515f1b9250925092505b9250925092565b5f805f8573ffffffffffffffffffffffffffffffffffffffff1685856040516024016133b3929190616081565b604051602081830303815290604052631626ba7e60e01b6020820180517bffffffffffffffffffffffffffffffffffffffffffffffffffffffff83818316178352505050506040516134059190615a25565b5f60405180830381855afa9150503d805f811461343d576040519150601f19603f3d011682016040523d82523d5f602084013e613442565b606091505b509150915081801561345657506020815110155b801561349a5750631626ba7e60e01b7bffffffffffffffffffffffffffffffffffffffffffffffffffffffff19168180602001905181019061349891906160c3565b145b925050509392505050565b5f60075f8781526020019081526020015f209050806003015f8673ffffffffffffffffffffffffffffffffffffffff1673ffffffffffffffffffffffffffffffffffffffff1681526020019081526020015f205f9054906101000a900460ff161561354757846040517f71c6af4900000000000000000000000000000000000000000000000000000000815260040161353e9190614805565b60405180910390fd5b6001816003015f8773ffffffffffffffffffffffffffffffffffffffff1673ffffffffffffffffffffffffffffffffffffffff1681526020019081526020015f205f6101000a81548160ff0219169083151502179055505f60028111156135b1576135b06149d9565b5b60ff168460ff16036135db5782815f015f8282546135cf9190615a3b565b9250508190555061368c565b600160028111156135ef576135ee6149d9565b5b60ff168460ff160361361a5782816001015f82825461360e9190615a3b565b9250508190555061368b565b60028081111561362d5761362c6149d9565b5b60ff168460ff16036136585782816002015f82825461364c9190615a3b565b9250508190555061368a565b6040517f06b337c200000000000000000000000000000000000000000000000000000000815260040160405180910390fd5b5b5b505050505050565b5f8082036136a4575f9050613785565b5f60016136b084613ed4565b901c6001901b905060018184816136ca576136c9615fc4565b5b048201901c905060018184816136e3576136e2615fc4565b5b048201901c905060018184816136fc576136fb615fc4565b5b048201901c9050600181848161371557613714615fc4565b5b048201901c9050600181848161372e5761372d615fc4565b5b048201901c9050600181848161374757613746615fc4565b5b048201901c905060018184816137605761375f615fc4565b5b048201901c90506137818182858161377b5761377a615fc4565b5b04613fab565b9150505b919050565b5f825f528160205f2001905092915050565b5f5b81831015613806575f6137b18484613fc3565b90508465ffffffffffff166137c6878361378a565b5f015f9054906101000a900465ffffffffffff1665ffffffffffff1611156137f057809250613800565b6001816137fd9190615a3b565b93505b5061379e565b819050949350505050565b5f805f8360f81c90508060ff16602f1080156138305750603a8160ff16105b156138455760016030820392509250506138a3565b8060ff16604010801561385b575060478160ff16105b156138705760016037820392509250506138a3565b8060ff166060108015613886575060678160ff16105b1561389b5760016057820392509250506138a3565b5f8092509250505b915091565b5f63ffffffff80168211156138f7576020826040517f6dfcc6500000000000000000000000000000000000000000000000000000000081526004016138ee929190616127565b60405180910390fd5b819050919050565b606060ff5f1b831461391b5761391483613fe8565b90506139a6565b8180546139279061535e565b80601f01602080910402602001604051908101604052809291908181526020018280546139539061535e565b801561399e5780601f106139755761010080835404028352916020019161399e565b820191905f5260205f20905b81548152906001019060200180831161398157829003601f168201915b505050505090505b92915050565b5f815111156139be5780518082602001fd5b6040517f1425ea4200000000000000000000000000000000000000000000000000000000815260040160405180910390fd5b5f805f858054905090505f811115613c70575f613a1987600184613a1491906155fd565b61378a565b6040518060400160405290815f82015f9054906101000a900465ffffffffffff1665ffffffffffff1665ffffffffffff1681526020015f820160069054906101000a900479ffffffffffffffffffffffffffffffffffffffffffffffffffff1679ffffffffffffffffffffffffffffffffffffffffffffffffffff1679ffffffffffffffffffffffffffffffffffffffffffffffffffff168152505090508565ffffffffffff16815f015165ffffffffffff161115613b04576040517f2520601d00000000000000000000000000000000000000000000000000000000815260040160405180910390fd5b8565ffffffffffff16815f015165ffffffffffff1603613b865784613b3588600185613b3091906155fd565b61378a565b5f0160066101000a81548179ffffffffffffffffffffffffffffffffffffffffffffffffffff021916908379ffffffffffffffffffffffffffffffffffffffffffffffffffff160217905550613c5f565b8660405180604001604052808865ffffffffffff1681526020018779ffffffffffffffffffffffffffffffffffffffffffffffffffff16815250908060018154018082558091505060019003905f5260205f20015f909190919091505f820151815f015f6101000a81548165ffffffffffff021916908365ffffffffffff1602179055506020820151815f0160066101000a81548179ffffffffffffffffffffffffffffffffffffffffffffffffffff021916908379ffffffffffffffffffffffffffffffffffffffffffffffffffff16021790555050505b806020015185935093505050613d50565b8560405180604001604052808765ffffffffffff1681526020018679ffffffffffffffffffffffffffffffffffffffffffffffffffff16815250908060018154018082558091505060019003905f5260205f20015f909190919091505f820151815f015f6101000a81548165ffffffffffff021916908365ffffffffffff1602179055506020820151815f0160066101000a81548179ffffffffffffffffffffffffffffffffffffffffffffffffffff021916908379ffffffffffffffffffffffffffffffffffffffffffffffffffff16021790555050505f8492509250505b935093915050565b5f7f8b73c3c69bb8fe3d512ecc4cf759cc79239f7b179b0ffacaa9a75d522b39400f7f00000000000000000000000000000000000000000000000000000000000000007f00000000000000000000000000000000000000000000000000000000000000004630604051602001613dd295949392919061614e565b60405160208183030381529060405280519060200120905090565b5f805f7f7fffffffffffffffffffffffffffffff5d576e7357a4501ddfe92f46681b20a0845f1c1115613e29575f600385925092509250613eca565b5f6001888888886040515f8152602001604052604051613e4c949392919061619f565b6020604051602081039080840390855afa158015613e6c573d5f803e3d5ffd5b5050506020604051035190505f73ffffffffffffffffffffffffffffffffffffffff168173ffffffffffffffffffffffffffffffffffffffff1603613ebd575f60015f801b93509350935050613eca565b805f805f1b935093509350505b9450945094915050565b5f805f90505f608084901c1115613ef357608083901c92506080810190505b5f604084901c1115613f0d57604083901c92506040810190505b5f602084901c1115613f2757602083901c92506020810190505b5f601084901c1115613f4157601083901c92506010810190505b5f600884901c1115613f5b57600883901c92506008810190505b5f600484901c1115613f7557600483901c92506004810190505b5f600284901c1115613f8f57600283901c92506002810190505b5f600184901c1115613fa2576001810190505b80915050919050565b5f818310613fb95781613fbb565b825b905092915050565b5f6002828418613fd39190615ff1565b828416613fe09190615a3b565b905092915050565b60605f613ff48361405a565b90505f602067ffffffffffffffff811115614012576140116140cd565b5b6040519080825280601f01601f1916602001820160405280156140445781602001600182028036833780820191505090505b5090508181528360208201528092505050919050565b5f8060ff835f1c169050601f81111561409f576040517fb3512b0c00000000000000000000000000000000000000000000000000000000815260040160405180910390fd5b80915050919050565b5f604051905090565b5f80fd5b5f80fd5b5f80fd5b5f601f19601f8301169050919050565b7f4e487b71000000000000000000000000000000000000000000000000000000005f52604160045260245ffd5b614103826140bd565b810181811067ffffffffffffffff82111715614122576141216140cd565b5b80604052505050565b5f6141346140a8565b905061414082826140fa565b919050565b5f67ffffffffffffffff82111561415f5761415e6140cd565b5b602082029050602081019050919050565b5f80fd5b5f73ffffffffffffffffffffffffffffffffffffffff82169050919050565b5f61419d82614174565b9050919050565b6141ad81614193565b81146141b7575f80fd5b50565b5f813590506141c8816141a4565b92915050565b5f6141e06141db84614145565b61412b565b9050808382526020820190506020840283018581111561420357614202614170565b5b835b8181101561422c578061421888826141ba565b845260208401935050602081019050614205565b5050509392505050565b5f82601f83011261424a576142496140b9565b5b813561425a8482602086016141ce565b91505092915050565b5f67ffffffffffffffff82111561427d5761427c6140cd565b5b602082029050602081019050919050565b5f819050919050565b6142a08161428e565b81146142aa575f80fd5b50565b5f813590506142bb81614297565b92915050565b5f6142d36142ce84614263565b61412b565b905080838252602082019050602084028301858111156142f6576142f5614170565b5b835b8181101561431f578061430b88826142ad565b8452602084019350506020810190506142f8565b5050509392505050565b5f82601f83011261433d5761433c6140b9565b5b813561434d8482602086016142c1565b91505092915050565b5f67ffffffffffffffff8211156143705761436f6140cd565b5b602082029050602081019050919050565b5f80fd5b5f67ffffffffffffffff82111561439f5761439e6140cd565b5b6143a8826140bd565b9050602081019050919050565b828183375f83830152505050565b5f6143d56143d084614385565b61412b565b9050828152602081018484840111156143f1576143f0614381565b5b6143fc8482856143b5565b509392505050565b5f82601f830112614418576144176140b9565b5b81356144288482602086016143c3565b91505092915050565b5f61444361443e84614356565b61412b565b9050808382526020820190506020840283018581111561446657614465614170565b5b835b818110156144ad57803567ffffffffffffffff81111561448b5761448a6140b9565b5b8086016144988982614404565b85526020850194505050602081019050614468565b5050509392505050565b5f82601f8301126144cb576144ca6140b9565b5b81356144db848260208601614431565b91505092915050565b5f67ffffffffffffffff8211156144fe576144fd6140cd565b5b614507826140bd565b9050602081019050919050565b5f614526614521846144e4565b61412b565b90508281526020810184848401111561454257614541614381565b5b61454d8482856143b5565b509392505050565b5f82601f830112614569576145686140b9565b5b8135614579848260208601614514565b91505092915050565b5f805f806080858703121561459a576145996140b1565b5b5f85013567ffffffffffffffff8111156145b7576145b66140b5565b5b6145c387828801614236565b945050602085013567ffffffffffffffff8111156145e4576145e36140b5565b5b6145f087828801614329565b935050604085013567ffffffffffffffff811115614611576146106140b5565b5b61461d878288016144b7565b925050606085013567ffffffffffffffff81111561463e5761463d6140b5565b5b61464a87828801614555565b91505092959194509250565b61465f8161428e565b82525050565b5f6020820190506146785f830184614656565b92915050565b5f7fffffffff0000000000000000000000000000000000000000000000000000000082169050919050565b6146b28161467e565b81146146bc575f80fd5b50565b5f813590506146cd816146a9565b92915050565b5f602082840312156146e8576146e76140b1565b5b5f6146f5848285016146bf565b91505092915050565b5f8115159050919050565b614712816146fe565b82525050565b5f60208201905061472b5f830184614709565b92915050565b5f60208284031215614746576147456140b1565b5b5f614753848285016142ad565b91505092915050565b5f81519050919050565b5f82825260208201905092915050565b5f5b83811015614793578082015181840152602081019050614778565b5f8484015250505050565b5f6147a88261475c565b6147b28185614766565b93506147c2818560208601614776565b6147cb816140bd565b840191505092915050565b5f6020820190508181035f8301526147ee818461479e565b905092915050565b6147ff81614193565b82525050565b5f6020820190506148185f8301846147f6565b92915050565b5f805f8060808587031215614836576148356140b1565b5b5f614843878288016141ba565b9450506020614854878288016141ba565b9350506040614865878288016142ad565b925050606085013567ffffffffffffffff811115614886576148856140b5565b5b61489287828801614404565b91505092959194509250565b6148a78161467e565b82525050565b5f6020820190506148c05f83018461489e565b92915050565b5f819050919050565b6148d8816148c6565b81146148e2575f80fd5b50565b5f813590506148f3816148cf565b92915050565b5f805f8060808587031215614911576149106140b1565b5b5f85013567ffffffffffffffff81111561492e5761492d6140b5565b5b61493a87828801614236565b945050602085013567ffffffffffffffff81111561495b5761495a6140b5565b5b61496787828801614329565b935050604085013567ffffffffffffffff811115614988576149876140b5565b5b614994878288016144b7565b92505060606149a5878288016148e5565b91505092959194509250565b6149ba816148c6565b82525050565b5f6020820190506149d35f8301846149b1565b92915050565b7f4e487b71000000000000000000000000000000000000000000000000000000005f52602160045260245ffd5b60088110614a1757614a166149d9565b5b50565b5f819050614a2782614a06565b919050565b5f614a3682614a1a565b9050919050565b614a4681614a2c565b82525050565b5f602082019050614a5f5f830184614a3d565b92915050565b5f65ffffffffffff82169050919050565b614a7f81614a65565b82525050565b5f602082019050614a985f830184614a76565b92915050565b5f8060408385031215614ab457614ab36140b1565b5b5f614ac1858286016142ad565b9250506020614ad2858286016141ba565b9150509250929050565b5f606082019050614aef5f830186614656565b614afc6020830185614656565b614b096040830184614656565b949350505050565b5f60ff82169050919050565b614b2681614b11565b8114614b30575f80fd5b50565b5f81359050614b4181614b1d565b92915050565b5f8060408385031215614b5d57614b5c6140b1565b5b5f614b6a858286016142ad565b9250506020614b7b85828601614b33565b9150509250929050565b5f80fd5b5f8083601f840112614b9e57614b9d6140b9565b5b8235905067ffffffffffffffff811115614bbb57614bba614b85565b5b602083019150836001820283011115614bd757614bd6614170565b5b9250929050565b5f805f805f805f60c0888a031215614bf957614bf86140b1565b5b5f614c068a828b016142ad565b9750506020614c178a828b01614b33565b9650506040614c288a828b016141ba565b955050606088013567ffffffffffffffff811115614c4957614c486140b5565b5b614c558a828b01614b89565b9450945050608088013567ffffffffffffffff811115614c7857614c776140b5565b5b614c848a828b01614404565b92505060a088013567ffffffffffffffff811115614ca557614ca46140b5565b5b614cb18a828b01614404565b91505092959891949750929550565b5f805f805f60808688031215614cd957614cd86140b1565b5b5f614ce6888289016142ad565b9550506020614cf788828901614b33565b945050604086013567ffffffffffffffff811115614d1857614d176140b5565b5b614d2488828901614b89565b9350935050606086013567ffffffffffffffff811115614d4757614d466140b5565b5b614d5388828901614404565b9150509295509295909350565b5f805f8060608587031215614d7857614d776140b1565b5b5f614d85878288016142ad565b9450506020614d9687828801614b33565b935050604085013567ffffffffffffffff811115614db757614db66140b5565b5b614dc387828801614b89565b925092505092959194509250565b5f60208284031215614de657614de56140b1565b5b5f614df3848285016141ba565b91505092915050565b5f7fff0000000000000000000000000000000000000000000000000000000000000082169050919050565b614e3081614dfc565b82525050565b5f81519050919050565b5f82825260208201905092915050565b5f819050602082019050919050565b614e688161428e565b82525050565b5f614e798383614e5f565b60208301905092915050565b5f602082019050919050565b5f614e9b82614e36565b614ea58185614e40565b9350614eb083614e50565b805f5b83811015614ee0578151614ec78882614e6e565b9750614ed283614e85565b925050600181019050614eb3565b5085935050505092915050565b5f60e082019050614f005f83018a614e27565b8181036020830152614f12818961479e565b90508181036040830152614f26818861479e565b9050614f356060830187614656565b614f4260808301866147f6565b614f4f60a08301856149b1565b81810360c0830152614f618184614e91565b905098975050505050505050565b5f805f8060808587031215614f8757614f866140b1565b5b5f614f94878288016142ad565b9450506020614fa587828801614b33565b9350506040614fb6878288016141ba565b925050606085013567ffffffffffffffff811115614fd757614fd66140b5565b5b614fe387828801614404565b91505092959194509250565b5f805f60608486031215615006576150056140b1565b5b5f615013868287016141ba565b9350506020615024868287016142ad565b925050604084013567ffffffffffffffff811115615045576150446140b5565b5b61505186828701614404565b9150509250925092565b5f805f805f60a08688031215615074576150736140b1565b5b5f615081888289016141ba565b9550506020615092888289016141ba565b945050604086013567ffffffffffffffff8111156150b3576150b26140b5565b5b6150bf88828901614329565b935050606086013567ffffffffffffffff8111156150e0576150df6140b5565b5b6150ec88828901614329565b925050608086013567ffffffffffffffff81111561510d5761510c6140b5565b5b61511988828901614404565b9150509295509295909350565b5f8083601f84011261513b5761513a6140b9565b5b8235905067ffffffffffffffff81111561515857615157614b85565b5b60208301915083600182028301111561517457615173614170565b5b9250929050565b5f805f8060608587031215615193576151926140b1565b5b5f6151a0878288016141ba565b94505060206151b1878288016142ad565b935050604085013567ffffffffffffffff8111156151d2576151d16140b5565b5b6151de87828801615126565b925092505092959194509250565b5f8060408385031215615202576152016140b1565b5b5f61520f858286016141ba565b9250506020615220858286016142ad565b9150509250929050565b5f805f805f60a08688031215615243576152426140b1565b5b5f615250888289016141ba565b9550506020615261888289016141ba565b9450506040615272888289016142ad565b9350506060615283888289016142ad565b925050608086013567ffffffffffffffff8111156152a4576152a36140b5565b5b6152b088828901614404565b9150509295509295909350565b5f819050919050565b5f6152e06152db6152d684614174565b6152bd565b614174565b9050919050565b5f6152f1826152c6565b9050919050565b5f615302826152e7565b9050919050565b615312816152f8565b82525050565b5f60208201905061532b5f830184615309565b92915050565b7f4e487b71000000000000000000000000000000000000000000000000000000005f52602260045260245ffd5b5f600282049050600182168061537557607f821691505b60208210810361538857615387615331565b5b50919050565b5f6153a86153a361539e84614a65565b6152bd565b61428e565b9050919050565b6153b88161538e565b82525050565b5f6040820190506153d15f830185614656565b6153de60208301846153af565b9392505050565b7f4e487b71000000000000000000000000000000000000000000000000000000005f52603260045260245ffd5b7f4e487b71000000000000000000000000000000000000000000000000000000005f52601160045260245ffd5b5f6154498261428e565b91507fffffffffffffffffffffffffffffffffffffffffffffffffffffffffffffffff820361547b5761547a615412565b5b600182019050919050565b5f615498615493846144e4565b61412b565b9050828152602081018484840111156154b4576154b3614381565b5b6154bf848285614776565b509392505050565b5f82601f8301126154db576154da6140b9565b5b81516154eb848260208601615486565b91505092915050565b5f60208284031215615509576155086140b1565b5b5f82015167ffffffffffffffff811115615526576155256140b5565b5b615532848285016154c7565b91505092915050565b5f81905092915050565b5f615550838561553b565b935061555d8385846143b5565b82840190509392505050565b5f615575828486615545565b91508190509392505050565b61558a81614b11565b82525050565b5f60e0820190506155a35f83018a6149b1565b6155b06020830189614656565b6155bd6040830188615581565b6155ca60608301876147f6565b6155d76080830186614656565b6155e460a08301856149b1565b6155f160c08301846149b1565b98975050505050505050565b5f6156078261428e565b91506156128361428e565b925082820390508181111561562a57615629615412565b5b92915050565b5f81519050919050565b5f82825260208201905092915050565b5f819050602082019050919050565b61566281614193565b82525050565b5f6156738383615659565b60208301905092915050565b5f602082019050919050565b5f61569582615630565b61569f818561563a565b93506156aa8361564a565b805f5b838110156156da5781516156c18882615668565b97506156cc8361567f565b9250506001810190506156ad565b5085935050505092915050565b5f81519050919050565b5f82825260208201905092915050565b5f819050602082019050919050565b5f81519050919050565b5f82825260208201905092915050565b5f61573482615710565b61573e818561571a565b935061574e818560208601614776565b615757816140bd565b840191505092915050565b5f61576d838361572a565b905092915050565b5f602082019050919050565b5f61578b826156e7565b61579581856156f1565b9350836020820285016157a785615701565b805f5b858110156157e257848403895281516157c38582615762565b94506157ce83615775565b925060208a019950506001810190506157aa565b50829750879550505050505092915050565b5f6080820190508181035f83015261580c818761568b565b905081810360208301526158208186614e91565b905081810360408301526158348185615781565b905061584360608301846149b1565b95945050505050565b5f61585682614a65565b915061586183614a65565b9250828203905065ffffffffffff81111561587f5761587e615412565b5b92915050565b5f6060820190506158985f8301866147f6565b6158a56020830185614656565b6158b26040830184614656565b949350505050565b5f60a0820190506158cd5f8301886149b1565b6158da6020830187614656565b6158e76040830186615581565b6158f460608301856147f6565b6159016080830184614656565b9695505050505050565b61591481614a65565b811461591e575f80fd5b50565b5f8151905061592f8161590b565b92915050565b5f6020828403121561594a576159496140b1565b5b5f61595784828501615921565b91505092915050565b5f61596a82614a65565b915061597583614a65565b9250828201905065ffffffffffff81111561599357615992615412565b5b92915050565b5f6040820190506159ac5f830185614656565b6159b96020830184614656565b9392505050565b5f6060820190506159d35f830186614656565b6159e06020830185614a3d565b6159ed60408301846149b1565b949350505050565b5f6159ff82615710565b615a09818561553b565b9350615a19818560208601614776565b80840191505092915050565b5f615a3082846159f5565b915081905092915050565b5f615a458261428e565b9150615a508361428e565b9250828201905080821115615a6857615a67615412565b5b92915050565b5f819050919050565b5f615a91615a8c615a8784615a6e565b6152bd565b614b11565b9050919050565b615aa181615a77565b82525050565b5f604082019050615aba5f830185615a98565b615ac76020830184614656565b9392505050565b5f615ad882614b11565b9150615ae383614b11565b9250828201905060ff811115615afc57615afb615412565b5b92915050565b5f8160011c9050919050565b5f808291508390505b6001851115615b5757808604811115615b3357615b32615412565b5b6001851615615b425780820291505b8081029050615b5085615b02565b9450615b17565b94509492505050565b5f82615b6f5760019050615c2a565b81615b7c575f9050615c2a565b8160018114615b925760028114615b9c57615bcb565b6001915050615c2a565b60ff841115615bae57615bad615412565b5b8360020a915084821115615bc557615bc4615412565b5b50615c2a565b5060208310610133831016604e8410600b8410161715615c005782820a905083811115615bfb57615bfa615412565b5b615c2a565b615c0d8484846001615b0e565b92509050818404811115615c2457615c23615412565b5b81810290505b9392505050565b5f615c3b8261428e565b9150615c4683614b11565b9250615c737fffffffffffffffffffffffffffffffffffffffffffffffffffffffffffffffff8484615b60565b905092915050565b5f608082019050615c8e5f830187614656565b615c9b6020830186615581565b615ca86040830185614656565b8181036060830152615cba818461479e565b905095945050505050565b5f82825260208201905092915050565b5f615cdf82615710565b615ce98185615cc5565b9350615cf9818560208601614776565b615d02816140bd565b840191505092915050565b5f60a082019050615d205f830188614656565b615d2d6020830187615581565b615d3a6040830186614656565b8181036060830152615d4c818561479e565b90508181036080830152615d608184615cd5565b90509695505050505050565b5f81519050919050565b5f82825260208201905092915050565b5f819050602082019050919050565b5f82825260208201905092915050565b5f615daf8261475c565b615db98185615d95565b9350615dc9818560208601614776565b615dd2816140bd565b840191505092915050565b5f615de88383615da5565b905092915050565b5f602082019050919050565b5f615e0682615d6c565b615e108185615d76565b935083602082028501615e2285615d86565b805f5b85811015615e5d5784840389528151615e3e8582615ddd565b9450615e4983615df0565b925060208a01995050600181019050615e25565b50829750879550505050505092915050565b5f61012082019050615e835f83018c614656565b615e90602083018b6147f6565b8181036040830152615ea2818a61568b565b90508181036060830152615eb68189614e91565b90508181036080830152615eca8188615dfc565b905081810360a0830152615ede8187615781565b9050615eed60c0830186614656565b615efa60e0830185614656565b818103610100830152615f0d818461479e565b90509a9950505050505050505050565b5f604082019050615f305f8301856147f6565b615f3d6020830184614656565b9392505050565b5f81519050615f5281614297565b92915050565b5f60208284031215615f6d57615f6c6140b1565b5b5f615f7a84828501615f44565b91505092915050565b5f615f8d8261428e565b9150615f988361428e565b9250828202615fa68161428e565b91508282048414831517615fbd57615fbc615412565b5b5092915050565b7f4e487b71000000000000000000000000000000000000000000000000000000005f52601260045260245ffd5b5f615ffb8261428e565b91506160068361428e565b92508261601657616015615fc4565b5b828204905092915050565b5f819050919050565b5f61604461603f61603a84616021565b6152bd565b614b11565b9050919050565b6160548161602a565b82525050565b5f60408201905061606d5f83018561604b565b61607a6020830184614656565b9392505050565b5f6040820190506160945f8301856149b1565b81810360208301526160a68184615cd5565b90509392505050565b5f815190506160bd816148cf565b92915050565b5f602082840312156160d8576160d76140b1565b5b5f6160e5848285016160af565b91505092915050565b5f819050919050565b5f61611161610c616107846160ee565b6152bd565b614b11565b9050919050565b616121816160f7565b82525050565b5f60408201905061613a5f830185616118565b6161476020830184614656565b9392505050565b5f60a0820190506161615f8301886149b1565b61616e60208301876149b1565b61617b60408301866149b1565b6161886060830185614656565b61619560808301846147f6565b9695505050505050565b5f6080820190506161b25f8301876149b1565b6161bf6020830186615581565b6161cc60408301856149b1565b6161d960608301846149b1565b9594505050505056fea2646970667358221220f1c26cae106e86a1287b414d4d218ba7c595696ea6ecb2df0222a6996ef0de1a64736f6c63430008150033",
  "linkReferences": {},
  "deployedLinkReferences": {}
}